{
	"contracts/SimpleSwap.sol": {
		"SimpleSwap": {
			"abi": [
				{
					"inputs": [
						{
							"internalType": "address",
							"name": "_token1",
							"type": "address"
						},
						{
							"internalType": "address",
							"name": "_token2",
							"type": "address"
						}
					],
					"stateMutability": "nonpayable",
					"type": "constructor"
				},
				{
					"inputs": [
						{
							"internalType": "address",
							"name": "owner",
							"type": "address"
						}
					],
					"name": "OwnableInvalidOwner",
					"type": "error"
				},
				{
					"inputs": [
						{
							"internalType": "address",
							"name": "account",
							"type": "address"
						}
					],
					"name": "OwnableUnauthorizedAccount",
					"type": "error"
				},
				{
					"anonymous": false,
					"inputs": [
						{
							"indexed": true,
							"internalType": "address",
							"name": "previousOwner",
							"type": "address"
						},
						{
							"indexed": true,
							"internalType": "address",
							"name": "newOwner",
							"type": "address"
						}
					],
					"name": "OwnershipTransferred",
					"type": "event"
				},
				{
					"inputs": [
						{
							"internalType": "address",
							"name": "tokenA",
							"type": "address"
						},
						{
							"internalType": "address",
							"name": "tokenB",
							"type": "address"
						},
						{
							"internalType": "uint256",
							"name": "amountADesired",
							"type": "uint256"
						},
						{
							"internalType": "uint256",
							"name": "amountBDesired",
							"type": "uint256"
						},
						{
							"internalType": "uint256",
							"name": "amountAMin",
							"type": "uint256"
						},
						{
							"internalType": "uint256",
							"name": "amountBMin",
							"type": "uint256"
						},
						{
							"internalType": "address",
							"name": "to",
							"type": "address"
						},
						{
							"internalType": "uint256",
							"name": "deadline",
							"type": "uint256"
						}
					],
					"name": "addLiquidityaddLiquidity",
					"outputs": [
						{
							"internalType": "uint256",
							"name": "amountA",
							"type": "uint256"
						},
						{
							"internalType": "uint256",
							"name": "amountB",
							"type": "uint256"
						},
						{
							"internalType": "uint256",
							"name": "liquidity",
							"type": "uint256"
						}
					],
					"stateMutability": "nonpayable",
					"type": "function"
				},
				{
					"inputs": [
						{
							"internalType": "uint256",
							"name": "amountIn",
							"type": "uint256"
						},
						{
							"internalType": "uint256",
							"name": "reserveIn",
							"type": "uint256"
						},
						{
							"internalType": "uint256",
							"name": "reserveOut",
							"type": "uint256"
						}
					],
					"name": "getAmountOut",
					"outputs": [
						{
							"internalType": "uint256",
							"name": "amountOut",
							"type": "uint256"
						}
					],
					"stateMutability": "pure",
					"type": "function"
				},
				{
					"inputs": [
						{
							"internalType": "address",
							"name": "tokenA",
							"type": "address"
						},
						{
							"internalType": "address",
							"name": "tokenB",
							"type": "address"
						}
					],
					"name": "getPrice",
					"outputs": [
						{
							"internalType": "uint256",
							"name": "price",
							"type": "uint256"
						}
					],
					"stateMutability": "view",
					"type": "function"
				},
				{
					"inputs": [],
					"name": "owner",
					"outputs": [
						{
							"internalType": "address",
							"name": "",
							"type": "address"
						}
					],
					"stateMutability": "view",
					"type": "function"
				},
				{
					"inputs": [
						{
							"internalType": "address",
							"name": "tokenA",
							"type": "address"
						},
						{
							"internalType": "address",
							"name": "tokenB",
							"type": "address"
						},
						{
							"internalType": "uint256",
							"name": "liquidity",
							"type": "uint256"
						},
						{
							"internalType": "uint256",
							"name": "amountAMin",
							"type": "uint256"
						},
						{
							"internalType": "uint256",
							"name": "amountBMin",
							"type": "uint256"
						},
						{
							"internalType": "address",
							"name": "to",
							"type": "address"
						},
						{
							"internalType": "uint256",
							"name": "deadline",
							"type": "uint256"
						}
					],
					"name": "removeLiquidity",
					"outputs": [
						{
							"internalType": "uint256",
							"name": "amountA",
							"type": "uint256"
						},
						{
							"internalType": "uint256",
							"name": "amountB",
							"type": "uint256"
						}
					],
					"stateMutability": "nonpayable",
					"type": "function"
				},
				{
					"inputs": [],
					"name": "renounceOwnership",
					"outputs": [],
					"stateMutability": "nonpayable",
					"type": "function"
				},
				{
					"inputs": [
						{
							"internalType": "uint256",
							"name": "amountIn",
							"type": "uint256"
						},
						{
							"internalType": "uint256",
							"name": "amountOutMin",
							"type": "uint256"
						},
						{
							"internalType": "address[]",
							"name": "path",
							"type": "address[]"
						},
						{
							"internalType": "address",
							"name": "to",
							"type": "address"
						},
						{
							"internalType": "uint256",
							"name": "deadline",
							"type": "uint256"
						}
					],
					"name": "swapExactTokensForTokens",
					"outputs": [
						{
							"internalType": "uint256[]",
							"name": "amounts",
							"type": "uint256[]"
						}
					],
					"stateMutability": "nonpayable",
					"type": "function"
				},
				{
					"inputs": [],
					"name": "token1",
					"outputs": [
						{
							"internalType": "contract ERC20",
							"name": "",
							"type": "address"
						}
					],
					"stateMutability": "view",
					"type": "function"
				},
				{
					"inputs": [],
					"name": "token2",
					"outputs": [
						{
							"internalType": "contract ERC20",
							"name": "",
							"type": "address"
						}
					],
					"stateMutability": "view",
					"type": "function"
				},
				{
					"inputs": [
						{
							"internalType": "address",
							"name": "newOwner",
							"type": "address"
						}
					],
					"name": "transferOwnership",
					"outputs": [],
					"stateMutability": "nonpayable",
					"type": "function"
				}
			],
			"devdoc": {
				"errors": {
					"OwnableInvalidOwner(address)": [
						{
							"details": "The owner is not a valid owner account. (eg. `address(0)`)"
						}
					],
					"OwnableUnauthorizedAccount(address)": [
						{
							"details": "The caller account is not authorized to perform an operation."
						}
					]
				},
				"kind": "dev",
				"methods": {
					"owner()": {
						"details": "Returns the address of the current owner."
					},
					"renounceOwnership()": {
						"details": "Leaves the contract without owner. It will not be possible to call `onlyOwner` functions. Can only be called by the current owner. NOTE: Renouncing ownership will leave the contract without an owner, thereby disabling any functionality that is only available to the owner."
					},
					"transferOwnership(address)": {
						"details": "Transfers ownership of the contract to a new account (`newOwner`). Can only be called by the current owner."
					}
				},
				"version": 1
			},
			"evm": {
				"assembly": "    /* \"contracts/SimpleSwap.sol\":344:1839  contract SimpleSwap is Ownable {... */\n  mstore(0x40, 0x80)\n    /* \"contracts/SimpleSwap.sol\":470:615  constructor(address _token1, address _token2) Ownable(msg.sender) {... */\n  callvalue\n  dup1\n  iszero\n  tag_1\n  jumpi\n  revert(0x00, 0x00)\ntag_1:\n  pop\n  mload(0x40)\n  sub(codesize, bytecodeSize)\n  dup1\n  bytecodeSize\n  dup4\n  codecopy\n  dup2\n  dup2\n  add\n  0x40\n  mstore\n  dup2\n  add\n  swap1\n  tag_2\n  swap2\n  swap1\n  tag_3\n  jump\t// in\ntag_2:\n    /* \"contracts/SimpleSwap.sol\":524:534  msg.sender */\n  caller\n    /* \"@openzeppelin/contracts/access/Ownable.sol\":1297:1298  0 */\n  0x00\n    /* \"@openzeppelin/contracts/access/Ownable.sol\":1273:1299  initialOwner == address(0) */\n  0xffffffffffffffffffffffffffffffffffffffff\n  and\n    /* \"@openzeppelin/contracts/access/Ownable.sol\":1273:1285  initialOwner */\n  dup2\n    /* \"@openzeppelin/contracts/access/Ownable.sol\":1273:1299  initialOwner == address(0) */\n  0xffffffffffffffffffffffffffffffffffffffff\n  and\n  sub\n    /* \"@openzeppelin/contracts/access/Ownable.sol\":1269:1364  if (initialOwner == address(0)) {... */\n  tag_7\n  jumpi\n    /* \"@openzeppelin/contracts/access/Ownable.sol\":1350:1351  0 */\n  0x00\n    /* \"@openzeppelin/contracts/access/Ownable.sol\":1322:1353  OwnableInvalidOwner(address(0)) */\n  mload(0x40)\n  0x1e4fbdf700000000000000000000000000000000000000000000000000000000\n  dup2\n  mstore\n  0x04\n  add\n  tag_8\n  swap2\n  swap1\n  tag_9\n  jump\t// in\ntag_8:\n  mload(0x40)\n  dup1\n  swap2\n  sub\n  swap1\n  revert\n    /* \"@openzeppelin/contracts/access/Ownable.sol\":1269:1364  if (initialOwner == address(0)) {... */\ntag_7:\n    /* \"@openzeppelin/contracts/access/Ownable.sol\":1373:1405  _transferOwnership(initialOwner) */\n  tag_10\n    /* \"@openzeppelin/contracts/access/Ownable.sol\":1392:1404  initialOwner */\n  dup2\n    /* \"@openzeppelin/contracts/access/Ownable.sol\":1373:1391  _transferOwnership */\n  shl(0x20, tag_11)\n    /* \"@openzeppelin/contracts/access/Ownable.sol\":1373:1405  _transferOwnership(initialOwner) */\n  0x20\n  shr\n  jump\t// in\ntag_10:\n    /* \"@openzeppelin/contracts/access/Ownable.sol\":1225:1412  constructor(address initialOwner) {... */\n  pop\n    /* \"contracts/SimpleSwap.sol\":562:569  _token1 */\n  dup2\n    /* \"contracts/SimpleSwap.sol\":547:553  token1 */\n  0x01\n  0x00\n    /* \"contracts/SimpleSwap.sol\":547:570  token1 = ERC20(_token1) */\n  0x0100\n  exp\n  dup2\n  sload\n  dup2\n  0xffffffffffffffffffffffffffffffffffffffff\n  mul\n  not\n  and\n  swap1\n  dup4\n  0xffffffffffffffffffffffffffffffffffffffff\n  and\n  mul\n  or\n  swap1\n  sstore\n  pop\n    /* \"contracts/SimpleSwap.sol\":596:603  _token2 */\n  dup1\n    /* \"contracts/SimpleSwap.sol\":581:587  token2 */\n  0x02\n  0x00\n    /* \"contracts/SimpleSwap.sol\":581:604  token2 = ERC20(_token2) */\n  0x0100\n  exp\n  dup2\n  sload\n  dup2\n  0xffffffffffffffffffffffffffffffffffffffff\n  mul\n  not\n  and\n  swap1\n  dup4\n  0xffffffffffffffffffffffffffffffffffffffff\n  and\n  mul\n  or\n  swap1\n  sstore\n  pop\n    /* \"contracts/SimpleSwap.sol\":470:615  constructor(address _token1, address _token2) Ownable(msg.sender) {... */\n  pop\n  pop\n    /* \"contracts/SimpleSwap.sol\":344:1839  contract SimpleSwap is Ownable {... */\n  jump(tag_13)\n    /* \"@openzeppelin/contracts/access/Ownable.sol\":2912:3099  function _transferOwnership(address newOwner) internal virtual {... */\ntag_11:\n    /* \"@openzeppelin/contracts/access/Ownable.sol\":2985:3001  address oldOwner */\n  0x00\n    /* \"@openzeppelin/contracts/access/Ownable.sol\":3004:3010  _owner */\n  0x00\n  0x00\n  swap1\n  sload\n  swap1\n  0x0100\n  exp\n  swap1\n  div\n  0xffffffffffffffffffffffffffffffffffffffff\n  and\n    /* \"@openzeppelin/contracts/access/Ownable.sol\":2985:3010  address oldOwner = _owner */\n  swap1\n  pop\n    /* \"@openzeppelin/contracts/access/Ownable.sol\":3029:3037  newOwner */\n  dup2\n    /* \"@openzeppelin/contracts/access/Ownable.sol\":3020:3026  _owner */\n  0x00\n  0x00\n    /* \"@openzeppelin/contracts/access/Ownable.sol\":3020:3037  _owner = newOwner */\n  0x0100\n  exp\n  dup2\n  sload\n  dup2\n  0xffffffffffffffffffffffffffffffffffffffff\n  mul\n  not\n  and\n  swap1\n  dup4\n  0xffffffffffffffffffffffffffffffffffffffff\n  and\n  mul\n  or\n  swap1\n  sstore\n  pop\n    /* \"@openzeppelin/contracts/access/Ownable.sol\":3083:3091  newOwner */\n  dup2\n    /* \"@openzeppelin/contracts/access/Ownable.sol\":3052:3092  OwnershipTransferred(oldOwner, newOwner) */\n  0xffffffffffffffffffffffffffffffffffffffff\n  and\n    /* \"@openzeppelin/contracts/access/Ownable.sol\":3073:3081  oldOwner */\n  dup2\n    /* \"@openzeppelin/contracts/access/Ownable.sol\":3052:3092  OwnershipTransferred(oldOwner, newOwner) */\n  0xffffffffffffffffffffffffffffffffffffffff\n  and\n  0x8be0079c531659141344cd1fd0a4f28419497f9722a3daafe3b4186f6b6457e0\n  mload(0x40)\n  mload(0x40)\n  dup1\n  swap2\n  sub\n  swap1\n  log3\n    /* \"@openzeppelin/contracts/access/Ownable.sol\":2975:3099  {... */\n  pop\n    /* \"@openzeppelin/contracts/access/Ownable.sol\":2912:3099  function _transferOwnership(address newOwner) internal virtual {... */\n  pop\n  jump\t// out\n    /* \"#utility.yul\":88:205   */\ntag_16:\n    /* \"#utility.yul\":197:198   */\n  0x00\n    /* \"#utility.yul\":194:195   */\n  0x00\n    /* \"#utility.yul\":187:199   */\n  revert\n    /* \"#utility.yul\":334:460   */\ntag_18:\n    /* \"#utility.yul\":371:378   */\n  0x00\n    /* \"#utility.yul\":411:453   */\n  0xffffffffffffffffffffffffffffffffffffffff\n    /* \"#utility.yul\":404:409   */\n  dup3\n    /* \"#utility.yul\":400:454   */\n  and\n    /* \"#utility.yul\":389:454   */\n  swap1\n  pop\n    /* \"#utility.yul\":334:460   */\n  swap2\n  swap1\n  pop\n  jump\t// out\n    /* \"#utility.yul\":466:562   */\ntag_19:\n    /* \"#utility.yul\":503:510   */\n  0x00\n    /* \"#utility.yul\":532:556   */\n  tag_29\n    /* \"#utility.yul\":550:555   */\n  dup3\n    /* \"#utility.yul\":532:556   */\n  tag_18\n  jump\t// in\ntag_29:\n    /* \"#utility.yul\":521:556   */\n  swap1\n  pop\n    /* \"#utility.yul\":466:562   */\n  swap2\n  swap1\n  pop\n  jump\t// out\n    /* \"#utility.yul\":568:690   */\ntag_20:\n    /* \"#utility.yul\":641:665   */\n  tag_31\n    /* \"#utility.yul\":659:664   */\n  dup2\n    /* \"#utility.yul\":641:665   */\n  tag_19\n  jump\t// in\ntag_31:\n    /* \"#utility.yul\":634:639   */\n  dup2\n    /* \"#utility.yul\":631:666   */\n  eq\n    /* \"#utility.yul\":621:684   */\n  tag_32\n  jumpi\n    /* \"#utility.yul\":680:681   */\n  0x00\n    /* \"#utility.yul\":677:678   */\n  0x00\n    /* \"#utility.yul\":670:682   */\n  revert\n    /* \"#utility.yul\":621:684   */\ntag_32:\n    /* \"#utility.yul\":568:690   */\n  pop\n  jump\t// out\n    /* \"#utility.yul\":696:839   */\ntag_21:\n    /* \"#utility.yul\":753:758   */\n  0x00\n    /* \"#utility.yul\":784:790   */\n  dup2\n    /* \"#utility.yul\":778:791   */\n  mload\n    /* \"#utility.yul\":769:791   */\n  swap1\n  pop\n    /* \"#utility.yul\":800:833   */\n  tag_34\n    /* \"#utility.yul\":827:832   */\n  dup2\n    /* \"#utility.yul\":800:833   */\n  tag_20\n  jump\t// in\ntag_34:\n    /* \"#utility.yul\":696:839   */\n  swap3\n  swap2\n  pop\n  pop\n  jump\t// out\n    /* \"#utility.yul\":845:1352   */\ntag_3:\n    /* \"#utility.yul\":924:930   */\n  0x00\n    /* \"#utility.yul\":932:938   */\n  0x00\n    /* \"#utility.yul\":981:983   */\n  0x40\n    /* \"#utility.yul\":969:978   */\n  dup4\n    /* \"#utility.yul\":960:967   */\n  dup6\n    /* \"#utility.yul\":956:979   */\n  sub\n    /* \"#utility.yul\":952:984   */\n  slt\n    /* \"#utility.yul\":949:1068   */\n  iszero\n  tag_36\n  jumpi\n    /* \"#utility.yul\":987:1066   */\n  tag_37\n  tag_16\n  jump\t// in\ntag_37:\n    /* \"#utility.yul\":949:1068   */\ntag_36:\n    /* \"#utility.yul\":1107:1108   */\n  0x00\n    /* \"#utility.yul\":1132:1196   */\n  tag_38\n    /* \"#utility.yul\":1188:1195   */\n  dup6\n    /* \"#utility.yul\":1179:1185   */\n  dup3\n    /* \"#utility.yul\":1168:1177   */\n  dup7\n    /* \"#utility.yul\":1164:1186   */\n  add\n    /* \"#utility.yul\":1132:1196   */\n  tag_21\n  jump\t// in\ntag_38:\n    /* \"#utility.yul\":1122:1196   */\n  swap3\n  pop\n    /* \"#utility.yul\":1078:1206   */\n  pop\n    /* \"#utility.yul\":1245:1247   */\n  0x20\n    /* \"#utility.yul\":1271:1335   */\n  tag_39\n    /* \"#utility.yul\":1327:1334   */\n  dup6\n    /* \"#utility.yul\":1318:1324   */\n  dup3\n    /* \"#utility.yul\":1307:1316   */\n  dup7\n    /* \"#utility.yul\":1303:1325   */\n  add\n    /* \"#utility.yul\":1271:1335   */\n  tag_21\n  jump\t// in\ntag_39:\n    /* \"#utility.yul\":1261:1335   */\n  swap2\n  pop\n    /* \"#utility.yul\":1216:1345   */\n  pop\n    /* \"#utility.yul\":845:1352   */\n  swap3\n  pop\n  swap3\n  swap1\n  pop\n  jump\t// out\n    /* \"#utility.yul\":1358:1476   */\ntag_22:\n    /* \"#utility.yul\":1445:1469   */\n  tag_41\n    /* \"#utility.yul\":1463:1468   */\n  dup2\n    /* \"#utility.yul\":1445:1469   */\n  tag_19\n  jump\t// in\ntag_41:\n    /* \"#utility.yul\":1440:1443   */\n  dup3\n    /* \"#utility.yul\":1433:1470   */\n  mstore\n    /* \"#utility.yul\":1358:1476   */\n  pop\n  pop\n  jump\t// out\n    /* \"#utility.yul\":1482:1704   */\ntag_9:\n    /* \"#utility.yul\":1575:1579   */\n  0x00\n    /* \"#utility.yul\":1613:1615   */\n  0x20\n    /* \"#utility.yul\":1602:1611   */\n  dup3\n    /* \"#utility.yul\":1598:1616   */\n  add\n    /* \"#utility.yul\":1590:1616   */\n  swap1\n  pop\n    /* \"#utility.yul\":1626:1697   */\n  tag_43\n    /* \"#utility.yul\":1694:1695   */\n  0x00\n    /* \"#utility.yul\":1683:1692   */\n  dup4\n    /* \"#utility.yul\":1679:1696   */\n  add\n    /* \"#utility.yul\":1670:1676   */\n  dup5\n    /* \"#utility.yul\":1626:1697   */\n  tag_22\n  jump\t// in\ntag_43:\n    /* \"#utility.yul\":1482:1704   */\n  swap3\n  swap2\n  pop\n  pop\n  jump\t// out\n    /* \"contracts/SimpleSwap.sol\":344:1839  contract SimpleSwap is Ownable {... */\ntag_13:\n  dataSize(sub_0)\n  dup1\n  dataOffset(sub_0)\n  0x00\n  codecopy\n  0x00\n  return\nstop\n\nsub_0: assembly {\n        /* \"contracts/SimpleSwap.sol\":344:1839  contract SimpleSwap is Ownable {... */\n      mstore(0x40, 0x80)\n      callvalue\n      dup1\n      iszero\n      tag_1\n      jumpi\n      revert(0x00, 0x00)\n    tag_1:\n      pop\n      jumpi(tag_2, lt(calldatasize, 0x04))\n      shr(0xe0, calldataload(0x00))\n      dup1\n      0x8da5cb5b\n      gt\n      tag_13\n      jumpi\n      dup1\n      0x8da5cb5b\n      eq\n      tag_8\n      jumpi\n      dup1\n      0xac41865a\n      eq\n      tag_9\n      jumpi\n      dup1\n      0xbaa2abde\n      eq\n      tag_10\n      jumpi\n      dup1\n      0xd21220a7\n      eq\n      tag_11\n      jumpi\n      dup1\n      0xf2fde38b\n      eq\n      tag_12\n      jumpi\n      jump(tag_2)\n    tag_13:\n      dup1\n      0x054d50d4\n      eq\n      tag_3\n      jumpi\n      dup1\n      0x25be124e\n      eq\n      tag_4\n      jumpi\n      dup1\n      0x38ed1739\n      eq\n      tag_5\n      jumpi\n      dup1\n      0x3de2d681\n      eq\n      tag_6\n      jumpi\n      dup1\n      0x715018a6\n      eq\n      tag_7\n      jumpi\n    tag_2:\n      revert(0x00, 0x00)\n        /* \"contracts/SimpleSwap.sol\":1686:1826  function getAmountOut(uint amountIn, uint reserveIn, uint reserveOut) external pure ... */\n    tag_3:\n      tag_14\n      0x04\n      dup1\n      calldatasize\n      sub\n      dup2\n      add\n      swap1\n      tag_15\n      swap2\n      swap1\n      tag_16\n      jump\t// in\n    tag_15:\n      tag_17\n      jump\t// in\n    tag_14:\n      mload(0x40)\n      tag_18\n      swap2\n      swap1\n      tag_19\n      jump\t// in\n    tag_18:\n      mload(0x40)\n      dup1\n      swap2\n      sub\n      swap1\n      return\n        /* \"contracts/SimpleSwap.sol\":410:429  ERC20 public token2 */\n    tag_4:\n      tag_20\n      tag_21\n      jump\t// in\n    tag_20:\n      mload(0x40)\n      tag_22\n      swap2\n      swap1\n      tag_23\n      jump\t// in\n    tag_22:\n      mload(0x40)\n      dup1\n      swap2\n      sub\n      swap1\n      return\n        /* \"contracts/SimpleSwap.sol\":1301:1507  function swapExactTokensForTokens(uint amountIn, uint amountOutMin, address[] calldata path, address to, uint deadline) external ... */\n    tag_5:\n      tag_24\n      0x04\n      dup1\n      calldatasize\n      sub\n      dup2\n      add\n      swap1\n      tag_25\n      swap2\n      swap1\n      tag_26\n      jump\t// in\n    tag_25:\n      tag_27\n      jump\t// in\n    tag_24:\n      mload(0x40)\n      tag_28\n      swap2\n      swap1\n      tag_29\n      jump\t// in\n    tag_28:\n      mload(0x40)\n      dup1\n      swap2\n      sub\n      swap1\n      return\n        /* \"contracts/SimpleSwap.sol\":681:1009  function addLiquidityaddLiquidity(address tokenA, address tokenB, uint amountADesired, uint amountBDesired, ... */\n    tag_6:\n      tag_30\n      0x04\n      dup1\n      calldatasize\n      sub\n      dup2\n      add\n      swap1\n      tag_31\n      swap2\n      swap1\n      tag_32\n      jump\t// in\n    tag_31:\n      tag_33\n      jump\t// in\n    tag_30:\n      mload(0x40)\n      tag_34\n      swap4\n      swap3\n      swap2\n      swap1\n      tag_35\n      jump\t// in\n    tag_34:\n      mload(0x40)\n      dup1\n      swap2\n      sub\n      swap1\n      return\n        /* \"@openzeppelin/contracts/access/Ownable.sol\":2293:2394  function renounceOwnership() public virtual onlyOwner {... */\n    tag_7:\n      tag_36\n      tag_37\n      jump\t// in\n    tag_36:\n      stop\n        /* \"@openzeppelin/contracts/access/Ownable.sol\":1638:1723  function owner() public view virtual returns (address) {... */\n    tag_8:\n      tag_38\n      tag_39\n      jump\t// in\n    tag_38:\n      mload(0x40)\n      tag_40\n      swap2\n      swap1\n      tag_41\n      jump\t// in\n    tag_40:\n      mload(0x40)\n      dup1\n      swap2\n      sub\n      swap1\n      return\n        /* \"contracts/SimpleSwap.sol\":1527:1666  function getPrice(address tokenA, address tokenB) external view ... */\n    tag_9:\n      tag_42\n      0x04\n      dup1\n      calldatasize\n      sub\n      dup2\n      add\n      swap1\n      tag_43\n      swap2\n      swap1\n      tag_44\n      jump\t// in\n    tag_43:\n      tag_45\n      jump\t// in\n    tag_42:\n      mload(0x40)\n      tag_46\n      swap2\n      swap1\n      tag_19\n      jump\t// in\n    tag_46:\n      mload(0x40)\n      dup1\n      swap2\n      sub\n      swap1\n      return\n        /* \"contracts/SimpleSwap.sol\":1029:1281  function removeLiquidity(address tokenA, address tokenB, uint liquidity, ... */\n    tag_10:\n      tag_47\n      0x04\n      dup1\n      calldatasize\n      sub\n      dup2\n      add\n      swap1\n      tag_48\n      swap2\n      swap1\n      tag_49\n      jump\t// in\n    tag_48:\n      tag_50\n      jump\t// in\n    tag_47:\n      mload(0x40)\n      tag_51\n      swap3\n      swap2\n      swap1\n      tag_52\n      jump\t// in\n    tag_51:\n      mload(0x40)\n      dup1\n      swap2\n      sub\n      swap1\n      return\n        /* \"contracts/SimpleSwap.sol\":384:403  ERC20 public token1 */\n    tag_11:\n      tag_53\n      tag_54\n      jump\t// in\n    tag_53:\n      mload(0x40)\n      tag_55\n      swap2\n      swap1\n      tag_23\n      jump\t// in\n    tag_55:\n      mload(0x40)\n      dup1\n      swap2\n      sub\n      swap1\n      return\n        /* \"@openzeppelin/contracts/access/Ownable.sol\":2543:2758  function transferOwnership(address newOwner) public virtual onlyOwner {... */\n    tag_12:\n      tag_56\n      0x04\n      dup1\n      calldatasize\n      sub\n      dup2\n      add\n      swap1\n      tag_57\n      swap2\n      swap1\n      tag_58\n      jump\t// in\n    tag_57:\n      tag_59\n      jump\t// in\n    tag_56:\n      stop\n        /* \"contracts/SimpleSwap.sol\":1686:1826  function getAmountOut(uint amountIn, uint reserveIn, uint reserveOut) external pure ... */\n    tag_17:\n        /* \"contracts/SimpleSwap.sol\":1801:1815  uint amountOut */\n      0x00\n        /* \"contracts/SimpleSwap.sol\":1686:1826  function getAmountOut(uint amountIn, uint reserveIn, uint reserveOut) external pure ... */\n      swap4\n      swap3\n      pop\n      pop\n      pop\n      jump\t// out\n        /* \"contracts/SimpleSwap.sol\":410:429  ERC20 public token2 */\n    tag_21:\n      0x02\n      0x00\n      swap1\n      sload\n      swap1\n      0x0100\n      exp\n      swap1\n      div\n      0xffffffffffffffffffffffffffffffffffffffff\n      and\n      dup2\n      jump\t// out\n        /* \"contracts/SimpleSwap.sol\":1301:1507  function swapExactTokensForTokens(uint amountIn, uint amountOutMin, address[] calldata path, address to, uint deadline) external ... */\n    tag_27:\n        /* \"contracts/SimpleSwap.sol\":1473:1494  uint[] memory amounts */\n      0x60\n        /* \"contracts/SimpleSwap.sol\":1301:1507  function swapExactTokensForTokens(uint amountIn, uint amountOutMin, address[] calldata path, address to, uint deadline) external ... */\n      swap7\n      swap6\n      pop\n      pop\n      pop\n      pop\n      pop\n      pop\n      jump\t// out\n        /* \"contracts/SimpleSwap.sol\":681:1009  function addLiquidityaddLiquidity(address tokenA, address tokenB, uint amountADesired, uint amountBDesired, ... */\n    tag_33:\n        /* \"contracts/SimpleSwap.sol\":942:954  uint amountA */\n      0x00\n        /* \"contracts/SimpleSwap.sol\":956:968  uint amountB */\n      0x00\n        /* \"contracts/SimpleSwap.sol\":970:984  uint liquidity */\n      0x00\n        /* \"contracts/SimpleSwap.sol\":681:1009  function addLiquidityaddLiquidity(address tokenA, address tokenB, uint amountADesired, uint amountBDesired, ... */\n      swap9\n      pop\n      swap9\n      pop\n      swap9\n      swap6\n      pop\n      pop\n      pop\n      pop\n      pop\n      pop\n      jump\t// out\n        /* \"@openzeppelin/contracts/access/Ownable.sol\":2293:2394  function renounceOwnership() public virtual onlyOwner {... */\n    tag_37:\n        /* \"@openzeppelin/contracts/access/Ownable.sol\":1531:1544  _checkOwner() */\n      tag_64\n        /* \"@openzeppelin/contracts/access/Ownable.sol\":1531:1542  _checkOwner */\n      tag_65\n        /* \"@openzeppelin/contracts/access/Ownable.sol\":1531:1544  _checkOwner() */\n      jump\t// in\n    tag_64:\n        /* \"@openzeppelin/contracts/access/Ownable.sol\":2357:2387  _transferOwnership(address(0)) */\n      tag_67\n        /* \"@openzeppelin/contracts/access/Ownable.sol\":2384:2385  0 */\n      0x00\n        /* \"@openzeppelin/contracts/access/Ownable.sol\":2357:2375  _transferOwnership */\n      tag_68\n        /* \"@openzeppelin/contracts/access/Ownable.sol\":2357:2387  _transferOwnership(address(0)) */\n      jump\t// in\n    tag_67:\n        /* \"@openzeppelin/contracts/access/Ownable.sol\":2293:2394  function renounceOwnership() public virtual onlyOwner {... */\n      jump\t// out\n        /* \"@openzeppelin/contracts/access/Ownable.sol\":1638:1723  function owner() public view virtual returns (address) {... */\n    tag_39:\n        /* \"@openzeppelin/contracts/access/Ownable.sol\":1684:1691  address */\n      0x00\n        /* \"@openzeppelin/contracts/access/Ownable.sol\":1710:1716  _owner */\n      0x00\n      0x00\n      swap1\n      sload\n      swap1\n      0x0100\n      exp\n      swap1\n      div\n      0xffffffffffffffffffffffffffffffffffffffff\n      and\n        /* \"@openzeppelin/contracts/access/Ownable.sol\":1703:1716  return _owner */\n      swap1\n      pop\n        /* \"@openzeppelin/contracts/access/Ownable.sol\":1638:1723  function owner() public view virtual returns (address) {... */\n      swap1\n      jump\t// out\n        /* \"contracts/SimpleSwap.sol\":1527:1666  function getPrice(address tokenA, address tokenB) external view ... */\n    tag_45:\n        /* \"contracts/SimpleSwap.sol\":1618:1628  uint price */\n      0x00\n        /* \"contracts/SimpleSwap.sol\":1527:1666  function getPrice(address tokenA, address tokenB) external view ... */\n      swap3\n      swap2\n      pop\n      pop\n      jump\t// out\n        /* \"contracts/SimpleSwap.sol\":1029:1281  function removeLiquidity(address tokenA, address tokenB, uint liquidity, ... */\n    tag_50:\n        /* \"contracts/SimpleSwap.sol\":1238:1250  uint amountA */\n      0x00\n        /* \"contracts/SimpleSwap.sol\":1252:1264  uint amountB */\n      0x00\n        /* \"contracts/SimpleSwap.sol\":1029:1281  function removeLiquidity(address tokenA, address tokenB, uint liquidity, ... */\n      swap8\n      pop\n      swap8\n      swap6\n      pop\n      pop\n      pop\n      pop\n      pop\n      pop\n      jump\t// out\n        /* \"contracts/SimpleSwap.sol\":384:403  ERC20 public token1 */\n    tag_54:\n      0x01\n      0x00\n      swap1\n      sload\n      swap1\n      0x0100\n      exp\n      swap1\n      div\n      0xffffffffffffffffffffffffffffffffffffffff\n      and\n      dup2\n      jump\t// out\n        /* \"@openzeppelin/contracts/access/Ownable.sol\":2543:2758  function transferOwnership(address newOwner) public virtual onlyOwner {... */\n    tag_59:\n        /* \"@openzeppelin/contracts/access/Ownable.sol\":1531:1544  _checkOwner() */\n      tag_73\n        /* \"@openzeppelin/contracts/access/Ownable.sol\":1531:1542  _checkOwner */\n      tag_65\n        /* \"@openzeppelin/contracts/access/Ownable.sol\":1531:1544  _checkOwner() */\n      jump\t// in\n    tag_73:\n        /* \"@openzeppelin/contracts/access/Ownable.sol\":2647:2648  0 */\n      0x00\n        /* \"@openzeppelin/contracts/access/Ownable.sol\":2627:2649  newOwner == address(0) */\n      0xffffffffffffffffffffffffffffffffffffffff\n      and\n        /* \"@openzeppelin/contracts/access/Ownable.sol\":2627:2635  newOwner */\n      dup2\n        /* \"@openzeppelin/contracts/access/Ownable.sol\":2627:2649  newOwner == address(0) */\n      0xffffffffffffffffffffffffffffffffffffffff\n      and\n      sub\n        /* \"@openzeppelin/contracts/access/Ownable.sol\":2623:2714  if (newOwner == address(0)) {... */\n      tag_75\n      jumpi\n        /* \"@openzeppelin/contracts/access/Ownable.sol\":2700:2701  0 */\n      0x00\n        /* \"@openzeppelin/contracts/access/Ownable.sol\":2672:2703  OwnableInvalidOwner(address(0)) */\n      mload(0x40)\n      0x1e4fbdf700000000000000000000000000000000000000000000000000000000\n      dup2\n      mstore\n      0x04\n      add\n      tag_76\n      swap2\n      swap1\n      tag_41\n      jump\t// in\n    tag_76:\n      mload(0x40)\n      dup1\n      swap2\n      sub\n      swap1\n      revert\n        /* \"@openzeppelin/contracts/access/Ownable.sol\":2623:2714  if (newOwner == address(0)) {... */\n    tag_75:\n        /* \"@openzeppelin/contracts/access/Ownable.sol\":2723:2751  _transferOwnership(newOwner) */\n      tag_77\n        /* \"@openzeppelin/contracts/access/Ownable.sol\":2742:2750  newOwner */\n      dup2\n        /* \"@openzeppelin/contracts/access/Ownable.sol\":2723:2741  _transferOwnership */\n      tag_68\n        /* \"@openzeppelin/contracts/access/Ownable.sol\":2723:2751  _transferOwnership(newOwner) */\n      jump\t// in\n    tag_77:\n        /* \"@openzeppelin/contracts/access/Ownable.sol\":2543:2758  function transferOwnership(address newOwner) public virtual onlyOwner {... */\n      pop\n      jump\t// out\n        /* \"@openzeppelin/contracts/access/Ownable.sol\":1796:1958  function _checkOwner() internal view virtual {... */\n    tag_65:\n        /* \"@openzeppelin/contracts/access/Ownable.sol\":1866:1878  _msgSender() */\n      tag_79\n        /* \"@openzeppelin/contracts/access/Ownable.sol\":1866:1876  _msgSender */\n      tag_80\n        /* \"@openzeppelin/contracts/access/Ownable.sol\":1866:1878  _msgSender() */\n      jump\t// in\n    tag_79:\n        /* \"@openzeppelin/contracts/access/Ownable.sol\":1855:1878  owner() != _msgSender() */\n      0xffffffffffffffffffffffffffffffffffffffff\n      and\n        /* \"@openzeppelin/contracts/access/Ownable.sol\":1855:1862  owner() */\n      tag_81\n        /* \"@openzeppelin/contracts/access/Ownable.sol\":1855:1860  owner */\n      tag_39\n        /* \"@openzeppelin/contracts/access/Ownable.sol\":1855:1862  owner() */\n      jump\t// in\n    tag_81:\n        /* \"@openzeppelin/contracts/access/Ownable.sol\":1855:1878  owner() != _msgSender() */\n      0xffffffffffffffffffffffffffffffffffffffff\n      and\n      eq\n        /* \"@openzeppelin/contracts/access/Ownable.sol\":1851:1952  if (owner() != _msgSender()) {... */\n      tag_82\n      jumpi\n        /* \"@openzeppelin/contracts/access/Ownable.sol\":1928:1940  _msgSender() */\n      tag_83\n        /* \"@openzeppelin/contracts/access/Ownable.sol\":1928:1938  _msgSender */\n      tag_80\n        /* \"@openzeppelin/contracts/access/Ownable.sol\":1928:1940  _msgSender() */\n      jump\t// in\n    tag_83:\n        /* \"@openzeppelin/contracts/access/Ownable.sol\":1901:1941  OwnableUnauthorizedAccount(_msgSender()) */\n      mload(0x40)\n      0x118cdaa700000000000000000000000000000000000000000000000000000000\n      dup2\n      mstore\n      0x04\n      add\n      tag_84\n      swap2\n      swap1\n      tag_41\n      jump\t// in\n    tag_84:\n      mload(0x40)\n      dup1\n      swap2\n      sub\n      swap1\n      revert\n        /* \"@openzeppelin/contracts/access/Ownable.sol\":1851:1952  if (owner() != _msgSender()) {... */\n    tag_82:\n        /* \"@openzeppelin/contracts/access/Ownable.sol\":1796:1958  function _checkOwner() internal view virtual {... */\n      jump\t// out\n        /* \"@openzeppelin/contracts/access/Ownable.sol\":2912:3099  function _transferOwnership(address newOwner) internal virtual {... */\n    tag_68:\n        /* \"@openzeppelin/contracts/access/Ownable.sol\":2985:3001  address oldOwner */\n      0x00\n        /* \"@openzeppelin/contracts/access/Ownable.sol\":3004:3010  _owner */\n      0x00\n      0x00\n      swap1\n      sload\n      swap1\n      0x0100\n      exp\n      swap1\n      div\n      0xffffffffffffffffffffffffffffffffffffffff\n      and\n        /* \"@openzeppelin/contracts/access/Ownable.sol\":2985:3010  address oldOwner = _owner */\n      swap1\n      pop\n        /* \"@openzeppelin/contracts/access/Ownable.sol\":3029:3037  newOwner */\n      dup2\n        /* \"@openzeppelin/contracts/access/Ownable.sol\":3020:3026  _owner */\n      0x00\n      0x00\n        /* \"@openzeppelin/contracts/access/Ownable.sol\":3020:3037  _owner = newOwner */\n      0x0100\n      exp\n      dup2\n      sload\n      dup2\n      0xffffffffffffffffffffffffffffffffffffffff\n      mul\n      not\n      and\n      swap1\n      dup4\n      0xffffffffffffffffffffffffffffffffffffffff\n      and\n      mul\n      or\n      swap1\n      sstore\n      pop\n        /* \"@openzeppelin/contracts/access/Ownable.sol\":3083:3091  newOwner */\n      dup2\n        /* \"@openzeppelin/contracts/access/Ownable.sol\":3052:3092  OwnershipTransferred(oldOwner, newOwner) */\n      0xffffffffffffffffffffffffffffffffffffffff\n      and\n        /* \"@openzeppelin/contracts/access/Ownable.sol\":3073:3081  oldOwner */\n      dup2\n        /* \"@openzeppelin/contracts/access/Ownable.sol\":3052:3092  OwnershipTransferred(oldOwner, newOwner) */\n      0xffffffffffffffffffffffffffffffffffffffff\n      and\n      0x8be0079c531659141344cd1fd0a4f28419497f9722a3daafe3b4186f6b6457e0\n      mload(0x40)\n      mload(0x40)\n      dup1\n      swap2\n      sub\n      swap1\n      log3\n        /* \"@openzeppelin/contracts/access/Ownable.sol\":2975:3099  {... */\n      pop\n        /* \"@openzeppelin/contracts/access/Ownable.sol\":2912:3099  function _transferOwnership(address newOwner) internal virtual {... */\n      pop\n      jump\t// out\n        /* \"@openzeppelin/contracts/utils/Context.sol\":656:752  function _msgSender() internal view virtual returns (address) {... */\n    tag_80:\n        /* \"@openzeppelin/contracts/utils/Context.sol\":709:716  address */\n      0x00\n        /* \"@openzeppelin/contracts/utils/Context.sol\":735:745  msg.sender */\n      caller\n        /* \"@openzeppelin/contracts/utils/Context.sol\":728:745  return msg.sender */\n      swap1\n      pop\n        /* \"@openzeppelin/contracts/utils/Context.sol\":656:752  function _msgSender() internal view virtual returns (address) {... */\n      swap1\n      jump\t// out\n        /* \"#utility.yul\":88:205   */\n    tag_88:\n        /* \"#utility.yul\":197:198   */\n      0x00\n        /* \"#utility.yul\":194:195   */\n      0x00\n        /* \"#utility.yul\":187:199   */\n      revert\n        /* \"#utility.yul\":211:328   */\n    tag_89:\n        /* \"#utility.yul\":320:321   */\n      0x00\n        /* \"#utility.yul\":317:318   */\n      0x00\n        /* \"#utility.yul\":310:322   */\n      revert\n        /* \"#utility.yul\":334:411   */\n    tag_90:\n        /* \"#utility.yul\":371:378   */\n      0x00\n        /* \"#utility.yul\":400:405   */\n      dup2\n        /* \"#utility.yul\":389:405   */\n      swap1\n      pop\n        /* \"#utility.yul\":334:411   */\n      swap2\n      swap1\n      pop\n      jump\t// out\n        /* \"#utility.yul\":417:539   */\n    tag_91:\n        /* \"#utility.yul\":490:514   */\n      tag_121\n        /* \"#utility.yul\":508:513   */\n      dup2\n        /* \"#utility.yul\":490:514   */\n      tag_90\n      jump\t// in\n    tag_121:\n        /* \"#utility.yul\":483:488   */\n      dup2\n        /* \"#utility.yul\":480:515   */\n      eq\n        /* \"#utility.yul\":470:533   */\n      tag_122\n      jumpi\n        /* \"#utility.yul\":529:530   */\n      0x00\n        /* \"#utility.yul\":526:527   */\n      0x00\n        /* \"#utility.yul\":519:531   */\n      revert\n        /* \"#utility.yul\":470:533   */\n    tag_122:\n        /* \"#utility.yul\":417:539   */\n      pop\n      jump\t// out\n        /* \"#utility.yul\":545:684   */\n    tag_92:\n        /* \"#utility.yul\":591:596   */\n      0x00\n        /* \"#utility.yul\":629:635   */\n      dup2\n        /* \"#utility.yul\":616:636   */\n      calldataload\n        /* \"#utility.yul\":607:636   */\n      swap1\n      pop\n        /* \"#utility.yul\":645:678   */\n      tag_124\n        /* \"#utility.yul\":672:677   */\n      dup2\n        /* \"#utility.yul\":645:678   */\n      tag_91\n      jump\t// in\n    tag_124:\n        /* \"#utility.yul\":545:684   */\n      swap3\n      swap2\n      pop\n      pop\n      jump\t// out\n        /* \"#utility.yul\":690:1309   */\n    tag_16:\n        /* \"#utility.yul\":767:773   */\n      0x00\n        /* \"#utility.yul\":775:781   */\n      0x00\n        /* \"#utility.yul\":783:789   */\n      0x00\n        /* \"#utility.yul\":832:834   */\n      0x60\n        /* \"#utility.yul\":820:829   */\n      dup5\n        /* \"#utility.yul\":811:818   */\n      dup7\n        /* \"#utility.yul\":807:830   */\n      sub\n        /* \"#utility.yul\":803:835   */\n      slt\n        /* \"#utility.yul\":800:919   */\n      iszero\n      tag_126\n      jumpi\n        /* \"#utility.yul\":838:917   */\n      tag_127\n      tag_88\n      jump\t// in\n    tag_127:\n        /* \"#utility.yul\":800:919   */\n    tag_126:\n        /* \"#utility.yul\":958:959   */\n      0x00\n        /* \"#utility.yul\":983:1036   */\n      tag_128\n        /* \"#utility.yul\":1028:1035   */\n      dup7\n        /* \"#utility.yul\":1019:1025   */\n      dup3\n        /* \"#utility.yul\":1008:1017   */\n      dup8\n        /* \"#utility.yul\":1004:1026   */\n      add\n        /* \"#utility.yul\":983:1036   */\n      tag_92\n      jump\t// in\n    tag_128:\n        /* \"#utility.yul\":973:1036   */\n      swap4\n      pop\n        /* \"#utility.yul\":929:1046   */\n      pop\n        /* \"#utility.yul\":1085:1087   */\n      0x20\n        /* \"#utility.yul\":1111:1164   */\n      tag_129\n        /* \"#utility.yul\":1156:1163   */\n      dup7\n        /* \"#utility.yul\":1147:1153   */\n      dup3\n        /* \"#utility.yul\":1136:1145   */\n      dup8\n        /* \"#utility.yul\":1132:1154   */\n      add\n        /* \"#utility.yul\":1111:1164   */\n      tag_92\n      jump\t// in\n    tag_129:\n        /* \"#utility.yul\":1101:1164   */\n      swap3\n      pop\n        /* \"#utility.yul\":1056:1174   */\n      pop\n        /* \"#utility.yul\":1213:1215   */\n      0x40\n        /* \"#utility.yul\":1239:1292   */\n      tag_130\n        /* \"#utility.yul\":1284:1291   */\n      dup7\n        /* \"#utility.yul\":1275:1281   */\n      dup3\n        /* \"#utility.yul\":1264:1273   */\n      dup8\n        /* \"#utility.yul\":1260:1282   */\n      add\n        /* \"#utility.yul\":1239:1292   */\n      tag_92\n      jump\t// in\n    tag_130:\n        /* \"#utility.yul\":1229:1292   */\n      swap2\n      pop\n        /* \"#utility.yul\":1184:1302   */\n      pop\n        /* \"#utility.yul\":690:1309   */\n      swap3\n      pop\n      swap3\n      pop\n      swap3\n      jump\t// out\n        /* \"#utility.yul\":1315:1433   */\n    tag_93:\n        /* \"#utility.yul\":1402:1426   */\n      tag_132\n        /* \"#utility.yul\":1420:1425   */\n      dup2\n        /* \"#utility.yul\":1402:1426   */\n      tag_90\n      jump\t// in\n    tag_132:\n        /* \"#utility.yul\":1397:1400   */\n      dup3\n        /* \"#utility.yul\":1390:1427   */\n      mstore\n        /* \"#utility.yul\":1315:1433   */\n      pop\n      pop\n      jump\t// out\n        /* \"#utility.yul\":1439:1661   */\n    tag_19:\n        /* \"#utility.yul\":1532:1536   */\n      0x00\n        /* \"#utility.yul\":1570:1572   */\n      0x20\n        /* \"#utility.yul\":1559:1568   */\n      dup3\n        /* \"#utility.yul\":1555:1573   */\n      add\n        /* \"#utility.yul\":1547:1573   */\n      swap1\n      pop\n        /* \"#utility.yul\":1583:1654   */\n      tag_134\n        /* \"#utility.yul\":1651:1652   */\n      0x00\n        /* \"#utility.yul\":1640:1649   */\n      dup4\n        /* \"#utility.yul\":1636:1653   */\n      add\n        /* \"#utility.yul\":1627:1633   */\n      dup5\n        /* \"#utility.yul\":1583:1654   */\n      tag_93\n      jump\t// in\n    tag_134:\n        /* \"#utility.yul\":1439:1661   */\n      swap3\n      swap2\n      pop\n      pop\n      jump\t// out\n        /* \"#utility.yul\":1667:1793   */\n    tag_94:\n        /* \"#utility.yul\":1704:1711   */\n      0x00\n        /* \"#utility.yul\":1744:1786   */\n      0xffffffffffffffffffffffffffffffffffffffff\n        /* \"#utility.yul\":1737:1742   */\n      dup3\n        /* \"#utility.yul\":1733:1787   */\n      and\n        /* \"#utility.yul\":1722:1787   */\n      swap1\n      pop\n        /* \"#utility.yul\":1667:1793   */\n      swap2\n      swap1\n      pop\n      jump\t// out\n        /* \"#utility.yul\":1799:1859   */\n    tag_95:\n        /* \"#utility.yul\":1827:1830   */\n      0x00\n        /* \"#utility.yul\":1848:1853   */\n      dup2\n        /* \"#utility.yul\":1841:1853   */\n      swap1\n      pop\n        /* \"#utility.yul\":1799:1859   */\n      swap2\n      swap1\n      pop\n      jump\t// out\n        /* \"#utility.yul\":1865:2007   */\n    tag_96:\n        /* \"#utility.yul\":1915:1924   */\n      0x00\n        /* \"#utility.yul\":1948:2001   */\n      tag_138\n        /* \"#utility.yul\":1966:2000   */\n      tag_139\n        /* \"#utility.yul\":1975:1999   */\n      tag_140\n        /* \"#utility.yul\":1993:1998   */\n      dup5\n        /* \"#utility.yul\":1975:1999   */\n      tag_94\n      jump\t// in\n    tag_140:\n        /* \"#utility.yul\":1966:2000   */\n      tag_95\n      jump\t// in\n    tag_139:\n        /* \"#utility.yul\":1948:2001   */\n      tag_94\n      jump\t// in\n    tag_138:\n        /* \"#utility.yul\":1935:2001   */\n      swap1\n      pop\n        /* \"#utility.yul\":1865:2007   */\n      swap2\n      swap1\n      pop\n      jump\t// out\n        /* \"#utility.yul\":2013:2139   */\n    tag_97:\n        /* \"#utility.yul\":2063:2072   */\n      0x00\n        /* \"#utility.yul\":2096:2133   */\n      tag_142\n        /* \"#utility.yul\":2127:2132   */\n      dup3\n        /* \"#utility.yul\":2096:2133   */\n      tag_96\n      jump\t// in\n    tag_142:\n        /* \"#utility.yul\":2083:2133   */\n      swap1\n      pop\n        /* \"#utility.yul\":2013:2139   */\n      swap2\n      swap1\n      pop\n      jump\t// out\n        /* \"#utility.yul\":2145:2284   */\n    tag_98:\n        /* \"#utility.yul\":2208:2217   */\n      0x00\n        /* \"#utility.yul\":2241:2278   */\n      tag_144\n        /* \"#utility.yul\":2272:2277   */\n      dup3\n        /* \"#utility.yul\":2241:2278   */\n      tag_97\n      jump\t// in\n    tag_144:\n        /* \"#utility.yul\":2228:2278   */\n      swap1\n      pop\n        /* \"#utility.yul\":2145:2284   */\n      swap2\n      swap1\n      pop\n      jump\t// out\n        /* \"#utility.yul\":2290:2447   */\n    tag_99:\n        /* \"#utility.yul\":2390:2440   */\n      tag_146\n        /* \"#utility.yul\":2434:2439   */\n      dup2\n        /* \"#utility.yul\":2390:2440   */\n      tag_98\n      jump\t// in\n    tag_146:\n        /* \"#utility.yul\":2385:2388   */\n      dup3\n        /* \"#utility.yul\":2378:2441   */\n      mstore\n        /* \"#utility.yul\":2290:2447   */\n      pop\n      pop\n      jump\t// out\n        /* \"#utility.yul\":2453:2701   */\n    tag_23:\n        /* \"#utility.yul\":2559:2563   */\n      0x00\n        /* \"#utility.yul\":2597:2599   */\n      0x20\n        /* \"#utility.yul\":2586:2595   */\n      dup3\n        /* \"#utility.yul\":2582:2600   */\n      add\n        /* \"#utility.yul\":2574:2600   */\n      swap1\n      pop\n        /* \"#utility.yul\":2610:2694   */\n      tag_148\n        /* \"#utility.yul\":2691:2692   */\n      0x00\n        /* \"#utility.yul\":2680:2689   */\n      dup4\n        /* \"#utility.yul\":2676:2693   */\n      add\n        /* \"#utility.yul\":2667:2673   */\n      dup5\n        /* \"#utility.yul\":2610:2694   */\n      tag_99\n      jump\t// in\n    tag_148:\n        /* \"#utility.yul\":2453:2701   */\n      swap3\n      swap2\n      pop\n      pop\n      jump\t// out\n        /* \"#utility.yul\":2707:2824   */\n    tag_100:\n        /* \"#utility.yul\":2816:2817   */\n      0x00\n        /* \"#utility.yul\":2813:2814   */\n      0x00\n        /* \"#utility.yul\":2806:2818   */\n      revert\n        /* \"#utility.yul\":2830:2947   */\n    tag_101:\n        /* \"#utility.yul\":2939:2940   */\n      0x00\n        /* \"#utility.yul\":2936:2937   */\n      0x00\n        /* \"#utility.yul\":2929:2941   */\n      revert\n        /* \"#utility.yul\":2953:3070   */\n    tag_102:\n        /* \"#utility.yul\":3062:3063   */\n      0x00\n        /* \"#utility.yul\":3059:3060   */\n      0x00\n        /* \"#utility.yul\":3052:3064   */\n      revert\n        /* \"#utility.yul\":3093:3661   */\n    tag_103:\n        /* \"#utility.yul\":3166:3174   */\n      0x00\n        /* \"#utility.yul\":3176:3182   */\n      0x00\n        /* \"#utility.yul\":3226:3229   */\n      dup4\n        /* \"#utility.yul\":3219:3223   */\n      0x1f\n        /* \"#utility.yul\":3211:3217   */\n      dup5\n        /* \"#utility.yul\":3207:3224   */\n      add\n        /* \"#utility.yul\":3203:3230   */\n      slt\n        /* \"#utility.yul\":3193:3315   */\n      tag_153\n      jumpi\n        /* \"#utility.yul\":3234:3313   */\n      tag_154\n      tag_100\n      jump\t// in\n    tag_154:\n        /* \"#utility.yul\":3193:3315   */\n    tag_153:\n        /* \"#utility.yul\":3347:3353   */\n      dup3\n        /* \"#utility.yul\":3334:3354   */\n      calldataload\n        /* \"#utility.yul\":3324:3354   */\n      swap1\n      pop\n        /* \"#utility.yul\":3377:3395   */\n      0xffffffffffffffff\n        /* \"#utility.yul\":3369:3375   */\n      dup2\n        /* \"#utility.yul\":3366:3396   */\n      gt\n        /* \"#utility.yul\":3363:3480   */\n      iszero\n      tag_155\n      jumpi\n        /* \"#utility.yul\":3399:3478   */\n      tag_156\n      tag_101\n      jump\t// in\n    tag_156:\n        /* \"#utility.yul\":3363:3480   */\n    tag_155:\n        /* \"#utility.yul\":3513:3517   */\n      0x20\n        /* \"#utility.yul\":3505:3511   */\n      dup4\n        /* \"#utility.yul\":3501:3518   */\n      add\n        /* \"#utility.yul\":3489:3518   */\n      swap2\n      pop\n        /* \"#utility.yul\":3567:3570   */\n      dup4\n        /* \"#utility.yul\":3559:3563   */\n      0x20\n        /* \"#utility.yul\":3551:3557   */\n      dup3\n        /* \"#utility.yul\":3547:3564   */\n      mul\n        /* \"#utility.yul\":3537:3545   */\n      dup4\n        /* \"#utility.yul\":3533:3565   */\n      add\n        /* \"#utility.yul\":3530:3571   */\n      gt\n        /* \"#utility.yul\":3527:3655   */\n      iszero\n      tag_157\n      jumpi\n        /* \"#utility.yul\":3574:3653   */\n      tag_158\n      tag_102\n      jump\t// in\n    tag_158:\n        /* \"#utility.yul\":3527:3655   */\n    tag_157:\n        /* \"#utility.yul\":3093:3661   */\n      swap3\n      pop\n      swap3\n      swap1\n      pop\n      jump\t// out\n        /* \"#utility.yul\":3667:3763   */\n    tag_104:\n        /* \"#utility.yul\":3704:3711   */\n      0x00\n        /* \"#utility.yul\":3733:3757   */\n      tag_160\n        /* \"#utility.yul\":3751:3756   */\n      dup3\n        /* \"#utility.yul\":3733:3757   */\n      tag_94\n      jump\t// in\n    tag_160:\n        /* \"#utility.yul\":3722:3757   */\n      swap1\n      pop\n        /* \"#utility.yul\":3667:3763   */\n      swap2\n      swap1\n      pop\n      jump\t// out\n        /* \"#utility.yul\":3769:3891   */\n    tag_105:\n        /* \"#utility.yul\":3842:3866   */\n      tag_162\n        /* \"#utility.yul\":3860:3865   */\n      dup2\n        /* \"#utility.yul\":3842:3866   */\n      tag_104\n      jump\t// in\n    tag_162:\n        /* \"#utility.yul\":3835:3840   */\n      dup2\n        /* \"#utility.yul\":3832:3867   */\n      eq\n        /* \"#utility.yul\":3822:3885   */\n      tag_163\n      jumpi\n        /* \"#utility.yul\":3881:3882   */\n      0x00\n        /* \"#utility.yul\":3878:3879   */\n      0x00\n        /* \"#utility.yul\":3871:3883   */\n      revert\n        /* \"#utility.yul\":3822:3885   */\n    tag_163:\n        /* \"#utility.yul\":3769:3891   */\n      pop\n      jump\t// out\n        /* \"#utility.yul\":3897:4036   */\n    tag_106:\n        /* \"#utility.yul\":3943:3948   */\n      0x00\n        /* \"#utility.yul\":3981:3987   */\n      dup2\n        /* \"#utility.yul\":3968:3988   */\n      calldataload\n        /* \"#utility.yul\":3959:3988   */\n      swap1\n      pop\n        /* \"#utility.yul\":3997:4030   */\n      tag_165\n        /* \"#utility.yul\":4024:4029   */\n      dup2\n        /* \"#utility.yul\":3997:4030   */\n      tag_105\n      jump\t// in\n    tag_165:\n        /* \"#utility.yul\":3897:4036   */\n      swap3\n      swap2\n      pop\n      pop\n      jump\t// out\n        /* \"#utility.yul\":4042:5183   */\n    tag_26:\n        /* \"#utility.yul\":4164:4170   */\n      0x00\n        /* \"#utility.yul\":4172:4178   */\n      0x00\n        /* \"#utility.yul\":4180:4186   */\n      0x00\n        /* \"#utility.yul\":4188:4194   */\n      0x00\n        /* \"#utility.yul\":4196:4202   */\n      0x00\n        /* \"#utility.yul\":4204:4210   */\n      0x00\n        /* \"#utility.yul\":4253:4256   */\n      0xa0\n        /* \"#utility.yul\":4241:4250   */\n      dup8\n        /* \"#utility.yul\":4232:4239   */\n      dup10\n        /* \"#utility.yul\":4228:4251   */\n      sub\n        /* \"#utility.yul\":4224:4257   */\n      slt\n        /* \"#utility.yul\":4221:4341   */\n      iszero\n      tag_167\n      jumpi\n        /* \"#utility.yul\":4260:4339   */\n      tag_168\n      tag_88\n      jump\t// in\n    tag_168:\n        /* \"#utility.yul\":4221:4341   */\n    tag_167:\n        /* \"#utility.yul\":4380:4381   */\n      0x00\n        /* \"#utility.yul\":4405:4458   */\n      tag_169\n        /* \"#utility.yul\":4450:4457   */\n      dup10\n        /* \"#utility.yul\":4441:4447   */\n      dup3\n        /* \"#utility.yul\":4430:4439   */\n      dup11\n        /* \"#utility.yul\":4426:4448   */\n      add\n        /* \"#utility.yul\":4405:4458   */\n      tag_92\n      jump\t// in\n    tag_169:\n        /* \"#utility.yul\":4395:4458   */\n      swap7\n      pop\n        /* \"#utility.yul\":4351:4468   */\n      pop\n        /* \"#utility.yul\":4507:4509   */\n      0x20\n        /* \"#utility.yul\":4533:4586   */\n      tag_170\n        /* \"#utility.yul\":4578:4585   */\n      dup10\n        /* \"#utility.yul\":4569:4575   */\n      dup3\n        /* \"#utility.yul\":4558:4567   */\n      dup11\n        /* \"#utility.yul\":4554:4576   */\n      add\n        /* \"#utility.yul\":4533:4586   */\n      tag_92\n      jump\t// in\n    tag_170:\n        /* \"#utility.yul\":4523:4586   */\n      swap6\n      pop\n        /* \"#utility.yul\":4478:4596   */\n      pop\n        /* \"#utility.yul\":4663:4665   */\n      0x40\n        /* \"#utility.yul\":4652:4661   */\n      dup8\n        /* \"#utility.yul\":4648:4666   */\n      add\n        /* \"#utility.yul\":4635:4667   */\n      calldataload\n        /* \"#utility.yul\":4694:4712   */\n      0xffffffffffffffff\n        /* \"#utility.yul\":4686:4692   */\n      dup2\n        /* \"#utility.yul\":4683:4713   */\n      gt\n        /* \"#utility.yul\":4680:4797   */\n      iszero\n      tag_171\n      jumpi\n        /* \"#utility.yul\":4716:4795   */\n      tag_172\n      tag_89\n      jump\t// in\n    tag_172:\n        /* \"#utility.yul\":4680:4797   */\n    tag_171:\n        /* \"#utility.yul\":4829:4909   */\n      tag_173\n        /* \"#utility.yul\":4901:4908   */\n      dup10\n        /* \"#utility.yul\":4892:4898   */\n      dup3\n        /* \"#utility.yul\":4881:4890   */\n      dup11\n        /* \"#utility.yul\":4877:4899   */\n      add\n        /* \"#utility.yul\":4829:4909   */\n      tag_103\n      jump\t// in\n    tag_173:\n        /* \"#utility.yul\":4811:4909   */\n      swap5\n      pop\n      swap5\n      pop\n        /* \"#utility.yul\":4606:4919   */\n      pop\n        /* \"#utility.yul\":4958:4960   */\n      0x60\n        /* \"#utility.yul\":4984:5037   */\n      tag_174\n        /* \"#utility.yul\":5029:5036   */\n      dup10\n        /* \"#utility.yul\":5020:5026   */\n      dup3\n        /* \"#utility.yul\":5009:5018   */\n      dup11\n        /* \"#utility.yul\":5005:5027   */\n      add\n        /* \"#utility.yul\":4984:5037   */\n      tag_106\n      jump\t// in\n    tag_174:\n        /* \"#utility.yul\":4974:5037   */\n      swap3\n      pop\n        /* \"#utility.yul\":4929:5047   */\n      pop\n        /* \"#utility.yul\":5086:5089   */\n      0x80\n        /* \"#utility.yul\":5113:5166   */\n      tag_175\n        /* \"#utility.yul\":5158:5165   */\n      dup10\n        /* \"#utility.yul\":5149:5155   */\n      dup3\n        /* \"#utility.yul\":5138:5147   */\n      dup11\n        /* \"#utility.yul\":5134:5156   */\n      add\n        /* \"#utility.yul\":5113:5166   */\n      tag_92\n      jump\t// in\n    tag_175:\n        /* \"#utility.yul\":5103:5166   */\n      swap2\n      pop\n        /* \"#utility.yul\":5057:5176   */\n      pop\n        /* \"#utility.yul\":4042:5183   */\n      swap3\n      swap6\n      pop\n      swap3\n      swap6\n      pop\n      swap3\n      swap6\n      jump\t// out\n        /* \"#utility.yul\":5189:5303   */\n    tag_107:\n        /* \"#utility.yul\":5256:5262   */\n      0x00\n        /* \"#utility.yul\":5290:5295   */\n      dup2\n        /* \"#utility.yul\":5284:5296   */\n      mload\n        /* \"#utility.yul\":5274:5296   */\n      swap1\n      pop\n        /* \"#utility.yul\":5189:5303   */\n      swap2\n      swap1\n      pop\n      jump\t// out\n        /* \"#utility.yul\":5309:5493   */\n    tag_108:\n        /* \"#utility.yul\":5408:5419   */\n      0x00\n        /* \"#utility.yul\":5442:5448   */\n      dup3\n        /* \"#utility.yul\":5437:5440   */\n      dup3\n        /* \"#utility.yul\":5430:5449   */\n      mstore\n        /* \"#utility.yul\":5482:5486   */\n      0x20\n        /* \"#utility.yul\":5477:5480   */\n      dup3\n        /* \"#utility.yul\":5473:5487   */\n      add\n        /* \"#utility.yul\":5458:5487   */\n      swap1\n      pop\n        /* \"#utility.yul\":5309:5493   */\n      swap3\n      swap2\n      pop\n      pop\n      jump\t// out\n        /* \"#utility.yul\":5499:5631   */\n    tag_109:\n        /* \"#utility.yul\":5566:5570   */\n      0x00\n        /* \"#utility.yul\":5589:5592   */\n      dup2\n        /* \"#utility.yul\":5581:5592   */\n      swap1\n      pop\n        /* \"#utility.yul\":5619:5623   */\n      0x20\n        /* \"#utility.yul\":5614:5617   */\n      dup3\n        /* \"#utility.yul\":5610:5624   */\n      add\n        /* \"#utility.yul\":5602:5624   */\n      swap1\n      pop\n        /* \"#utility.yul\":5499:5631   */\n      swap2\n      swap1\n      pop\n      jump\t// out\n        /* \"#utility.yul\":5637:5745   */\n    tag_110:\n        /* \"#utility.yul\":5714:5738   */\n      tag_180\n        /* \"#utility.yul\":5732:5737   */\n      dup2\n        /* \"#utility.yul\":5714:5738   */\n      tag_90\n      jump\t// in\n    tag_180:\n        /* \"#utility.yul\":5709:5712   */\n      dup3\n        /* \"#utility.yul\":5702:5739   */\n      mstore\n        /* \"#utility.yul\":5637:5745   */\n      pop\n      pop\n      jump\t// out\n        /* \"#utility.yul\":5751:5930   */\n    tag_111:\n        /* \"#utility.yul\":5820:5830   */\n      0x00\n        /* \"#utility.yul\":5841:5887   */\n      tag_182\n        /* \"#utility.yul\":5883:5886   */\n      dup4\n        /* \"#utility.yul\":5875:5881   */\n      dup4\n        /* \"#utility.yul\":5841:5887   */\n      tag_110\n      jump\t// in\n    tag_182:\n        /* \"#utility.yul\":5919:5923   */\n      0x20\n        /* \"#utility.yul\":5914:5917   */\n      dup4\n        /* \"#utility.yul\":5910:5924   */\n      add\n        /* \"#utility.yul\":5896:5924   */\n      swap1\n      pop\n        /* \"#utility.yul\":5751:5930   */\n      swap3\n      swap2\n      pop\n      pop\n      jump\t// out\n        /* \"#utility.yul\":5936:6049   */\n    tag_112:\n        /* \"#utility.yul\":6006:6010   */\n      0x00\n        /* \"#utility.yul\":6038:6042   */\n      0x20\n        /* \"#utility.yul\":6033:6036   */\n      dup3\n        /* \"#utility.yul\":6029:6043   */\n      add\n        /* \"#utility.yul\":6021:6043   */\n      swap1\n      pop\n        /* \"#utility.yul\":5936:6049   */\n      swap2\n      swap1\n      pop\n      jump\t// out\n        /* \"#utility.yul\":6085:6817   */\n    tag_113:\n        /* \"#utility.yul\":6204:6207   */\n      0x00\n        /* \"#utility.yul\":6233:6287   */\n      tag_185\n        /* \"#utility.yul\":6281:6286   */\n      dup3\n        /* \"#utility.yul\":6233:6287   */\n      tag_107\n      jump\t// in\n    tag_185:\n        /* \"#utility.yul\":6303:6389   */\n      tag_186\n        /* \"#utility.yul\":6382:6388   */\n      dup2\n        /* \"#utility.yul\":6377:6380   */\n      dup6\n        /* \"#utility.yul\":6303:6389   */\n      tag_108\n      jump\t// in\n    tag_186:\n        /* \"#utility.yul\":6296:6389   */\n      swap4\n      pop\n        /* \"#utility.yul\":6413:6469   */\n      tag_187\n        /* \"#utility.yul\":6463:6468   */\n      dup4\n        /* \"#utility.yul\":6413:6469   */\n      tag_109\n      jump\t// in\n    tag_187:\n        /* \"#utility.yul\":6492:6499   */\n      dup1\n        /* \"#utility.yul\":6523:6524   */\n      0x00\n        /* \"#utility.yul\":6508:6792   */\n    tag_188:\n        /* \"#utility.yul\":6533:6539   */\n      dup4\n        /* \"#utility.yul\":6530:6531   */\n      dup2\n        /* \"#utility.yul\":6527:6540   */\n      lt\n        /* \"#utility.yul\":6508:6792   */\n      iszero\n      tag_190\n      jumpi\n        /* \"#utility.yul\":6609:6615   */\n      dup2\n        /* \"#utility.yul\":6603:6616   */\n      mload\n        /* \"#utility.yul\":6636:6699   */\n      tag_191\n        /* \"#utility.yul\":6695:6698   */\n      dup9\n        /* \"#utility.yul\":6680:6693   */\n      dup3\n        /* \"#utility.yul\":6636:6699   */\n      tag_111\n      jump\t// in\n    tag_191:\n        /* \"#utility.yul\":6629:6699   */\n      swap8\n      pop\n        /* \"#utility.yul\":6722:6782   */\n      tag_192\n        /* \"#utility.yul\":6775:6781   */\n      dup4\n        /* \"#utility.yul\":6722:6782   */\n      tag_112\n      jump\t// in\n    tag_192:\n        /* \"#utility.yul\":6712:6782   */\n      swap3\n      pop\n        /* \"#utility.yul\":6568:6792   */\n      pop\n        /* \"#utility.yul\":6555:6556   */\n      0x01\n        /* \"#utility.yul\":6552:6553   */\n      dup2\n        /* \"#utility.yul\":6548:6557   */\n      add\n        /* \"#utility.yul\":6543:6557   */\n      swap1\n      pop\n        /* \"#utility.yul\":6508:6792   */\n      jump(tag_188)\n    tag_190:\n        /* \"#utility.yul\":6512:6526   */\n      pop\n        /* \"#utility.yul\":6808:6811   */\n      dup6\n        /* \"#utility.yul\":6801:6811   */\n      swap4\n      pop\n        /* \"#utility.yul\":6209:6817   */\n      pop\n      pop\n      pop\n        /* \"#utility.yul\":6085:6817   */\n      swap3\n      swap2\n      pop\n      pop\n      jump\t// out\n        /* \"#utility.yul\":6823:7196   */\n    tag_29:\n        /* \"#utility.yul\":6966:6970   */\n      0x00\n        /* \"#utility.yul\":7004:7006   */\n      0x20\n        /* \"#utility.yul\":6993:7002   */\n      dup3\n        /* \"#utility.yul\":6989:7007   */\n      add\n        /* \"#utility.yul\":6981:7007   */\n      swap1\n      pop\n        /* \"#utility.yul\":7053:7062   */\n      dup2\n        /* \"#utility.yul\":7047:7051   */\n      dup2\n        /* \"#utility.yul\":7043:7063   */\n      sub\n        /* \"#utility.yul\":7039:7040   */\n      0x00\n        /* \"#utility.yul\":7028:7037   */\n      dup4\n        /* \"#utility.yul\":7024:7041   */\n      add\n        /* \"#utility.yul\":7017:7064   */\n      mstore\n        /* \"#utility.yul\":7081:7189   */\n      tag_194\n        /* \"#utility.yul\":7184:7188   */\n      dup2\n        /* \"#utility.yul\":7175:7181   */\n      dup5\n        /* \"#utility.yul\":7081:7189   */\n      tag_113\n      jump\t// in\n    tag_194:\n        /* \"#utility.yul\":7073:7189   */\n      swap1\n      pop\n        /* \"#utility.yul\":6823:7196   */\n      swap3\n      swap2\n      pop\n      pop\n      jump\t// out\n        /* \"#utility.yul\":7202:8551   */\n    tag_32:\n        /* \"#utility.yul\":7324:7330   */\n      0x00\n        /* \"#utility.yul\":7332:7338   */\n      0x00\n        /* \"#utility.yul\":7340:7346   */\n      0x00\n        /* \"#utility.yul\":7348:7354   */\n      0x00\n        /* \"#utility.yul\":7356:7362   */\n      0x00\n        /* \"#utility.yul\":7364:7370   */\n      0x00\n        /* \"#utility.yul\":7372:7378   */\n      0x00\n        /* \"#utility.yul\":7380:7386   */\n      0x00\n        /* \"#utility.yul\":7429:7432   */\n      0x0100\n        /* \"#utility.yul\":7417:7426   */\n      dup10\n        /* \"#utility.yul\":7408:7415   */\n      dup12\n        /* \"#utility.yul\":7404:7427   */\n      sub\n        /* \"#utility.yul\":7400:7433   */\n      slt\n        /* \"#utility.yul\":7397:7517   */\n      iszero\n      tag_196\n      jumpi\n        /* \"#utility.yul\":7436:7515   */\n      tag_197\n      tag_88\n      jump\t// in\n    tag_197:\n        /* \"#utility.yul\":7397:7517   */\n    tag_196:\n        /* \"#utility.yul\":7556:7557   */\n      0x00\n        /* \"#utility.yul\":7581:7634   */\n      tag_198\n        /* \"#utility.yul\":7626:7633   */\n      dup12\n        /* \"#utility.yul\":7617:7623   */\n      dup3\n        /* \"#utility.yul\":7606:7615   */\n      dup13\n        /* \"#utility.yul\":7602:7624   */\n      add\n        /* \"#utility.yul\":7581:7634   */\n      tag_106\n      jump\t// in\n    tag_198:\n        /* \"#utility.yul\":7571:7634   */\n      swap9\n      pop\n        /* \"#utility.yul\":7527:7644   */\n      pop\n        /* \"#utility.yul\":7683:7685   */\n      0x20\n        /* \"#utility.yul\":7709:7762   */\n      tag_199\n        /* \"#utility.yul\":7754:7761   */\n      dup12\n        /* \"#utility.yul\":7745:7751   */\n      dup3\n        /* \"#utility.yul\":7734:7743   */\n      dup13\n        /* \"#utility.yul\":7730:7752   */\n      add\n        /* \"#utility.yul\":7709:7762   */\n      tag_106\n      jump\t// in\n    tag_199:\n        /* \"#utility.yul\":7699:7762   */\n      swap8\n      pop\n        /* \"#utility.yul\":7654:7772   */\n      pop\n        /* \"#utility.yul\":7811:7813   */\n      0x40\n        /* \"#utility.yul\":7837:7890   */\n      tag_200\n        /* \"#utility.yul\":7882:7889   */\n      dup12\n        /* \"#utility.yul\":7873:7879   */\n      dup3\n        /* \"#utility.yul\":7862:7871   */\n      dup13\n        /* \"#utility.yul\":7858:7880   */\n      add\n        /* \"#utility.yul\":7837:7890   */\n      tag_92\n      jump\t// in\n    tag_200:\n        /* \"#utility.yul\":7827:7890   */\n      swap7\n      pop\n        /* \"#utility.yul\":7782:7900   */\n      pop\n        /* \"#utility.yul\":7939:7941   */\n      0x60\n        /* \"#utility.yul\":7965:8018   */\n      tag_201\n        /* \"#utility.yul\":8010:8017   */\n      dup12\n        /* \"#utility.yul\":8001:8007   */\n      dup3\n        /* \"#utility.yul\":7990:7999   */\n      dup13\n        /* \"#utility.yul\":7986:8008   */\n      add\n        /* \"#utility.yul\":7965:8018   */\n      tag_92\n      jump\t// in\n    tag_201:\n        /* \"#utility.yul\":7955:8018   */\n      swap6\n      pop\n        /* \"#utility.yul\":7910:8028   */\n      pop\n        /* \"#utility.yul\":8067:8070   */\n      0x80\n        /* \"#utility.yul\":8094:8147   */\n      tag_202\n        /* \"#utility.yul\":8139:8146   */\n      dup12\n        /* \"#utility.yul\":8130:8136   */\n      dup3\n        /* \"#utility.yul\":8119:8128   */\n      dup13\n        /* \"#utility.yul\":8115:8137   */\n      add\n        /* \"#utility.yul\":8094:8147   */\n      tag_92\n      jump\t// in\n    tag_202:\n        /* \"#utility.yul\":8084:8147   */\n      swap5\n      pop\n        /* \"#utility.yul\":8038:8157   */\n      pop\n        /* \"#utility.yul\":8196:8199   */\n      0xa0\n        /* \"#utility.yul\":8223:8276   */\n      tag_203\n        /* \"#utility.yul\":8268:8275   */\n      dup12\n        /* \"#utility.yul\":8259:8265   */\n      dup3\n        /* \"#utility.yul\":8248:8257   */\n      dup13\n        /* \"#utility.yul\":8244:8266   */\n      add\n        /* \"#utility.yul\":8223:8276   */\n      tag_92\n      jump\t// in\n    tag_203:\n        /* \"#utility.yul\":8213:8276   */\n      swap4\n      pop\n        /* \"#utility.yul\":8167:8286   */\n      pop\n        /* \"#utility.yul\":8325:8328   */\n      0xc0\n        /* \"#utility.yul\":8352:8405   */\n      tag_204\n        /* \"#utility.yul\":8397:8404   */\n      dup12\n        /* \"#utility.yul\":8388:8394   */\n      dup3\n        /* \"#utility.yul\":8377:8386   */\n      dup13\n        /* \"#utility.yul\":8373:8395   */\n      add\n        /* \"#utility.yul\":8352:8405   */\n      tag_106\n      jump\t// in\n    tag_204:\n        /* \"#utility.yul\":8342:8405   */\n      swap3\n      pop\n        /* \"#utility.yul\":8296:8415   */\n      pop\n        /* \"#utility.yul\":8454:8457   */\n      0xe0\n        /* \"#utility.yul\":8481:8534   */\n      tag_205\n        /* \"#utility.yul\":8526:8533   */\n      dup12\n        /* \"#utility.yul\":8517:8523   */\n      dup3\n        /* \"#utility.yul\":8506:8515   */\n      dup13\n        /* \"#utility.yul\":8502:8524   */\n      add\n        /* \"#utility.yul\":8481:8534   */\n      tag_92\n      jump\t// in\n    tag_205:\n        /* \"#utility.yul\":8471:8534   */\n      swap2\n      pop\n        /* \"#utility.yul\":8425:8544   */\n      pop\n        /* \"#utility.yul\":7202:8551   */\n      swap3\n      swap6\n      swap9\n      pop\n      swap3\n      swap6\n      swap9\n      swap1\n      swap4\n      swap7\n      pop\n      jump\t// out\n        /* \"#utility.yul\":8557:8999   */\n    tag_35:\n        /* \"#utility.yul\":8706:8710   */\n      0x00\n        /* \"#utility.yul\":8744:8746   */\n      0x60\n        /* \"#utility.yul\":8733:8742   */\n      dup3\n        /* \"#utility.yul\":8729:8747   */\n      add\n        /* \"#utility.yul\":8721:8747   */\n      swap1\n      pop\n        /* \"#utility.yul\":8757:8828   */\n      tag_207\n        /* \"#utility.yul\":8825:8826   */\n      0x00\n        /* \"#utility.yul\":8814:8823   */\n      dup4\n        /* \"#utility.yul\":8810:8827   */\n      add\n        /* \"#utility.yul\":8801:8807   */\n      dup7\n        /* \"#utility.yul\":8757:8828   */\n      tag_93\n      jump\t// in\n    tag_207:\n        /* \"#utility.yul\":8838:8910   */\n      tag_208\n        /* \"#utility.yul\":8906:8908   */\n      0x20\n        /* \"#utility.yul\":8895:8904   */\n      dup4\n        /* \"#utility.yul\":8891:8909   */\n      add\n        /* \"#utility.yul\":8882:8888   */\n      dup6\n        /* \"#utility.yul\":8838:8910   */\n      tag_93\n      jump\t// in\n    tag_208:\n        /* \"#utility.yul\":8920:8992   */\n      tag_209\n        /* \"#utility.yul\":8988:8990   */\n      0x40\n        /* \"#utility.yul\":8977:8986   */\n      dup4\n        /* \"#utility.yul\":8973:8991   */\n      add\n        /* \"#utility.yul\":8964:8970   */\n      dup5\n        /* \"#utility.yul\":8920:8992   */\n      tag_93\n      jump\t// in\n    tag_209:\n        /* \"#utility.yul\":8557:8999   */\n      swap5\n      swap4\n      pop\n      pop\n      pop\n      pop\n      jump\t// out\n        /* \"#utility.yul\":9005:9123   */\n    tag_114:\n        /* \"#utility.yul\":9092:9116   */\n      tag_211\n        /* \"#utility.yul\":9110:9115   */\n      dup2\n        /* \"#utility.yul\":9092:9116   */\n      tag_104\n      jump\t// in\n    tag_211:\n        /* \"#utility.yul\":9087:9090   */\n      dup3\n        /* \"#utility.yul\":9080:9117   */\n      mstore\n        /* \"#utility.yul\":9005:9123   */\n      pop\n      pop\n      jump\t// out\n        /* \"#utility.yul\":9129:9351   */\n    tag_41:\n        /* \"#utility.yul\":9222:9226   */\n      0x00\n        /* \"#utility.yul\":9260:9262   */\n      0x20\n        /* \"#utility.yul\":9249:9258   */\n      dup3\n        /* \"#utility.yul\":9245:9263   */\n      add\n        /* \"#utility.yul\":9237:9263   */\n      swap1\n      pop\n        /* \"#utility.yul\":9273:9344   */\n      tag_213\n        /* \"#utility.yul\":9341:9342   */\n      0x00\n        /* \"#utility.yul\":9330:9339   */\n      dup4\n        /* \"#utility.yul\":9326:9343   */\n      add\n        /* \"#utility.yul\":9317:9323   */\n      dup5\n        /* \"#utility.yul\":9273:9344   */\n      tag_114\n      jump\t// in\n    tag_213:\n        /* \"#utility.yul\":9129:9351   */\n      swap3\n      swap2\n      pop\n      pop\n      jump\t// out\n        /* \"#utility.yul\":9357:9831   */\n    tag_44:\n        /* \"#utility.yul\":9425:9431   */\n      0x00\n        /* \"#utility.yul\":9433:9439   */\n      0x00\n        /* \"#utility.yul\":9482:9484   */\n      0x40\n        /* \"#utility.yul\":9470:9479   */\n      dup4\n        /* \"#utility.yul\":9461:9468   */\n      dup6\n        /* \"#utility.yul\":9457:9480   */\n      sub\n        /* \"#utility.yul\":9453:9485   */\n      slt\n        /* \"#utility.yul\":9450:9569   */\n      iszero\n      tag_215\n      jumpi\n        /* \"#utility.yul\":9488:9567   */\n      tag_216\n      tag_88\n      jump\t// in\n    tag_216:\n        /* \"#utility.yul\":9450:9569   */\n    tag_215:\n        /* \"#utility.yul\":9608:9609   */\n      0x00\n        /* \"#utility.yul\":9633:9686   */\n      tag_217\n        /* \"#utility.yul\":9678:9685   */\n      dup6\n        /* \"#utility.yul\":9669:9675   */\n      dup3\n        /* \"#utility.yul\":9658:9667   */\n      dup7\n        /* \"#utility.yul\":9654:9676   */\n      add\n        /* \"#utility.yul\":9633:9686   */\n      tag_106\n      jump\t// in\n    tag_217:\n        /* \"#utility.yul\":9623:9686   */\n      swap3\n      pop\n        /* \"#utility.yul\":9579:9696   */\n      pop\n        /* \"#utility.yul\":9735:9737   */\n      0x20\n        /* \"#utility.yul\":9761:9814   */\n      tag_218\n        /* \"#utility.yul\":9806:9813   */\n      dup6\n        /* \"#utility.yul\":9797:9803   */\n      dup3\n        /* \"#utility.yul\":9786:9795   */\n      dup7\n        /* \"#utility.yul\":9782:9804   */\n      add\n        /* \"#utility.yul\":9761:9814   */\n      tag_106\n      jump\t// in\n    tag_218:\n        /* \"#utility.yul\":9751:9814   */\n      swap2\n      pop\n        /* \"#utility.yul\":9706:9824   */\n      pop\n        /* \"#utility.yul\":9357:9831   */\n      swap3\n      pop\n      swap3\n      swap1\n      pop\n      jump\t// out\n        /* \"#utility.yul\":9837:11040   */\n    tag_49:\n        /* \"#utility.yul\":9950:9956   */\n      0x00\n        /* \"#utility.yul\":9958:9964   */\n      0x00\n        /* \"#utility.yul\":9966:9972   */\n      0x00\n        /* \"#utility.yul\":9974:9980   */\n      0x00\n        /* \"#utility.yul\":9982:9988   */\n      0x00\n        /* \"#utility.yul\":9990:9996   */\n      0x00\n        /* \"#utility.yul\":9998:10004   */\n      0x00\n        /* \"#utility.yul\":10047:10050   */\n      0xe0\n        /* \"#utility.yul\":10035:10044   */\n      dup9\n        /* \"#utility.yul\":10026:10033   */\n      dup11\n        /* \"#utility.yul\":10022:10045   */\n      sub\n        /* \"#utility.yul\":10018:10051   */\n      slt\n        /* \"#utility.yul\":10015:10135   */\n      iszero\n      tag_220\n      jumpi\n        /* \"#utility.yul\":10054:10133   */\n      tag_221\n      tag_88\n      jump\t// in\n    tag_221:\n        /* \"#utility.yul\":10015:10135   */\n    tag_220:\n        /* \"#utility.yul\":10174:10175   */\n      0x00\n        /* \"#utility.yul\":10199:10252   */\n      tag_222\n        /* \"#utility.yul\":10244:10251   */\n      dup11\n        /* \"#utility.yul\":10235:10241   */\n      dup3\n        /* \"#utility.yul\":10224:10233   */\n      dup12\n        /* \"#utility.yul\":10220:10242   */\n      add\n        /* \"#utility.yul\":10199:10252   */\n      tag_106\n      jump\t// in\n    tag_222:\n        /* \"#utility.yul\":10189:10252   */\n      swap8\n      pop\n        /* \"#utility.yul\":10145:10262   */\n      pop\n        /* \"#utility.yul\":10301:10303   */\n      0x20\n        /* \"#utility.yul\":10327:10380   */\n      tag_223\n        /* \"#utility.yul\":10372:10379   */\n      dup11\n        /* \"#utility.yul\":10363:10369   */\n      dup3\n        /* \"#utility.yul\":10352:10361   */\n      dup12\n        /* \"#utility.yul\":10348:10370   */\n      add\n        /* \"#utility.yul\":10327:10380   */\n      tag_106\n      jump\t// in\n    tag_223:\n        /* \"#utility.yul\":10317:10380   */\n      swap7\n      pop\n        /* \"#utility.yul\":10272:10390   */\n      pop\n        /* \"#utility.yul\":10429:10431   */\n      0x40\n        /* \"#utility.yul\":10455:10508   */\n      tag_224\n        /* \"#utility.yul\":10500:10507   */\n      dup11\n        /* \"#utility.yul\":10491:10497   */\n      dup3\n        /* \"#utility.yul\":10480:10489   */\n      dup12\n        /* \"#utility.yul\":10476:10498   */\n      add\n        /* \"#utility.yul\":10455:10508   */\n      tag_92\n      jump\t// in\n    tag_224:\n        /* \"#utility.yul\":10445:10508   */\n      swap6\n      pop\n        /* \"#utility.yul\":10400:10518   */\n      pop\n        /* \"#utility.yul\":10557:10559   */\n      0x60\n        /* \"#utility.yul\":10583:10636   */\n      tag_225\n        /* \"#utility.yul\":10628:10635   */\n      dup11\n        /* \"#utility.yul\":10619:10625   */\n      dup3\n        /* \"#utility.yul\":10608:10617   */\n      dup12\n        /* \"#utility.yul\":10604:10626   */\n      add\n        /* \"#utility.yul\":10583:10636   */\n      tag_92\n      jump\t// in\n    tag_225:\n        /* \"#utility.yul\":10573:10636   */\n      swap5\n      pop\n        /* \"#utility.yul\":10528:10646   */\n      pop\n        /* \"#utility.yul\":10685:10688   */\n      0x80\n        /* \"#utility.yul\":10712:10765   */\n      tag_226\n        /* \"#utility.yul\":10757:10764   */\n      dup11\n        /* \"#utility.yul\":10748:10754   */\n      dup3\n        /* \"#utility.yul\":10737:10746   */\n      dup12\n        /* \"#utility.yul\":10733:10755   */\n      add\n        /* \"#utility.yul\":10712:10765   */\n      tag_92\n      jump\t// in\n    tag_226:\n        /* \"#utility.yul\":10702:10765   */\n      swap4\n      pop\n        /* \"#utility.yul\":10656:10775   */\n      pop\n        /* \"#utility.yul\":10814:10817   */\n      0xa0\n        /* \"#utility.yul\":10841:10894   */\n      tag_227\n        /* \"#utility.yul\":10886:10893   */\n      dup11\n        /* \"#utility.yul\":10877:10883   */\n      dup3\n        /* \"#utility.yul\":10866:10875   */\n      dup12\n        /* \"#utility.yul\":10862:10884   */\n      add\n        /* \"#utility.yul\":10841:10894   */\n      tag_106\n      jump\t// in\n    tag_227:\n        /* \"#utility.yul\":10831:10894   */\n      swap3\n      pop\n        /* \"#utility.yul\":10785:10904   */\n      pop\n        /* \"#utility.yul\":10943:10946   */\n      0xc0\n        /* \"#utility.yul\":10970:11023   */\n      tag_228\n        /* \"#utility.yul\":11015:11022   */\n      dup11\n        /* \"#utility.yul\":11006:11012   */\n      dup3\n        /* \"#utility.yul\":10995:11004   */\n      dup12\n        /* \"#utility.yul\":10991:11013   */\n      add\n        /* \"#utility.yul\":10970:11023   */\n      tag_92\n      jump\t// in\n    tag_228:\n        /* \"#utility.yul\":10960:11023   */\n      swap2\n      pop\n        /* \"#utility.yul\":10914:11033   */\n      pop\n        /* \"#utility.yul\":9837:11040   */\n      swap3\n      swap6\n      swap9\n      swap2\n      swap5\n      swap8\n      pop\n      swap3\n      swap6\n      pop\n      jump\t// out\n        /* \"#utility.yul\":11046:11378   */\n    tag_52:\n        /* \"#utility.yul\":11167:11171   */\n      0x00\n        /* \"#utility.yul\":11205:11207   */\n      0x40\n        /* \"#utility.yul\":11194:11203   */\n      dup3\n        /* \"#utility.yul\":11190:11208   */\n      add\n        /* \"#utility.yul\":11182:11208   */\n      swap1\n      pop\n        /* \"#utility.yul\":11218:11289   */\n      tag_230\n        /* \"#utility.yul\":11286:11287   */\n      0x00\n        /* \"#utility.yul\":11275:11284   */\n      dup4\n        /* \"#utility.yul\":11271:11288   */\n      add\n        /* \"#utility.yul\":11262:11268   */\n      dup6\n        /* \"#utility.yul\":11218:11289   */\n      tag_93\n      jump\t// in\n    tag_230:\n        /* \"#utility.yul\":11299:11371   */\n      tag_231\n        /* \"#utility.yul\":11367:11369   */\n      0x20\n        /* \"#utility.yul\":11356:11365   */\n      dup4\n        /* \"#utility.yul\":11352:11370   */\n      add\n        /* \"#utility.yul\":11343:11349   */\n      dup5\n        /* \"#utility.yul\":11299:11371   */\n      tag_93\n      jump\t// in\n    tag_231:\n        /* \"#utility.yul\":11046:11378   */\n      swap4\n      swap3\n      pop\n      pop\n      pop\n      jump\t// out\n        /* \"#utility.yul\":11384:11713   */\n    tag_58:\n        /* \"#utility.yul\":11443:11449   */\n      0x00\n        /* \"#utility.yul\":11492:11494   */\n      0x20\n        /* \"#utility.yul\":11480:11489   */\n      dup3\n        /* \"#utility.yul\":11471:11478   */\n      dup5\n        /* \"#utility.yul\":11467:11490   */\n      sub\n        /* \"#utility.yul\":11463:11495   */\n      slt\n        /* \"#utility.yul\":11460:11579   */\n      iszero\n      tag_233\n      jumpi\n        /* \"#utility.yul\":11498:11577   */\n      tag_234\n      tag_88\n      jump\t// in\n    tag_234:\n        /* \"#utility.yul\":11460:11579   */\n    tag_233:\n        /* \"#utility.yul\":11618:11619   */\n      0x00\n        /* \"#utility.yul\":11643:11696   */\n      tag_235\n        /* \"#utility.yul\":11688:11695   */\n      dup5\n        /* \"#utility.yul\":11679:11685   */\n      dup3\n        /* \"#utility.yul\":11668:11677   */\n      dup6\n        /* \"#utility.yul\":11664:11686   */\n      add\n        /* \"#utility.yul\":11643:11696   */\n      tag_106\n      jump\t// in\n    tag_235:\n        /* \"#utility.yul\":11633:11696   */\n      swap2\n      pop\n        /* \"#utility.yul\":11589:11706   */\n      pop\n        /* \"#utility.yul\":11384:11713   */\n      swap3\n      swap2\n      pop\n      pop\n      jump\t// out\n\n    auxdata: 0xa26469706673582212208dc22bc82d66597160ac9ebedcd8c4597d0290ae72383d9bc073b661fafcd6ca64736f6c634300081e0033\n}\n",
				"bytecode": {
					"linkReferences": {},
					"object": "608060405234801561000f575f5ffd5b50604051610d2f380380610d2f83398181016040528101906100319190610258565b335f73ffffffffffffffffffffffffffffffffffffffff168173ffffffffffffffffffffffffffffffffffffffff16036100a2575f6040517f1e4fbdf700000000000000000000000000000000000000000000000000000000815260040161009991906102a5565b60405180910390fd5b6100b18161013960201b60201c565b508160015f6101000a81548173ffffffffffffffffffffffffffffffffffffffff021916908373ffffffffffffffffffffffffffffffffffffffff1602179055508060025f6101000a81548173ffffffffffffffffffffffffffffffffffffffff021916908373ffffffffffffffffffffffffffffffffffffffff16021790555050506102be565b5f5f5f9054906101000a900473ffffffffffffffffffffffffffffffffffffffff169050815f5f6101000a81548173ffffffffffffffffffffffffffffffffffffffff021916908373ffffffffffffffffffffffffffffffffffffffff1602179055508173ffffffffffffffffffffffffffffffffffffffff168173ffffffffffffffffffffffffffffffffffffffff167f8be0079c531659141344cd1fd0a4f28419497f9722a3daafe3b4186f6b6457e060405160405180910390a35050565b5f5ffd5b5f73ffffffffffffffffffffffffffffffffffffffff82169050919050565b5f610227826101fe565b9050919050565b6102378161021d565b8114610241575f5ffd5b50565b5f815190506102528161022e565b92915050565b5f5f6040838503121561026e5761026d6101fa565b5b5f61027b85828601610244565b925050602061028c85828601610244565b9150509250929050565b61029f8161021d565b82525050565b5f6020820190506102b85f830184610296565b92915050565b610a64806102cb5f395ff3fe608060405234801561000f575f5ffd5b506004361061009c575f3560e01c80638da5cb5b116100645780638da5cb5b1461015a578063ac41865a14610178578063baa2abde146101a8578063d21220a7146101d9578063f2fde38b146101f75761009c565b8063054d50d4146100a057806325be124e146100d057806338ed1739146100ee5780633de2d6811461011e578063715018a614610150575b5f5ffd5b6100ba60048036038101906100b591906104df565b610213565b6040516100c7919061053e565b60405180910390f35b6100d861021b565b6040516100e591906105d1565b60405180910390f35b61010860048036038101906101039190610686565b610240565b60405161011591906107d3565b60405180910390f35b610138600480360381019061013391906107f3565b61024c565b604051610147939291906108a4565b60405180910390f35b61015861025d565b005b610162610270565b60405161016f91906108e8565b60405180910390f35b610192600480360381019061018d9190610901565b610297565b60405161019f919061053e565b60405180910390f35b6101c260048036038101906101bd919061093f565b61029e565b6040516101d09291906109dc565b60405180910390f35b6101e16102ac565b6040516101ee91906105d1565b60405180910390f35b610211600480360381019061020c9190610a03565b6102d1565b005b5f9392505050565b60025f9054906101000a900473ffffffffffffffffffffffffffffffffffffffff1681565b60609695505050505050565b5f5f5f985098509895505050505050565b610265610355565b61026e5f6103dc565b565b5f5f5f9054906101000a900473ffffffffffffffffffffffffffffffffffffffff16905090565b5f92915050565b5f5f97509795505050505050565b60015f9054906101000a900473ffffffffffffffffffffffffffffffffffffffff1681565b6102d9610355565b5f73ffffffffffffffffffffffffffffffffffffffff168173ffffffffffffffffffffffffffffffffffffffff1603610349575f6040517f1e4fbdf700000000000000000000000000000000000000000000000000000000815260040161034091906108e8565b60405180910390fd5b610352816103dc565b50565b61035d61049d565b73ffffffffffffffffffffffffffffffffffffffff1661037b610270565b73ffffffffffffffffffffffffffffffffffffffff16146103da5761039e61049d565b6040517f118cdaa70000000000000000000000000000000000000000000000000000000081526004016103d191906108e8565b60405180910390fd5b565b5f5f5f9054906101000a900473ffffffffffffffffffffffffffffffffffffffff169050815f5f6101000a81548173ffffffffffffffffffffffffffffffffffffffff021916908373ffffffffffffffffffffffffffffffffffffffff1602179055508173ffffffffffffffffffffffffffffffffffffffff168173ffffffffffffffffffffffffffffffffffffffff167f8be0079c531659141344cd1fd0a4f28419497f9722a3daafe3b4186f6b6457e060405160405180910390a35050565b5f33905090565b5f5ffd5b5f5ffd5b5f819050919050565b6104be816104ac565b81146104c8575f5ffd5b50565b5f813590506104d9816104b5565b92915050565b5f5f5f606084860312156104f6576104f56104a4565b5b5f610503868287016104cb565b9350506020610514868287016104cb565b9250506040610525868287016104cb565b9150509250925092565b610538816104ac565b82525050565b5f6020820190506105515f83018461052f565b92915050565b5f73ffffffffffffffffffffffffffffffffffffffff82169050919050565b5f819050919050565b5f61059961059461058f84610557565b610576565b610557565b9050919050565b5f6105aa8261057f565b9050919050565b5f6105bb826105a0565b9050919050565b6105cb816105b1565b82525050565b5f6020820190506105e45f8301846105c2565b92915050565b5f5ffd5b5f5ffd5b5f5ffd5b5f5f83601f84011261060b5761060a6105ea565b5b8235905067ffffffffffffffff811115610628576106276105ee565b5b602083019150836020820283011115610644576106436105f2565b5b9250929050565b5f61065582610557565b9050919050565b6106658161064b565b811461066f575f5ffd5b50565b5f813590506106808161065c565b92915050565b5f5f5f5f5f5f60a087890312156106a05761069f6104a4565b5b5f6106ad89828a016104cb565b96505060206106be89828a016104cb565b955050604087013567ffffffffffffffff8111156106df576106de6104a8565b5b6106eb89828a016105f6565b945094505060606106fe89828a01610672565b925050608061070f89828a016104cb565b9150509295509295509295565b5f81519050919050565b5f82825260208201905092915050565b5f819050602082019050919050565b61074e816104ac565b82525050565b5f61075f8383610745565b60208301905092915050565b5f602082019050919050565b5f6107818261071c565b61078b8185610726565b935061079683610736565b805f5b838110156107c65781516107ad8882610754565b97506107b88361076b565b925050600181019050610799565b5085935050505092915050565b5f6020820190508181035f8301526107eb8184610777565b905092915050565b5f5f5f5f5f5f5f5f610100898b0312156108105761080f6104a4565b5b5f61081d8b828c01610672565b985050602061082e8b828c01610672565b975050604061083f8b828c016104cb565b96505060606108508b828c016104cb565b95505060806108618b828c016104cb565b94505060a06108728b828c016104cb565b93505060c06108838b828c01610672565b92505060e06108948b828c016104cb565b9150509295985092959890939650565b5f6060820190506108b75f83018661052f565b6108c4602083018561052f565b6108d1604083018461052f565b949350505050565b6108e28161064b565b82525050565b5f6020820190506108fb5f8301846108d9565b92915050565b5f5f60408385031215610917576109166104a4565b5b5f61092485828601610672565b925050602061093585828601610672565b9150509250929050565b5f5f5f5f5f5f5f60e0888a03121561095a576109596104a4565b5b5f6109678a828b01610672565b97505060206109788a828b01610672565b96505060406109898a828b016104cb565b955050606061099a8a828b016104cb565b94505060806109ab8a828b016104cb565b93505060a06109bc8a828b01610672565b92505060c06109cd8a828b016104cb565b91505092959891949750929550565b5f6040820190506109ef5f83018561052f565b6109fc602083018461052f565b9392505050565b5f60208284031215610a1857610a176104a4565b5b5f610a2584828501610672565b9150509291505056fea26469706673582212208dc22bc82d66597160ac9ebedcd8c4597d0290ae72383d9bc073b661fafcd6ca64736f6c634300081e0033",
					"opcodes": "PUSH1 0x80 PUSH1 0x40 MSTORE CALLVALUE DUP1 ISZERO PUSH2 0xF JUMPI PUSH0 PUSH0 REVERT JUMPDEST POP PUSH1 0x40 MLOAD PUSH2 0xD2F CODESIZE SUB DUP1 PUSH2 0xD2F DUP4 CODECOPY DUP2 DUP2 ADD PUSH1 0x40 MSTORE DUP2 ADD SWAP1 PUSH2 0x31 SWAP2 SWAP1 PUSH2 0x258 JUMP JUMPDEST CALLER PUSH0 PUSH20 0xFFFFFFFFFFFFFFFFFFFFFFFFFFFFFFFFFFFFFFFF AND DUP2 PUSH20 0xFFFFFFFFFFFFFFFFFFFFFFFFFFFFFFFFFFFFFFFF AND SUB PUSH2 0xA2 JUMPI PUSH0 PUSH1 0x40 MLOAD PUSH32 0x1E4FBDF700000000000000000000000000000000000000000000000000000000 DUP2 MSTORE PUSH1 0x4 ADD PUSH2 0x99 SWAP2 SWAP1 PUSH2 0x2A5 JUMP JUMPDEST PUSH1 0x40 MLOAD DUP1 SWAP2 SUB SWAP1 REVERT JUMPDEST PUSH2 0xB1 DUP2 PUSH2 0x139 PUSH1 0x20 SHL PUSH1 0x20 SHR JUMP JUMPDEST POP DUP2 PUSH1 0x1 PUSH0 PUSH2 0x100 EXP DUP2 SLOAD DUP2 PUSH20 0xFFFFFFFFFFFFFFFFFFFFFFFFFFFFFFFFFFFFFFFF MUL NOT AND SWAP1 DUP4 PUSH20 0xFFFFFFFFFFFFFFFFFFFFFFFFFFFFFFFFFFFFFFFF AND MUL OR SWAP1 SSTORE POP DUP1 PUSH1 0x2 PUSH0 PUSH2 0x100 EXP DUP2 SLOAD DUP2 PUSH20 0xFFFFFFFFFFFFFFFFFFFFFFFFFFFFFFFFFFFFFFFF MUL NOT AND SWAP1 DUP4 PUSH20 0xFFFFFFFFFFFFFFFFFFFFFFFFFFFFFFFFFFFFFFFF AND MUL OR SWAP1 SSTORE POP POP POP PUSH2 0x2BE JUMP JUMPDEST PUSH0 PUSH0 PUSH0 SWAP1 SLOAD SWAP1 PUSH2 0x100 EXP SWAP1 DIV PUSH20 0xFFFFFFFFFFFFFFFFFFFFFFFFFFFFFFFFFFFFFFFF AND SWAP1 POP DUP2 PUSH0 PUSH0 PUSH2 0x100 EXP DUP2 SLOAD DUP2 PUSH20 0xFFFFFFFFFFFFFFFFFFFFFFFFFFFFFFFFFFFFFFFF MUL NOT AND SWAP1 DUP4 PUSH20 0xFFFFFFFFFFFFFFFFFFFFFFFFFFFFFFFFFFFFFFFF AND MUL OR SWAP1 SSTORE POP DUP2 PUSH20 0xFFFFFFFFFFFFFFFFFFFFFFFFFFFFFFFFFFFFFFFF AND DUP2 PUSH20 0xFFFFFFFFFFFFFFFFFFFFFFFFFFFFFFFFFFFFFFFF AND PUSH32 0x8BE0079C531659141344CD1FD0A4F28419497F9722A3DAAFE3B4186F6B6457E0 PUSH1 0x40 MLOAD PUSH1 0x40 MLOAD DUP1 SWAP2 SUB SWAP1 LOG3 POP POP JUMP JUMPDEST PUSH0 PUSH0 REVERT JUMPDEST PUSH0 PUSH20 0xFFFFFFFFFFFFFFFFFFFFFFFFFFFFFFFFFFFFFFFF DUP3 AND SWAP1 POP SWAP2 SWAP1 POP JUMP JUMPDEST PUSH0 PUSH2 0x227 DUP3 PUSH2 0x1FE JUMP JUMPDEST SWAP1 POP SWAP2 SWAP1 POP JUMP JUMPDEST PUSH2 0x237 DUP2 PUSH2 0x21D JUMP JUMPDEST DUP2 EQ PUSH2 0x241 JUMPI PUSH0 PUSH0 REVERT JUMPDEST POP JUMP JUMPDEST PUSH0 DUP2 MLOAD SWAP1 POP PUSH2 0x252 DUP2 PUSH2 0x22E JUMP JUMPDEST SWAP3 SWAP2 POP POP JUMP JUMPDEST PUSH0 PUSH0 PUSH1 0x40 DUP4 DUP6 SUB SLT ISZERO PUSH2 0x26E JUMPI PUSH2 0x26D PUSH2 0x1FA JUMP JUMPDEST JUMPDEST PUSH0 PUSH2 0x27B DUP6 DUP3 DUP7 ADD PUSH2 0x244 JUMP JUMPDEST SWAP3 POP POP PUSH1 0x20 PUSH2 0x28C DUP6 DUP3 DUP7 ADD PUSH2 0x244 JUMP JUMPDEST SWAP2 POP POP SWAP3 POP SWAP3 SWAP1 POP JUMP JUMPDEST PUSH2 0x29F DUP2 PUSH2 0x21D JUMP JUMPDEST DUP3 MSTORE POP POP JUMP JUMPDEST PUSH0 PUSH1 0x20 DUP3 ADD SWAP1 POP PUSH2 0x2B8 PUSH0 DUP4 ADD DUP5 PUSH2 0x296 JUMP JUMPDEST SWAP3 SWAP2 POP POP JUMP JUMPDEST PUSH2 0xA64 DUP1 PUSH2 0x2CB PUSH0 CODECOPY PUSH0 RETURN INVALID PUSH1 0x80 PUSH1 0x40 MSTORE CALLVALUE DUP1 ISZERO PUSH2 0xF JUMPI PUSH0 PUSH0 REVERT JUMPDEST POP PUSH1 0x4 CALLDATASIZE LT PUSH2 0x9C JUMPI PUSH0 CALLDATALOAD PUSH1 0xE0 SHR DUP1 PUSH4 0x8DA5CB5B GT PUSH2 0x64 JUMPI DUP1 PUSH4 0x8DA5CB5B EQ PUSH2 0x15A JUMPI DUP1 PUSH4 0xAC41865A EQ PUSH2 0x178 JUMPI DUP1 PUSH4 0xBAA2ABDE EQ PUSH2 0x1A8 JUMPI DUP1 PUSH4 0xD21220A7 EQ PUSH2 0x1D9 JUMPI DUP1 PUSH4 0xF2FDE38B EQ PUSH2 0x1F7 JUMPI PUSH2 0x9C JUMP JUMPDEST DUP1 PUSH4 0x54D50D4 EQ PUSH2 0xA0 JUMPI DUP1 PUSH4 0x25BE124E EQ PUSH2 0xD0 JUMPI DUP1 PUSH4 0x38ED1739 EQ PUSH2 0xEE JUMPI DUP1 PUSH4 0x3DE2D681 EQ PUSH2 0x11E JUMPI DUP1 PUSH4 0x715018A6 EQ PUSH2 0x150 JUMPI JUMPDEST PUSH0 PUSH0 REVERT JUMPDEST PUSH2 0xBA PUSH1 0x4 DUP1 CALLDATASIZE SUB DUP2 ADD SWAP1 PUSH2 0xB5 SWAP2 SWAP1 PUSH2 0x4DF JUMP JUMPDEST PUSH2 0x213 JUMP JUMPDEST PUSH1 0x40 MLOAD PUSH2 0xC7 SWAP2 SWAP1 PUSH2 0x53E JUMP JUMPDEST PUSH1 0x40 MLOAD DUP1 SWAP2 SUB SWAP1 RETURN JUMPDEST PUSH2 0xD8 PUSH2 0x21B JUMP JUMPDEST PUSH1 0x40 MLOAD PUSH2 0xE5 SWAP2 SWAP1 PUSH2 0x5D1 JUMP JUMPDEST PUSH1 0x40 MLOAD DUP1 SWAP2 SUB SWAP1 RETURN JUMPDEST PUSH2 0x108 PUSH1 0x4 DUP1 CALLDATASIZE SUB DUP2 ADD SWAP1 PUSH2 0x103 SWAP2 SWAP1 PUSH2 0x686 JUMP JUMPDEST PUSH2 0x240 JUMP JUMPDEST PUSH1 0x40 MLOAD PUSH2 0x115 SWAP2 SWAP1 PUSH2 0x7D3 JUMP JUMPDEST PUSH1 0x40 MLOAD DUP1 SWAP2 SUB SWAP1 RETURN JUMPDEST PUSH2 0x138 PUSH1 0x4 DUP1 CALLDATASIZE SUB DUP2 ADD SWAP1 PUSH2 0x133 SWAP2 SWAP1 PUSH2 0x7F3 JUMP JUMPDEST PUSH2 0x24C JUMP JUMPDEST PUSH1 0x40 MLOAD PUSH2 0x147 SWAP4 SWAP3 SWAP2 SWAP1 PUSH2 0x8A4 JUMP JUMPDEST PUSH1 0x40 MLOAD DUP1 SWAP2 SUB SWAP1 RETURN JUMPDEST PUSH2 0x158 PUSH2 0x25D JUMP JUMPDEST STOP JUMPDEST PUSH2 0x162 PUSH2 0x270 JUMP JUMPDEST PUSH1 0x40 MLOAD PUSH2 0x16F SWAP2 SWAP1 PUSH2 0x8E8 JUMP JUMPDEST PUSH1 0x40 MLOAD DUP1 SWAP2 SUB SWAP1 RETURN JUMPDEST PUSH2 0x192 PUSH1 0x4 DUP1 CALLDATASIZE SUB DUP2 ADD SWAP1 PUSH2 0x18D SWAP2 SWAP1 PUSH2 0x901 JUMP JUMPDEST PUSH2 0x297 JUMP JUMPDEST PUSH1 0x40 MLOAD PUSH2 0x19F SWAP2 SWAP1 PUSH2 0x53E JUMP JUMPDEST PUSH1 0x40 MLOAD DUP1 SWAP2 SUB SWAP1 RETURN JUMPDEST PUSH2 0x1C2 PUSH1 0x4 DUP1 CALLDATASIZE SUB DUP2 ADD SWAP1 PUSH2 0x1BD SWAP2 SWAP1 PUSH2 0x93F JUMP JUMPDEST PUSH2 0x29E JUMP JUMPDEST PUSH1 0x40 MLOAD PUSH2 0x1D0 SWAP3 SWAP2 SWAP1 PUSH2 0x9DC JUMP JUMPDEST PUSH1 0x40 MLOAD DUP1 SWAP2 SUB SWAP1 RETURN JUMPDEST PUSH2 0x1E1 PUSH2 0x2AC JUMP JUMPDEST PUSH1 0x40 MLOAD PUSH2 0x1EE SWAP2 SWAP1 PUSH2 0x5D1 JUMP JUMPDEST PUSH1 0x40 MLOAD DUP1 SWAP2 SUB SWAP1 RETURN JUMPDEST PUSH2 0x211 PUSH1 0x4 DUP1 CALLDATASIZE SUB DUP2 ADD SWAP1 PUSH2 0x20C SWAP2 SWAP1 PUSH2 0xA03 JUMP JUMPDEST PUSH2 0x2D1 JUMP JUMPDEST STOP JUMPDEST PUSH0 SWAP4 SWAP3 POP POP POP JUMP JUMPDEST PUSH1 0x2 PUSH0 SWAP1 SLOAD SWAP1 PUSH2 0x100 EXP SWAP1 DIV PUSH20 0xFFFFFFFFFFFFFFFFFFFFFFFFFFFFFFFFFFFFFFFF AND DUP2 JUMP JUMPDEST PUSH1 0x60 SWAP7 SWAP6 POP POP POP POP POP POP JUMP JUMPDEST PUSH0 PUSH0 PUSH0 SWAP9 POP SWAP9 POP SWAP9 SWAP6 POP POP POP POP POP POP JUMP JUMPDEST PUSH2 0x265 PUSH2 0x355 JUMP JUMPDEST PUSH2 0x26E PUSH0 PUSH2 0x3DC JUMP JUMPDEST JUMP JUMPDEST PUSH0 PUSH0 PUSH0 SWAP1 SLOAD SWAP1 PUSH2 0x100 EXP SWAP1 DIV PUSH20 0xFFFFFFFFFFFFFFFFFFFFFFFFFFFFFFFFFFFFFFFF AND SWAP1 POP SWAP1 JUMP JUMPDEST PUSH0 SWAP3 SWAP2 POP POP JUMP JUMPDEST PUSH0 PUSH0 SWAP8 POP SWAP8 SWAP6 POP POP POP POP POP POP JUMP JUMPDEST PUSH1 0x1 PUSH0 SWAP1 SLOAD SWAP1 PUSH2 0x100 EXP SWAP1 DIV PUSH20 0xFFFFFFFFFFFFFFFFFFFFFFFFFFFFFFFFFFFFFFFF AND DUP2 JUMP JUMPDEST PUSH2 0x2D9 PUSH2 0x355 JUMP JUMPDEST PUSH0 PUSH20 0xFFFFFFFFFFFFFFFFFFFFFFFFFFFFFFFFFFFFFFFF AND DUP2 PUSH20 0xFFFFFFFFFFFFFFFFFFFFFFFFFFFFFFFFFFFFFFFF AND SUB PUSH2 0x349 JUMPI PUSH0 PUSH1 0x40 MLOAD PUSH32 0x1E4FBDF700000000000000000000000000000000000000000000000000000000 DUP2 MSTORE PUSH1 0x4 ADD PUSH2 0x340 SWAP2 SWAP1 PUSH2 0x8E8 JUMP JUMPDEST PUSH1 0x40 MLOAD DUP1 SWAP2 SUB SWAP1 REVERT JUMPDEST PUSH2 0x352 DUP2 PUSH2 0x3DC JUMP JUMPDEST POP JUMP JUMPDEST PUSH2 0x35D PUSH2 0x49D JUMP JUMPDEST PUSH20 0xFFFFFFFFFFFFFFFFFFFFFFFFFFFFFFFFFFFFFFFF AND PUSH2 0x37B PUSH2 0x270 JUMP JUMPDEST PUSH20 0xFFFFFFFFFFFFFFFFFFFFFFFFFFFFFFFFFFFFFFFF AND EQ PUSH2 0x3DA JUMPI PUSH2 0x39E PUSH2 0x49D JUMP JUMPDEST PUSH1 0x40 MLOAD PUSH32 0x118CDAA700000000000000000000000000000000000000000000000000000000 DUP2 MSTORE PUSH1 0x4 ADD PUSH2 0x3D1 SWAP2 SWAP1 PUSH2 0x8E8 JUMP JUMPDEST PUSH1 0x40 MLOAD DUP1 SWAP2 SUB SWAP1 REVERT JUMPDEST JUMP JUMPDEST PUSH0 PUSH0 PUSH0 SWAP1 SLOAD SWAP1 PUSH2 0x100 EXP SWAP1 DIV PUSH20 0xFFFFFFFFFFFFFFFFFFFFFFFFFFFFFFFFFFFFFFFF AND SWAP1 POP DUP2 PUSH0 PUSH0 PUSH2 0x100 EXP DUP2 SLOAD DUP2 PUSH20 0xFFFFFFFFFFFFFFFFFFFFFFFFFFFFFFFFFFFFFFFF MUL NOT AND SWAP1 DUP4 PUSH20 0xFFFFFFFFFFFFFFFFFFFFFFFFFFFFFFFFFFFFFFFF AND MUL OR SWAP1 SSTORE POP DUP2 PUSH20 0xFFFFFFFFFFFFFFFFFFFFFFFFFFFFFFFFFFFFFFFF AND DUP2 PUSH20 0xFFFFFFFFFFFFFFFFFFFFFFFFFFFFFFFFFFFFFFFF AND PUSH32 0x8BE0079C531659141344CD1FD0A4F28419497F9722A3DAAFE3B4186F6B6457E0 PUSH1 0x40 MLOAD PUSH1 0x40 MLOAD DUP1 SWAP2 SUB SWAP1 LOG3 POP POP JUMP JUMPDEST PUSH0 CALLER SWAP1 POP SWAP1 JUMP JUMPDEST PUSH0 PUSH0 REVERT JUMPDEST PUSH0 PUSH0 REVERT JUMPDEST PUSH0 DUP2 SWAP1 POP SWAP2 SWAP1 POP JUMP JUMPDEST PUSH2 0x4BE DUP2 PUSH2 0x4AC JUMP JUMPDEST DUP2 EQ PUSH2 0x4C8 JUMPI PUSH0 PUSH0 REVERT JUMPDEST POP JUMP JUMPDEST PUSH0 DUP2 CALLDATALOAD SWAP1 POP PUSH2 0x4D9 DUP2 PUSH2 0x4B5 JUMP JUMPDEST SWAP3 SWAP2 POP POP JUMP JUMPDEST PUSH0 PUSH0 PUSH0 PUSH1 0x60 DUP5 DUP7 SUB SLT ISZERO PUSH2 0x4F6 JUMPI PUSH2 0x4F5 PUSH2 0x4A4 JUMP JUMPDEST JUMPDEST PUSH0 PUSH2 0x503 DUP7 DUP3 DUP8 ADD PUSH2 0x4CB JUMP JUMPDEST SWAP4 POP POP PUSH1 0x20 PUSH2 0x514 DUP7 DUP3 DUP8 ADD PUSH2 0x4CB JUMP JUMPDEST SWAP3 POP POP PUSH1 0x40 PUSH2 0x525 DUP7 DUP3 DUP8 ADD PUSH2 0x4CB JUMP JUMPDEST SWAP2 POP POP SWAP3 POP SWAP3 POP SWAP3 JUMP JUMPDEST PUSH2 0x538 DUP2 PUSH2 0x4AC JUMP JUMPDEST DUP3 MSTORE POP POP JUMP JUMPDEST PUSH0 PUSH1 0x20 DUP3 ADD SWAP1 POP PUSH2 0x551 PUSH0 DUP4 ADD DUP5 PUSH2 0x52F JUMP JUMPDEST SWAP3 SWAP2 POP POP JUMP JUMPDEST PUSH0 PUSH20 0xFFFFFFFFFFFFFFFFFFFFFFFFFFFFFFFFFFFFFFFF DUP3 AND SWAP1 POP SWAP2 SWAP1 POP JUMP JUMPDEST PUSH0 DUP2 SWAP1 POP SWAP2 SWAP1 POP JUMP JUMPDEST PUSH0 PUSH2 0x599 PUSH2 0x594 PUSH2 0x58F DUP5 PUSH2 0x557 JUMP JUMPDEST PUSH2 0x576 JUMP JUMPDEST PUSH2 0x557 JUMP JUMPDEST SWAP1 POP SWAP2 SWAP1 POP JUMP JUMPDEST PUSH0 PUSH2 0x5AA DUP3 PUSH2 0x57F JUMP JUMPDEST SWAP1 POP SWAP2 SWAP1 POP JUMP JUMPDEST PUSH0 PUSH2 0x5BB DUP3 PUSH2 0x5A0 JUMP JUMPDEST SWAP1 POP SWAP2 SWAP1 POP JUMP JUMPDEST PUSH2 0x5CB DUP2 PUSH2 0x5B1 JUMP JUMPDEST DUP3 MSTORE POP POP JUMP JUMPDEST PUSH0 PUSH1 0x20 DUP3 ADD SWAP1 POP PUSH2 0x5E4 PUSH0 DUP4 ADD DUP5 PUSH2 0x5C2 JUMP JUMPDEST SWAP3 SWAP2 POP POP JUMP JUMPDEST PUSH0 PUSH0 REVERT JUMPDEST PUSH0 PUSH0 REVERT JUMPDEST PUSH0 PUSH0 REVERT JUMPDEST PUSH0 PUSH0 DUP4 PUSH1 0x1F DUP5 ADD SLT PUSH2 0x60B JUMPI PUSH2 0x60A PUSH2 0x5EA JUMP JUMPDEST JUMPDEST DUP3 CALLDATALOAD SWAP1 POP PUSH8 0xFFFFFFFFFFFFFFFF DUP2 GT ISZERO PUSH2 0x628 JUMPI PUSH2 0x627 PUSH2 0x5EE JUMP JUMPDEST JUMPDEST PUSH1 0x20 DUP4 ADD SWAP2 POP DUP4 PUSH1 0x20 DUP3 MUL DUP4 ADD GT ISZERO PUSH2 0x644 JUMPI PUSH2 0x643 PUSH2 0x5F2 JUMP JUMPDEST JUMPDEST SWAP3 POP SWAP3 SWAP1 POP JUMP JUMPDEST PUSH0 PUSH2 0x655 DUP3 PUSH2 0x557 JUMP JUMPDEST SWAP1 POP SWAP2 SWAP1 POP JUMP JUMPDEST PUSH2 0x665 DUP2 PUSH2 0x64B JUMP JUMPDEST DUP2 EQ PUSH2 0x66F JUMPI PUSH0 PUSH0 REVERT JUMPDEST POP JUMP JUMPDEST PUSH0 DUP2 CALLDATALOAD SWAP1 POP PUSH2 0x680 DUP2 PUSH2 0x65C JUMP JUMPDEST SWAP3 SWAP2 POP POP JUMP JUMPDEST PUSH0 PUSH0 PUSH0 PUSH0 PUSH0 PUSH0 PUSH1 0xA0 DUP8 DUP10 SUB SLT ISZERO PUSH2 0x6A0 JUMPI PUSH2 0x69F PUSH2 0x4A4 JUMP JUMPDEST JUMPDEST PUSH0 PUSH2 0x6AD DUP10 DUP3 DUP11 ADD PUSH2 0x4CB JUMP JUMPDEST SWAP7 POP POP PUSH1 0x20 PUSH2 0x6BE DUP10 DUP3 DUP11 ADD PUSH2 0x4CB JUMP JUMPDEST SWAP6 POP POP PUSH1 0x40 DUP8 ADD CALLDATALOAD PUSH8 0xFFFFFFFFFFFFFFFF DUP2 GT ISZERO PUSH2 0x6DF JUMPI PUSH2 0x6DE PUSH2 0x4A8 JUMP JUMPDEST JUMPDEST PUSH2 0x6EB DUP10 DUP3 DUP11 ADD PUSH2 0x5F6 JUMP JUMPDEST SWAP5 POP SWAP5 POP POP PUSH1 0x60 PUSH2 0x6FE DUP10 DUP3 DUP11 ADD PUSH2 0x672 JUMP JUMPDEST SWAP3 POP POP PUSH1 0x80 PUSH2 0x70F DUP10 DUP3 DUP11 ADD PUSH2 0x4CB JUMP JUMPDEST SWAP2 POP POP SWAP3 SWAP6 POP SWAP3 SWAP6 POP SWAP3 SWAP6 JUMP JUMPDEST PUSH0 DUP2 MLOAD SWAP1 POP SWAP2 SWAP1 POP JUMP JUMPDEST PUSH0 DUP3 DUP3 MSTORE PUSH1 0x20 DUP3 ADD SWAP1 POP SWAP3 SWAP2 POP POP JUMP JUMPDEST PUSH0 DUP2 SWAP1 POP PUSH1 0x20 DUP3 ADD SWAP1 POP SWAP2 SWAP1 POP JUMP JUMPDEST PUSH2 0x74E DUP2 PUSH2 0x4AC JUMP JUMPDEST DUP3 MSTORE POP POP JUMP JUMPDEST PUSH0 PUSH2 0x75F DUP4 DUP4 PUSH2 0x745 JUMP JUMPDEST PUSH1 0x20 DUP4 ADD SWAP1 POP SWAP3 SWAP2 POP POP JUMP JUMPDEST PUSH0 PUSH1 0x20 DUP3 ADD SWAP1 POP SWAP2 SWAP1 POP JUMP JUMPDEST PUSH0 PUSH2 0x781 DUP3 PUSH2 0x71C JUMP JUMPDEST PUSH2 0x78B DUP2 DUP6 PUSH2 0x726 JUMP JUMPDEST SWAP4 POP PUSH2 0x796 DUP4 PUSH2 0x736 JUMP JUMPDEST DUP1 PUSH0 JUMPDEST DUP4 DUP2 LT ISZERO PUSH2 0x7C6 JUMPI DUP2 MLOAD PUSH2 0x7AD DUP9 DUP3 PUSH2 0x754 JUMP JUMPDEST SWAP8 POP PUSH2 0x7B8 DUP4 PUSH2 0x76B JUMP JUMPDEST SWAP3 POP POP PUSH1 0x1 DUP2 ADD SWAP1 POP PUSH2 0x799 JUMP JUMPDEST POP DUP6 SWAP4 POP POP POP POP SWAP3 SWAP2 POP POP JUMP JUMPDEST PUSH0 PUSH1 0x20 DUP3 ADD SWAP1 POP DUP2 DUP2 SUB PUSH0 DUP4 ADD MSTORE PUSH2 0x7EB DUP2 DUP5 PUSH2 0x777 JUMP JUMPDEST SWAP1 POP SWAP3 SWAP2 POP POP JUMP JUMPDEST PUSH0 PUSH0 PUSH0 PUSH0 PUSH0 PUSH0 PUSH0 PUSH0 PUSH2 0x100 DUP10 DUP12 SUB SLT ISZERO PUSH2 0x810 JUMPI PUSH2 0x80F PUSH2 0x4A4 JUMP JUMPDEST JUMPDEST PUSH0 PUSH2 0x81D DUP12 DUP3 DUP13 ADD PUSH2 0x672 JUMP JUMPDEST SWAP9 POP POP PUSH1 0x20 PUSH2 0x82E DUP12 DUP3 DUP13 ADD PUSH2 0x672 JUMP JUMPDEST SWAP8 POP POP PUSH1 0x40 PUSH2 0x83F DUP12 DUP3 DUP13 ADD PUSH2 0x4CB JUMP JUMPDEST SWAP7 POP POP PUSH1 0x60 PUSH2 0x850 DUP12 DUP3 DUP13 ADD PUSH2 0x4CB JUMP JUMPDEST SWAP6 POP POP PUSH1 0x80 PUSH2 0x861 DUP12 DUP3 DUP13 ADD PUSH2 0x4CB JUMP JUMPDEST SWAP5 POP POP PUSH1 0xA0 PUSH2 0x872 DUP12 DUP3 DUP13 ADD PUSH2 0x4CB JUMP JUMPDEST SWAP4 POP POP PUSH1 0xC0 PUSH2 0x883 DUP12 DUP3 DUP13 ADD PUSH2 0x672 JUMP JUMPDEST SWAP3 POP POP PUSH1 0xE0 PUSH2 0x894 DUP12 DUP3 DUP13 ADD PUSH2 0x4CB JUMP JUMPDEST SWAP2 POP POP SWAP3 SWAP6 SWAP9 POP SWAP3 SWAP6 SWAP9 SWAP1 SWAP4 SWAP7 POP JUMP JUMPDEST PUSH0 PUSH1 0x60 DUP3 ADD SWAP1 POP PUSH2 0x8B7 PUSH0 DUP4 ADD DUP7 PUSH2 0x52F JUMP JUMPDEST PUSH2 0x8C4 PUSH1 0x20 DUP4 ADD DUP6 PUSH2 0x52F JUMP JUMPDEST PUSH2 0x8D1 PUSH1 0x40 DUP4 ADD DUP5 PUSH2 0x52F JUMP JUMPDEST SWAP5 SWAP4 POP POP POP POP JUMP JUMPDEST PUSH2 0x8E2 DUP2 PUSH2 0x64B JUMP JUMPDEST DUP3 MSTORE POP POP JUMP JUMPDEST PUSH0 PUSH1 0x20 DUP3 ADD SWAP1 POP PUSH2 0x8FB PUSH0 DUP4 ADD DUP5 PUSH2 0x8D9 JUMP JUMPDEST SWAP3 SWAP2 POP POP JUMP JUMPDEST PUSH0 PUSH0 PUSH1 0x40 DUP4 DUP6 SUB SLT ISZERO PUSH2 0x917 JUMPI PUSH2 0x916 PUSH2 0x4A4 JUMP JUMPDEST JUMPDEST PUSH0 PUSH2 0x924 DUP6 DUP3 DUP7 ADD PUSH2 0x672 JUMP JUMPDEST SWAP3 POP POP PUSH1 0x20 PUSH2 0x935 DUP6 DUP3 DUP7 ADD PUSH2 0x672 JUMP JUMPDEST SWAP2 POP POP SWAP3 POP SWAP3 SWAP1 POP JUMP JUMPDEST PUSH0 PUSH0 PUSH0 PUSH0 PUSH0 PUSH0 PUSH0 PUSH1 0xE0 DUP9 DUP11 SUB SLT ISZERO PUSH2 0x95A JUMPI PUSH2 0x959 PUSH2 0x4A4 JUMP JUMPDEST JUMPDEST PUSH0 PUSH2 0x967 DUP11 DUP3 DUP12 ADD PUSH2 0x672 JUMP JUMPDEST SWAP8 POP POP PUSH1 0x20 PUSH2 0x978 DUP11 DUP3 DUP12 ADD PUSH2 0x672 JUMP JUMPDEST SWAP7 POP POP PUSH1 0x40 PUSH2 0x989 DUP11 DUP3 DUP12 ADD PUSH2 0x4CB JUMP JUMPDEST SWAP6 POP POP PUSH1 0x60 PUSH2 0x99A DUP11 DUP3 DUP12 ADD PUSH2 0x4CB JUMP JUMPDEST SWAP5 POP POP PUSH1 0x80 PUSH2 0x9AB DUP11 DUP3 DUP12 ADD PUSH2 0x4CB JUMP JUMPDEST SWAP4 POP POP PUSH1 0xA0 PUSH2 0x9BC DUP11 DUP3 DUP12 ADD PUSH2 0x672 JUMP JUMPDEST SWAP3 POP POP PUSH1 0xC0 PUSH2 0x9CD DUP11 DUP3 DUP12 ADD PUSH2 0x4CB JUMP JUMPDEST SWAP2 POP POP SWAP3 SWAP6 SWAP9 SWAP2 SWAP5 SWAP8 POP SWAP3 SWAP6 POP JUMP JUMPDEST PUSH0 PUSH1 0x40 DUP3 ADD SWAP1 POP PUSH2 0x9EF PUSH0 DUP4 ADD DUP6 PUSH2 0x52F JUMP JUMPDEST PUSH2 0x9FC PUSH1 0x20 DUP4 ADD DUP5 PUSH2 0x52F JUMP JUMPDEST SWAP4 SWAP3 POP POP POP JUMP JUMPDEST PUSH0 PUSH1 0x20 DUP3 DUP5 SUB SLT ISZERO PUSH2 0xA18 JUMPI PUSH2 0xA17 PUSH2 0x4A4 JUMP JUMPDEST JUMPDEST PUSH0 PUSH2 0xA25 DUP5 DUP3 DUP6 ADD PUSH2 0x672 JUMP JUMPDEST SWAP2 POP POP SWAP3 SWAP2 POP POP JUMP INVALID LOG2 PUSH5 0x6970667358 0x22 SLT KECCAK256 DUP14 0xC2 0x2B 0xC8 0x2D PUSH7 0x597160AC9EBEDC 0xD8 0xC4 MSIZE PUSH30 0x290AE72383D9BC073B661FAFCD6CA64736F6C634300081E003300000000 "
				},
				"gasEstimates": {
					"creation": {
						"codeDepositCost": "532000",
						"executionCost": "infinite",
						"totalCost": "infinite"
					},
					"external": {
						"addLiquidityaddLiquidity(address,address,uint256,uint256,uint256,uint256,address,uint256)": "infinite",
						"getAmountOut(uint256,uint256,uint256)": "infinite",
						"getPrice(address,address)": "infinite",
						"owner()": "2514",
						"removeLiquidity(address,address,uint256,uint256,uint256,address,uint256)": "infinite",
						"renounceOwnership()": "infinite",
						"swapExactTokensForTokens(uint256,uint256,address[],address,uint256)": "infinite",
						"token1()": "infinite",
						"token2()": "infinite",
						"transferOwnership(address)": "infinite"
					}
				},
				"methodIdentifiers": {
					"addLiquidityaddLiquidity(address,address,uint256,uint256,uint256,uint256,address,uint256)": "3de2d681",
					"getAmountOut(uint256,uint256,uint256)": "054d50d4",
					"getPrice(address,address)": "ac41865a",
					"owner()": "8da5cb5b",
					"removeLiquidity(address,address,uint256,uint256,uint256,address,uint256)": "baa2abde",
					"renounceOwnership()": "715018a6",
					"swapExactTokensForTokens(uint256,uint256,address[],address,uint256)": "38ed1739",
					"token1()": "d21220a7",
					"token2()": "25be124e",
					"transferOwnership(address)": "f2fde38b"
				}
			},
			"storageLayout": {
				"storage": [
					{
						"astId": 8,
						"contract": "contracts/SimpleSwap.sol:SimpleSwap",
						"label": "_owner",
						"offset": 0,
						"slot": "0",
						"type": "t_address"
					},
					{
						"astId": 954,
						"contract": "contracts/SimpleSwap.sol:SimpleSwap",
						"label": "token1",
						"offset": 0,
						"slot": "1",
						"type": "t_contract(ERC20)799"
					},
					{
						"astId": 957,
						"contract": "contracts/SimpleSwap.sol:SimpleSwap",
						"label": "token2",
						"offset": 0,
						"slot": "2",
						"type": "t_contract(ERC20)799"
					}
				],
				"types": {
					"t_address": {
						"encoding": "inplace",
						"label": "address",
						"numberOfBytes": "20"
					},
					"t_contract(ERC20)799": {
						"encoding": "inplace",
						"label": "contract ERC20",
						"numberOfBytes": "20"
					}
				}
			},
			"userdoc": {
				"kind": "user",
				"methods": {},
				"version": 1
			}
		}
	}
}