{
	"data": {
		"bytecode": {
			"linkReferences": {},
			"object": "608060405234801561000f575f5ffd5b50604051610d2f380380610d2f83398181016040528101906100319190610258565b335f73ffffffffffffffffffffffffffffffffffffffff168173ffffffffffffffffffffffffffffffffffffffff16036100a2575f6040517f1e4fbdf700000000000000000000000000000000000000000000000000000000815260040161009991906102a5565b60405180910390fd5b6100b18161013960201b60201c565b508160015f6101000a81548173ffffffffffffffffffffffffffffffffffffffff021916908373ffffffffffffffffffffffffffffffffffffffff1602179055508060025f6101000a81548173ffffffffffffffffffffffffffffffffffffffff021916908373ffffffffffffffffffffffffffffffffffffffff16021790555050506102be565b5f5f5f9054906101000a900473ffffffffffffffffffffffffffffffffffffffff169050815f5f6101000a81548173ffffffffffffffffffffffffffffffffffffffff021916908373ffffffffffffffffffffffffffffffffffffffff1602179055508173ffffffffffffffffffffffffffffffffffffffff168173ffffffffffffffffffffffffffffffffffffffff167f8be0079c531659141344cd1fd0a4f28419497f9722a3daafe3b4186f6b6457e060405160405180910390a35050565b5f5ffd5b5f73ffffffffffffffffffffffffffffffffffffffff82169050919050565b5f610227826101fe565b9050919050565b6102378161021d565b8114610241575f5ffd5b50565b5f815190506102528161022e565b92915050565b5f5f6040838503121561026e5761026d6101fa565b5b5f61027b85828601610244565b925050602061028c85828601610244565b9150509250929050565b61029f8161021d565b82525050565b5f6020820190506102b85f830184610296565b92915050565b610a64806102cb5f395ff3fe608060405234801561000f575f5ffd5b506004361061009c575f3560e01c80638da5cb5b116100645780638da5cb5b1461015a578063ac41865a14610178578063baa2abde146101a8578063d21220a7146101d9578063f2fde38b146101f75761009c565b8063054d50d4146100a057806325be124e146100d057806338ed1739146100ee5780633de2d6811461011e578063715018a614610150575b5f5ffd5b6100ba60048036038101906100b591906104df565b610213565b6040516100c7919061053e565b60405180910390f35b6100d861021b565b6040516100e591906105d1565b60405180910390f35b61010860048036038101906101039190610686565b610240565b60405161011591906107d3565b60405180910390f35b610138600480360381019061013391906107f3565b61024c565b604051610147939291906108a4565b60405180910390f35b61015861025d565b005b610162610270565b60405161016f91906108e8565b60405180910390f35b610192600480360381019061018d9190610901565b610297565b60405161019f919061053e565b60405180910390f35b6101c260048036038101906101bd919061093f565b61029e565b6040516101d09291906109dc565b60405180910390f35b6101e16102ac565b6040516101ee91906105d1565b60405180910390f35b610211600480360381019061020c9190610a03565b6102d1565b005b5f9392505050565b60025f9054906101000a900473ffffffffffffffffffffffffffffffffffffffff1681565b60609695505050505050565b5f5f5f985098509895505050505050565b610265610355565b61026e5f6103dc565b565b5f5f5f9054906101000a900473ffffffffffffffffffffffffffffffffffffffff16905090565b5f92915050565b5f5f97509795505050505050565b60015f9054906101000a900473ffffffffffffffffffffffffffffffffffffffff1681565b6102d9610355565b5f73ffffffffffffffffffffffffffffffffffffffff168173ffffffffffffffffffffffffffffffffffffffff1603610349575f6040517f1e4fbdf700000000000000000000000000000000000000000000000000000000815260040161034091906108e8565b60405180910390fd5b610352816103dc565b50565b61035d61049d565b73ffffffffffffffffffffffffffffffffffffffff1661037b610270565b73ffffffffffffffffffffffffffffffffffffffff16146103da5761039e61049d565b6040517f118cdaa70000000000000000000000000000000000000000000000000000000081526004016103d191906108e8565b60405180910390fd5b565b5f5f5f9054906101000a900473ffffffffffffffffffffffffffffffffffffffff169050815f5f6101000a81548173ffffffffffffffffffffffffffffffffffffffff021916908373ffffffffffffffffffffffffffffffffffffffff1602179055508173ffffffffffffffffffffffffffffffffffffffff168173ffffffffffffffffffffffffffffffffffffffff167f8be0079c531659141344cd1fd0a4f28419497f9722a3daafe3b4186f6b6457e060405160405180910390a35050565b5f33905090565b5f5ffd5b5f5ffd5b5f819050919050565b6104be816104ac565b81146104c8575f5ffd5b50565b5f813590506104d9816104b5565b92915050565b5f5f5f606084860312156104f6576104f56104a4565b5b5f610503868287016104cb565b9350506020610514868287016104cb565b9250506040610525868287016104cb565b9150509250925092565b610538816104ac565b82525050565b5f6020820190506105515f83018461052f565b92915050565b5f73ffffffffffffffffffffffffffffffffffffffff82169050919050565b5f819050919050565b5f61059961059461058f84610557565b610576565b610557565b9050919050565b5f6105aa8261057f565b9050919050565b5f6105bb826105a0565b9050919050565b6105cb816105b1565b82525050565b5f6020820190506105e45f8301846105c2565b92915050565b5f5ffd5b5f5ffd5b5f5ffd5b5f5f83601f84011261060b5761060a6105ea565b5b8235905067ffffffffffffffff811115610628576106276105ee565b5b602083019150836020820283011115610644576106436105f2565b5b9250929050565b5f61065582610557565b9050919050565b6106658161064b565b811461066f575f5ffd5b50565b5f813590506106808161065c565b92915050565b5f5f5f5f5f5f60a087890312156106a05761069f6104a4565b5b5f6106ad89828a016104cb565b96505060206106be89828a016104cb565b955050604087013567ffffffffffffffff8111156106df576106de6104a8565b5b6106eb89828a016105f6565b945094505060606106fe89828a01610672565b925050608061070f89828a016104cb565b9150509295509295509295565b5f81519050919050565b5f82825260208201905092915050565b5f819050602082019050919050565b61074e816104ac565b82525050565b5f61075f8383610745565b60208301905092915050565b5f602082019050919050565b5f6107818261071c565b61078b8185610726565b935061079683610736565b805f5b838110156107c65781516107ad8882610754565b97506107b88361076b565b925050600181019050610799565b5085935050505092915050565b5f6020820190508181035f8301526107eb8184610777565b905092915050565b5f5f5f5f5f5f5f5f610100898b0312156108105761080f6104a4565b5b5f61081d8b828c01610672565b985050602061082e8b828c01610672565b975050604061083f8b828c016104cb565b96505060606108508b828c016104cb565b95505060806108618b828c016104cb565b94505060a06108728b828c016104cb565b93505060c06108838b828c01610672565b92505060e06108948b828c016104cb565b9150509295985092959890939650565b5f6060820190506108b75f83018661052f565b6108c4602083018561052f565b6108d1604083018461052f565b949350505050565b6108e28161064b565b82525050565b5f6020820190506108fb5f8301846108d9565b92915050565b5f5f60408385031215610917576109166104a4565b5b5f61092485828601610672565b925050602061093585828601610672565b9150509250929050565b5f5f5f5f5f5f5f60e0888a03121561095a576109596104a4565b5b5f6109678a828b01610672565b97505060206109788a828b01610672565b96505060406109898a828b016104cb565b955050606061099a8a828b016104cb565b94505060806109ab8a828b016104cb565b93505060a06109bc8a828b01610672565b92505060c06109cd8a828b016104cb565b91505092959891949750929550565b5f6040820190506109ef5f83018561052f565b6109fc602083018461052f565b9392505050565b5f60208284031215610a1857610a176104a4565b5b5f610a2584828501610672565b9150509291505056fea26469706673582212208dc22bc82d66597160ac9ebedcd8c4597d0290ae72383d9bc073b661fafcd6ca64736f6c634300081e0033",
			"opcodes": "PUSH1 0x80 PUSH1 0x40 MSTORE CALLVALUE DUP1 ISZERO PUSH2 0xF JUMPI PUSH0 PUSH0 REVERT JUMPDEST POP PUSH1 0x40 MLOAD PUSH2 0xD2F CODESIZE SUB DUP1 PUSH2 0xD2F DUP4 CODECOPY DUP2 DUP2 ADD PUSH1 0x40 MSTORE DUP2 ADD SWAP1 PUSH2 0x31 SWAP2 SWAP1 PUSH2 0x258 JUMP JUMPDEST CALLER PUSH0 PUSH20 0xFFFFFFFFFFFFFFFFFFFFFFFFFFFFFFFFFFFFFFFF AND DUP2 PUSH20 0xFFFFFFFFFFFFFFFFFFFFFFFFFFFFFFFFFFFFFFFF AND SUB PUSH2 0xA2 JUMPI PUSH0 PUSH1 0x40 MLOAD PUSH32 0x1E4FBDF700000000000000000000000000000000000000000000000000000000 DUP2 MSTORE PUSH1 0x4 ADD PUSH2 0x99 SWAP2 SWAP1 PUSH2 0x2A5 JUMP JUMPDEST PUSH1 0x40 MLOAD DUP1 SWAP2 SUB SWAP1 REVERT JUMPDEST PUSH2 0xB1 DUP2 PUSH2 0x139 PUSH1 0x20 SHL PUSH1 0x20 SHR JUMP JUMPDEST POP DUP2 PUSH1 0x1 PUSH0 PUSH2 0x100 EXP DUP2 SLOAD DUP2 PUSH20 0xFFFFFFFFFFFFFFFFFFFFFFFFFFFFFFFFFFFFFFFF MUL NOT AND SWAP1 DUP4 PUSH20 0xFFFFFFFFFFFFFFFFFFFFFFFFFFFFFFFFFFFFFFFF AND MUL OR SWAP1 SSTORE POP DUP1 PUSH1 0x2 PUSH0 PUSH2 0x100 EXP DUP2 SLOAD DUP2 PUSH20 0xFFFFFFFFFFFFFFFFFFFFFFFFFFFFFFFFFFFFFFFF MUL NOT AND SWAP1 DUP4 PUSH20 0xFFFFFFFFFFFFFFFFFFFFFFFFFFFFFFFFFFFFFFFF AND MUL OR SWAP1 SSTORE POP POP POP PUSH2 0x2BE JUMP JUMPDEST PUSH0 PUSH0 PUSH0 SWAP1 SLOAD SWAP1 PUSH2 0x100 EXP SWAP1 DIV PUSH20 0xFFFFFFFFFFFFFFFFFFFFFFFFFFFFFFFFFFFFFFFF AND SWAP1 POP DUP2 PUSH0 PUSH0 PUSH2 0x100 EXP DUP2 SLOAD DUP2 PUSH20 0xFFFFFFFFFFFFFFFFFFFFFFFFFFFFFFFFFFFFFFFF MUL NOT AND SWAP1 DUP4 PUSH20 0xFFFFFFFFFFFFFFFFFFFFFFFFFFFFFFFFFFFFFFFF AND MUL OR SWAP1 SSTORE POP DUP2 PUSH20 0xFFFFFFFFFFFFFFFFFFFFFFFFFFFFFFFFFFFFFFFF AND DUP2 PUSH20 0xFFFFFFFFFFFFFFFFFFFFFFFFFFFFFFFFFFFFFFFF AND PUSH32 0x8BE0079C531659141344CD1FD0A4F28419497F9722A3DAAFE3B4186F6B6457E0 PUSH1 0x40 MLOAD PUSH1 0x40 MLOAD DUP1 SWAP2 SUB SWAP1 LOG3 POP POP JUMP JUMPDEST PUSH0 PUSH0 REVERT JUMPDEST PUSH0 PUSH20 0xFFFFFFFFFFFFFFFFFFFFFFFFFFFFFFFFFFFFFFFF DUP3 AND SWAP1 POP SWAP2 SWAP1 POP JUMP JUMPDEST PUSH0 PUSH2 0x227 DUP3 PUSH2 0x1FE JUMP JUMPDEST SWAP1 POP SWAP2 SWAP1 POP JUMP JUMPDEST PUSH2 0x237 DUP2 PUSH2 0x21D JUMP JUMPDEST DUP2 EQ PUSH2 0x241 JUMPI PUSH0 PUSH0 REVERT JUMPDEST POP JUMP JUMPDEST PUSH0 DUP2 MLOAD SWAP1 POP PUSH2 0x252 DUP2 PUSH2 0x22E JUMP JUMPDEST SWAP3 SWAP2 POP POP JUMP JUMPDEST PUSH0 PUSH0 PUSH1 0x40 DUP4 DUP6 SUB SLT ISZERO PUSH2 0x26E JUMPI PUSH2 0x26D PUSH2 0x1FA JUMP JUMPDEST JUMPDEST PUSH0 PUSH2 0x27B DUP6 DUP3 DUP7 ADD PUSH2 0x244 JUMP JUMPDEST SWAP3 POP POP PUSH1 0x20 PUSH2 0x28C DUP6 DUP3 DUP7 ADD PUSH2 0x244 JUMP JUMPDEST SWAP2 POP POP SWAP3 POP SWAP3 SWAP1 POP JUMP JUMPDEST PUSH2 0x29F DUP2 PUSH2 0x21D JUMP JUMPDEST DUP3 MSTORE POP POP JUMP JUMPDEST PUSH0 PUSH1 0x20 DUP3 ADD SWAP1 POP PUSH2 0x2B8 PUSH0 DUP4 ADD DUP5 PUSH2 0x296 JUMP JUMPDEST SWAP3 SWAP2 POP POP JUMP JUMPDEST PUSH2 0xA64 DUP1 PUSH2 0x2CB PUSH0 CODECOPY PUSH0 RETURN INVALID PUSH1 0x80 PUSH1 0x40 MSTORE CALLVALUE DUP1 ISZERO PUSH2 0xF JUMPI PUSH0 PUSH0 REVERT JUMPDEST POP PUSH1 0x4 CALLDATASIZE LT PUSH2 0x9C JUMPI PUSH0 CALLDATALOAD PUSH1 0xE0 SHR DUP1 PUSH4 0x8DA5CB5B GT PUSH2 0x64 JUMPI DUP1 PUSH4 0x8DA5CB5B EQ PUSH2 0x15A JUMPI DUP1 PUSH4 0xAC41865A EQ PUSH2 0x178 JUMPI DUP1 PUSH4 0xBAA2ABDE EQ PUSH2 0x1A8 JUMPI DUP1 PUSH4 0xD21220A7 EQ PUSH2 0x1D9 JUMPI DUP1 PUSH4 0xF2FDE38B EQ PUSH2 0x1F7 JUMPI PUSH2 0x9C JUMP JUMPDEST DUP1 PUSH4 0x54D50D4 EQ PUSH2 0xA0 JUMPI DUP1 PUSH4 0x25BE124E EQ PUSH2 0xD0 JUMPI DUP1 PUSH4 0x38ED1739 EQ PUSH2 0xEE JUMPI DUP1 PUSH4 0x3DE2D681 EQ PUSH2 0x11E JUMPI DUP1 PUSH4 0x715018A6 EQ PUSH2 0x150 JUMPI JUMPDEST PUSH0 PUSH0 REVERT JUMPDEST PUSH2 0xBA PUSH1 0x4 DUP1 CALLDATASIZE SUB DUP2 ADD SWAP1 PUSH2 0xB5 SWAP2 SWAP1 PUSH2 0x4DF JUMP JUMPDEST PUSH2 0x213 JUMP JUMPDEST PUSH1 0x40 MLOAD PUSH2 0xC7 SWAP2 SWAP1 PUSH2 0x53E JUMP JUMPDEST PUSH1 0x40 MLOAD DUP1 SWAP2 SUB SWAP1 RETURN JUMPDEST PUSH2 0xD8 PUSH2 0x21B JUMP JUMPDEST PUSH1 0x40 MLOAD PUSH2 0xE5 SWAP2 SWAP1 PUSH2 0x5D1 JUMP JUMPDEST PUSH1 0x40 MLOAD DUP1 SWAP2 SUB SWAP1 RETURN JUMPDEST PUSH2 0x108 PUSH1 0x4 DUP1 CALLDATASIZE SUB DUP2 ADD SWAP1 PUSH2 0x103 SWAP2 SWAP1 PUSH2 0x686 JUMP JUMPDEST PUSH2 0x240 JUMP JUMPDEST PUSH1 0x40 MLOAD PUSH2 0x115 SWAP2 SWAP1 PUSH2 0x7D3 JUMP JUMPDEST PUSH1 0x40 MLOAD DUP1 SWAP2 SUB SWAP1 RETURN JUMPDEST PUSH2 0x138 PUSH1 0x4 DUP1 CALLDATASIZE SUB DUP2 ADD SWAP1 PUSH2 0x133 SWAP2 SWAP1 PUSH2 0x7F3 JUMP JUMPDEST PUSH2 0x24C JUMP JUMPDEST PUSH1 0x40 MLOAD PUSH2 0x147 SWAP4 SWAP3 SWAP2 SWAP1 PUSH2 0x8A4 JUMP JUMPDEST PUSH1 0x40 MLOAD DUP1 SWAP2 SUB SWAP1 RETURN JUMPDEST PUSH2 0x158 PUSH2 0x25D JUMP JUMPDEST STOP JUMPDEST PUSH2 0x162 PUSH2 0x270 JUMP JUMPDEST PUSH1 0x40 MLOAD PUSH2 0x16F SWAP2 SWAP1 PUSH2 0x8E8 JUMP JUMPDEST PUSH1 0x40 MLOAD DUP1 SWAP2 SUB SWAP1 RETURN JUMPDEST PUSH2 0x192 PUSH1 0x4 DUP1 CALLDATASIZE SUB DUP2 ADD SWAP1 PUSH2 0x18D SWAP2 SWAP1 PUSH2 0x901 JUMP JUMPDEST PUSH2 0x297 JUMP JUMPDEST PUSH1 0x40 MLOAD PUSH2 0x19F SWAP2 SWAP1 PUSH2 0x53E JUMP JUMPDEST PUSH1 0x40 MLOAD DUP1 SWAP2 SUB SWAP1 RETURN JUMPDEST PUSH2 0x1C2 PUSH1 0x4 DUP1 CALLDATASIZE SUB DUP2 ADD SWAP1 PUSH2 0x1BD SWAP2 SWAP1 PUSH2 0x93F JUMP JUMPDEST PUSH2 0x29E JUMP JUMPDEST PUSH1 0x40 MLOAD PUSH2 0x1D0 SWAP3 SWAP2 SWAP1 PUSH2 0x9DC JUMP JUMPDEST PUSH1 0x40 MLOAD DUP1 SWAP2 SUB SWAP1 RETURN JUMPDEST PUSH2 0x1E1 PUSH2 0x2AC JUMP JUMPDEST PUSH1 0x40 MLOAD PUSH2 0x1EE SWAP2 SWAP1 PUSH2 0x5D1 JUMP JUMPDEST PUSH1 0x40 MLOAD DUP1 SWAP2 SUB SWAP1 RETURN JUMPDEST PUSH2 0x211 PUSH1 0x4 DUP1 CALLDATASIZE SUB DUP2 ADD SWAP1 PUSH2 0x20C SWAP2 SWAP1 PUSH2 0xA03 JUMP JUMPDEST PUSH2 0x2D1 JUMP JUMPDEST STOP JUMPDEST PUSH0 SWAP4 SWAP3 POP POP POP JUMP JUMPDEST PUSH1 0x2 PUSH0 SWAP1 SLOAD SWAP1 PUSH2 0x100 EXP SWAP1 DIV PUSH20 0xFFFFFFFFFFFFFFFFFFFFFFFFFFFFFFFFFFFFFFFF AND DUP2 JUMP JUMPDEST PUSH1 0x60 SWAP7 SWAP6 POP POP POP POP POP POP JUMP JUMPDEST PUSH0 PUSH0 PUSH0 SWAP9 POP SWAP9 POP SWAP9 SWAP6 POP POP POP POP POP POP JUMP JUMPDEST PUSH2 0x265 PUSH2 0x355 JUMP JUMPDEST PUSH2 0x26E PUSH0 PUSH2 0x3DC JUMP JUMPDEST JUMP JUMPDEST PUSH0 PUSH0 PUSH0 SWAP1 SLOAD SWAP1 PUSH2 0x100 EXP SWAP1 DIV PUSH20 0xFFFFFFFFFFFFFFFFFFFFFFFFFFFFFFFFFFFFFFFF AND SWAP1 POP SWAP1 JUMP JUMPDEST PUSH0 SWAP3 SWAP2 POP POP JUMP JUMPDEST PUSH0 PUSH0 SWAP8 POP SWAP8 SWAP6 POP POP POP POP POP POP JUMP JUMPDEST PUSH1 0x1 PUSH0 SWAP1 SLOAD SWAP1 PUSH2 0x100 EXP SWAP1 DIV PUSH20 0xFFFFFFFFFFFFFFFFFFFFFFFFFFFFFFFFFFFFFFFF AND DUP2 JUMP JUMPDEST PUSH2 0x2D9 PUSH2 0x355 JUMP JUMPDEST PUSH0 PUSH20 0xFFFFFFFFFFFFFFFFFFFFFFFFFFFFFFFFFFFFFFFF AND DUP2 PUSH20 0xFFFFFFFFFFFFFFFFFFFFFFFFFFFFFFFFFFFFFFFF AND SUB PUSH2 0x349 JUMPI PUSH0 PUSH1 0x40 MLOAD PUSH32 0x1E4FBDF700000000000000000000000000000000000000000000000000000000 DUP2 MSTORE PUSH1 0x4 ADD PUSH2 0x340 SWAP2 SWAP1 PUSH2 0x8E8 JUMP JUMPDEST PUSH1 0x40 MLOAD DUP1 SWAP2 SUB SWAP1 REVERT JUMPDEST PUSH2 0x352 DUP2 PUSH2 0x3DC JUMP JUMPDEST POP JUMP JUMPDEST PUSH2 0x35D PUSH2 0x49D JUMP JUMPDEST PUSH20 0xFFFFFFFFFFFFFFFFFFFFFFFFFFFFFFFFFFFFFFFF AND PUSH2 0x37B PUSH2 0x270 JUMP JUMPDEST PUSH20 0xFFFFFFFFFFFFFFFFFFFFFFFFFFFFFFFFFFFFFFFF AND EQ PUSH2 0x3DA JUMPI PUSH2 0x39E PUSH2 0x49D JUMP JUMPDEST PUSH1 0x40 MLOAD PUSH32 0x118CDAA700000000000000000000000000000000000000000000000000000000 DUP2 MSTORE PUSH1 0x4 ADD PUSH2 0x3D1 SWAP2 SWAP1 PUSH2 0x8E8 JUMP JUMPDEST PUSH1 0x40 MLOAD DUP1 SWAP2 SUB SWAP1 REVERT JUMPDEST JUMP JUMPDEST PUSH0 PUSH0 PUSH0 SWAP1 SLOAD SWAP1 PUSH2 0x100 EXP SWAP1 DIV PUSH20 0xFFFFFFFFFFFFFFFFFFFFFFFFFFFFFFFFFFFFFFFF AND SWAP1 POP DUP2 PUSH0 PUSH0 PUSH2 0x100 EXP DUP2 SLOAD DUP2 PUSH20 0xFFFFFFFFFFFFFFFFFFFFFFFFFFFFFFFFFFFFFFFF MUL NOT AND SWAP1 DUP4 PUSH20 0xFFFFFFFFFFFFFFFFFFFFFFFFFFFFFFFFFFFFFFFF AND MUL OR SWAP1 SSTORE POP DUP2 PUSH20 0xFFFFFFFFFFFFFFFFFFFFFFFFFFFFFFFFFFFFFFFF AND DUP2 PUSH20 0xFFFFFFFFFFFFFFFFFFFFFFFFFFFFFFFFFFFFFFFF AND PUSH32 0x8BE0079C531659141344CD1FD0A4F28419497F9722A3DAAFE3B4186F6B6457E0 PUSH1 0x40 MLOAD PUSH1 0x40 MLOAD DUP1 SWAP2 SUB SWAP1 LOG3 POP POP JUMP JUMPDEST PUSH0 CALLER SWAP1 POP SWAP1 JUMP JUMPDEST PUSH0 PUSH0 REVERT JUMPDEST PUSH0 PUSH0 REVERT JUMPDEST PUSH0 DUP2 SWAP1 POP SWAP2 SWAP1 POP JUMP JUMPDEST PUSH2 0x4BE DUP2 PUSH2 0x4AC JUMP JUMPDEST DUP2 EQ PUSH2 0x4C8 JUMPI PUSH0 PUSH0 REVERT JUMPDEST POP JUMP JUMPDEST PUSH0 DUP2 CALLDATALOAD SWAP1 POP PUSH2 0x4D9 DUP2 PUSH2 0x4B5 JUMP JUMPDEST SWAP3 SWAP2 POP POP JUMP JUMPDEST PUSH0 PUSH0 PUSH0 PUSH1 0x60 DUP5 DUP7 SUB SLT ISZERO PUSH2 0x4F6 JUMPI PUSH2 0x4F5 PUSH2 0x4A4 JUMP JUMPDEST JUMPDEST PUSH0 PUSH2 0x503 DUP7 DUP3 DUP8 ADD PUSH2 0x4CB JUMP JUMPDEST SWAP4 POP POP PUSH1 0x20 PUSH2 0x514 DUP7 DUP3 DUP8 ADD PUSH2 0x4CB JUMP JUMPDEST SWAP3 POP POP PUSH1 0x40 PUSH2 0x525 DUP7 DUP3 DUP8 ADD PUSH2 0x4CB JUMP JUMPDEST SWAP2 POP POP SWAP3 POP SWAP3 POP SWAP3 JUMP JUMPDEST PUSH2 0x538 DUP2 PUSH2 0x4AC JUMP JUMPDEST DUP3 MSTORE POP POP JUMP JUMPDEST PUSH0 PUSH1 0x20 DUP3 ADD SWAP1 POP PUSH2 0x551 PUSH0 DUP4 ADD DUP5 PUSH2 0x52F JUMP JUMPDEST SWAP3 SWAP2 POP POP JUMP JUMPDEST PUSH0 PUSH20 0xFFFFFFFFFFFFFFFFFFFFFFFFFFFFFFFFFFFFFFFF DUP3 AND SWAP1 POP SWAP2 SWAP1 POP JUMP JUMPDEST PUSH0 DUP2 SWAP1 POP SWAP2 SWAP1 POP JUMP JUMPDEST PUSH0 PUSH2 0x599 PUSH2 0x594 PUSH2 0x58F DUP5 PUSH2 0x557 JUMP JUMPDEST PUSH2 0x576 JUMP JUMPDEST PUSH2 0x557 JUMP JUMPDEST SWAP1 POP SWAP2 SWAP1 POP JUMP JUMPDEST PUSH0 PUSH2 0x5AA DUP3 PUSH2 0x57F JUMP JUMPDEST SWAP1 POP SWAP2 SWAP1 POP JUMP JUMPDEST PUSH0 PUSH2 0x5BB DUP3 PUSH2 0x5A0 JUMP JUMPDEST SWAP1 POP SWAP2 SWAP1 POP JUMP JUMPDEST PUSH2 0x5CB DUP2 PUSH2 0x5B1 JUMP JUMPDEST DUP3 MSTORE POP POP JUMP JUMPDEST PUSH0 PUSH1 0x20 DUP3 ADD SWAP1 POP PUSH2 0x5E4 PUSH0 DUP4 ADD DUP5 PUSH2 0x5C2 JUMP JUMPDEST SWAP3 SWAP2 POP POP JUMP JUMPDEST PUSH0 PUSH0 REVERT JUMPDEST PUSH0 PUSH0 REVERT JUMPDEST PUSH0 PUSH0 REVERT JUMPDEST PUSH0 PUSH0 DUP4 PUSH1 0x1F DUP5 ADD SLT PUSH2 0x60B JUMPI PUSH2 0x60A PUSH2 0x5EA JUMP JUMPDEST JUMPDEST DUP3 CALLDATALOAD SWAP1 POP PUSH8 0xFFFFFFFFFFFFFFFF DUP2 GT ISZERO PUSH2 0x628 JUMPI PUSH2 0x627 PUSH2 0x5EE JUMP JUMPDEST JUMPDEST PUSH1 0x20 DUP4 ADD SWAP2 POP DUP4 PUSH1 0x20 DUP3 MUL DUP4 ADD GT ISZERO PUSH2 0x644 JUMPI PUSH2 0x643 PUSH2 0x5F2 JUMP JUMPDEST JUMPDEST SWAP3 POP SWAP3 SWAP1 POP JUMP JUMPDEST PUSH0 PUSH2 0x655 DUP3 PUSH2 0x557 JUMP JUMPDEST SWAP1 POP SWAP2 SWAP1 POP JUMP JUMPDEST PUSH2 0x665 DUP2 PUSH2 0x64B JUMP JUMPDEST DUP2 EQ PUSH2 0x66F JUMPI PUSH0 PUSH0 REVERT JUMPDEST POP JUMP JUMPDEST PUSH0 DUP2 CALLDATALOAD SWAP1 POP PUSH2 0x680 DUP2 PUSH2 0x65C JUMP JUMPDEST SWAP3 SWAP2 POP POP JUMP JUMPDEST PUSH0 PUSH0 PUSH0 PUSH0 PUSH0 PUSH0 PUSH1 0xA0 DUP8 DUP10 SUB SLT ISZERO PUSH2 0x6A0 JUMPI PUSH2 0x69F PUSH2 0x4A4 JUMP JUMPDEST JUMPDEST PUSH0 PUSH2 0x6AD DUP10 DUP3 DUP11 ADD PUSH2 0x4CB JUMP JUMPDEST SWAP7 POP POP PUSH1 0x20 PUSH2 0x6BE DUP10 DUP3 DUP11 ADD PUSH2 0x4CB JUMP JUMPDEST SWAP6 POP POP PUSH1 0x40 DUP8 ADD CALLDATALOAD PUSH8 0xFFFFFFFFFFFFFFFF DUP2 GT ISZERO PUSH2 0x6DF JUMPI PUSH2 0x6DE PUSH2 0x4A8 JUMP JUMPDEST JUMPDEST PUSH2 0x6EB DUP10 DUP3 DUP11 ADD PUSH2 0x5F6 JUMP JUMPDEST SWAP5 POP SWAP5 POP POP PUSH1 0x60 PUSH2 0x6FE DUP10 DUP3 DUP11 ADD PUSH2 0x672 JUMP JUMPDEST SWAP3 POP POP PUSH1 0x80 PUSH2 0x70F DUP10 DUP3 DUP11 ADD PUSH2 0x4CB JUMP JUMPDEST SWAP2 POP POP SWAP3 SWAP6 POP SWAP3 SWAP6 POP SWAP3 SWAP6 JUMP JUMPDEST PUSH0 DUP2 MLOAD SWAP1 POP SWAP2 SWAP1 POP JUMP JUMPDEST PUSH0 DUP3 DUP3 MSTORE PUSH1 0x20 DUP3 ADD SWAP1 POP SWAP3 SWAP2 POP POP JUMP JUMPDEST PUSH0 DUP2 SWAP1 POP PUSH1 0x20 DUP3 ADD SWAP1 POP SWAP2 SWAP1 POP JUMP JUMPDEST PUSH2 0x74E DUP2 PUSH2 0x4AC JUMP JUMPDEST DUP3 MSTORE POP POP JUMP JUMPDEST PUSH0 PUSH2 0x75F DUP4 DUP4 PUSH2 0x745 JUMP JUMPDEST PUSH1 0x20 DUP4 ADD SWAP1 POP SWAP3 SWAP2 POP POP JUMP JUMPDEST PUSH0 PUSH1 0x20 DUP3 ADD SWAP1 POP SWAP2 SWAP1 POP JUMP JUMPDEST PUSH0 PUSH2 0x781 DUP3 PUSH2 0x71C JUMP JUMPDEST PUSH2 0x78B DUP2 DUP6 PUSH2 0x726 JUMP JUMPDEST SWAP4 POP PUSH2 0x796 DUP4 PUSH2 0x736 JUMP JUMPDEST DUP1 PUSH0 JUMPDEST DUP4 DUP2 LT ISZERO PUSH2 0x7C6 JUMPI DUP2 MLOAD PUSH2 0x7AD DUP9 DUP3 PUSH2 0x754 JUMP JUMPDEST SWAP8 POP PUSH2 0x7B8 DUP4 PUSH2 0x76B JUMP JUMPDEST SWAP3 POP POP PUSH1 0x1 DUP2 ADD SWAP1 POP PUSH2 0x799 JUMP JUMPDEST POP DUP6 SWAP4 POP POP POP POP SWAP3 SWAP2 POP POP JUMP JUMPDEST PUSH0 PUSH1 0x20 DUP3 ADD SWAP1 POP DUP2 DUP2 SUB PUSH0 DUP4 ADD MSTORE PUSH2 0x7EB DUP2 DUP5 PUSH2 0x777 JUMP JUMPDEST SWAP1 POP SWAP3 SWAP2 POP POP JUMP JUMPDEST PUSH0 PUSH0 PUSH0 PUSH0 PUSH0 PUSH0 PUSH0 PUSH0 PUSH2 0x100 DUP10 DUP12 SUB SLT ISZERO PUSH2 0x810 JUMPI PUSH2 0x80F PUSH2 0x4A4 JUMP JUMPDEST JUMPDEST PUSH0 PUSH2 0x81D DUP12 DUP3 DUP13 ADD PUSH2 0x672 JUMP JUMPDEST SWAP9 POP POP PUSH1 0x20 PUSH2 0x82E DUP12 DUP3 DUP13 ADD PUSH2 0x672 JUMP JUMPDEST SWAP8 POP POP PUSH1 0x40 PUSH2 0x83F DUP12 DUP3 DUP13 ADD PUSH2 0x4CB JUMP JUMPDEST SWAP7 POP POP PUSH1 0x60 PUSH2 0x850 DUP12 DUP3 DUP13 ADD PUSH2 0x4CB JUMP JUMPDEST SWAP6 POP POP PUSH1 0x80 PUSH2 0x861 DUP12 DUP3 DUP13 ADD PUSH2 0x4CB JUMP JUMPDEST SWAP5 POP POP PUSH1 0xA0 PUSH2 0x872 DUP12 DUP3 DUP13 ADD PUSH2 0x4CB JUMP JUMPDEST SWAP4 POP POP PUSH1 0xC0 PUSH2 0x883 DUP12 DUP3 DUP13 ADD PUSH2 0x672 JUMP JUMPDEST SWAP3 POP POP PUSH1 0xE0 PUSH2 0x894 DUP12 DUP3 DUP13 ADD PUSH2 0x4CB JUMP JUMPDEST SWAP2 POP POP SWAP3 SWAP6 SWAP9 POP SWAP3 SWAP6 SWAP9 SWAP1 SWAP4 SWAP7 POP JUMP JUMPDEST PUSH0 PUSH1 0x60 DUP3 ADD SWAP1 POP PUSH2 0x8B7 PUSH0 DUP4 ADD DUP7 PUSH2 0x52F JUMP JUMPDEST PUSH2 0x8C4 PUSH1 0x20 DUP4 ADD DUP6 PUSH2 0x52F JUMP JUMPDEST PUSH2 0x8D1 PUSH1 0x40 DUP4 ADD DUP5 PUSH2 0x52F JUMP JUMPDEST SWAP5 SWAP4 POP POP POP POP JUMP JUMPDEST PUSH2 0x8E2 DUP2 PUSH2 0x64B JUMP JUMPDEST DUP3 MSTORE POP POP JUMP JUMPDEST PUSH0 PUSH1 0x20 DUP3 ADD SWAP1 POP PUSH2 0x8FB PUSH0 DUP4 ADD DUP5 PUSH2 0x8D9 JUMP JUMPDEST SWAP3 SWAP2 POP POP JUMP JUMPDEST PUSH0 PUSH0 PUSH1 0x40 DUP4 DUP6 SUB SLT ISZERO PUSH2 0x917 JUMPI PUSH2 0x916 PUSH2 0x4A4 JUMP JUMPDEST JUMPDEST PUSH0 PUSH2 0x924 DUP6 DUP3 DUP7 ADD PUSH2 0x672 JUMP JUMPDEST SWAP3 POP POP PUSH1 0x20 PUSH2 0x935 DUP6 DUP3 DUP7 ADD PUSH2 0x672 JUMP JUMPDEST SWAP2 POP POP SWAP3 POP SWAP3 SWAP1 POP JUMP JUMPDEST PUSH0 PUSH0 PUSH0 PUSH0 PUSH0 PUSH0 PUSH0 PUSH1 0xE0 DUP9 DUP11 SUB SLT ISZERO PUSH2 0x95A JUMPI PUSH2 0x959 PUSH2 0x4A4 JUMP JUMPDEST JUMPDEST PUSH0 PUSH2 0x967 DUP11 DUP3 DUP12 ADD PUSH2 0x672 JUMP JUMPDEST SWAP8 POP POP PUSH1 0x20 PUSH2 0x978 DUP11 DUP3 DUP12 ADD PUSH2 0x672 JUMP JUMPDEST SWAP7 POP POP PUSH1 0x40 PUSH2 0x989 DUP11 DUP3 DUP12 ADD PUSH2 0x4CB JUMP JUMPDEST SWAP6 POP POP PUSH1 0x60 PUSH2 0x99A DUP11 DUP3 DUP12 ADD PUSH2 0x4CB JUMP JUMPDEST SWAP5 POP POP PUSH1 0x80 PUSH2 0x9AB DUP11 DUP3 DUP12 ADD PUSH2 0x4CB JUMP JUMPDEST SWAP4 POP POP PUSH1 0xA0 PUSH2 0x9BC DUP11 DUP3 DUP12 ADD PUSH2 0x672 JUMP JUMPDEST SWAP3 POP POP PUSH1 0xC0 PUSH2 0x9CD DUP11 DUP3 DUP12 ADD PUSH2 0x4CB JUMP JUMPDEST SWAP2 POP POP SWAP3 SWAP6 SWAP9 SWAP2 SWAP5 SWAP8 POP SWAP3 SWAP6 POP JUMP JUMPDEST PUSH0 PUSH1 0x40 DUP3 ADD SWAP1 POP PUSH2 0x9EF PUSH0 DUP4 ADD DUP6 PUSH2 0x52F JUMP JUMPDEST PUSH2 0x9FC PUSH1 0x20 DUP4 ADD DUP5 PUSH2 0x52F JUMP JUMPDEST SWAP4 SWAP3 POP POP POP JUMP JUMPDEST PUSH0 PUSH1 0x20 DUP3 DUP5 SUB SLT ISZERO PUSH2 0xA18 JUMPI PUSH2 0xA17 PUSH2 0x4A4 JUMP JUMPDEST JUMPDEST PUSH0 PUSH2 0xA25 DUP5 DUP3 DUP6 ADD PUSH2 0x672 JUMP JUMPDEST SWAP2 POP POP SWAP3 SWAP2 POP POP JUMP INVALID LOG2 PUSH5 0x6970667358 0x22 SLT KECCAK256 DUP14 0xC2 0x2B 0xC8 0x2D PUSH7 0x597160AC9EBEDC 0xD8 0xC4 MSIZE PUSH30 0x290AE72383D9BC073B661FAFCD6CA64736F6C634300081E003300000000 "
		},
		"gasEstimates": {
			"creation": {
				"codeDepositCost": "532000",
				"executionCost": "infinite",
				"totalCost": "infinite"
			},
			"external": {
				"addLiquidityaddLiquidity(address,address,uint256,uint256,uint256,uint256,address,uint256)": "infinite",
				"getAmountOut(uint256,uint256,uint256)": "infinite",
				"getPrice(address,address)": "infinite",
				"owner()": "2514",
				"removeLiquidity(address,address,uint256,uint256,uint256,address,uint256)": "infinite",
				"renounceOwnership()": "infinite",
				"swapExactTokensForTokens(uint256,uint256,address[],address,uint256)": "infinite",
				"token1()": "infinite",
				"token2()": "infinite",
				"transferOwnership(address)": "infinite"
			}
		},
		"methodIdentifiers": {
			"addLiquidityaddLiquidity(address,address,uint256,uint256,uint256,uint256,address,uint256)": "3de2d681",
			"getAmountOut(uint256,uint256,uint256)": "054d50d4",
			"getPrice(address,address)": "ac41865a",
			"owner()": "8da5cb5b",
			"removeLiquidity(address,address,uint256,uint256,uint256,address,uint256)": "baa2abde",
			"renounceOwnership()": "715018a6",
			"swapExactTokensForTokens(uint256,uint256,address[],address,uint256)": "38ed1739",
			"token1()": "d21220a7",
			"token2()": "25be124e",
			"transferOwnership(address)": "f2fde38b"
		}
	},
	"abi": [
		{
			"inputs": [
				{
					"internalType": "address",
					"name": "_token1",
					"type": "address"
				},
				{
					"internalType": "address",
					"name": "_token2",
					"type": "address"
				}
			],
			"stateMutability": "nonpayable",
			"type": "constructor"
		},
		{
			"inputs": [
				{
					"internalType": "address",
					"name": "owner",
					"type": "address"
				}
			],
			"name": "OwnableInvalidOwner",
			"type": "error"
		},
		{
			"inputs": [
				{
					"internalType": "address",
					"name": "account",
					"type": "address"
				}
			],
			"name": "OwnableUnauthorizedAccount",
			"type": "error"
		},
		{
			"anonymous": false,
			"inputs": [
				{
					"indexed": true,
					"internalType": "address",
					"name": "previousOwner",
					"type": "address"
				},
				{
					"indexed": true,
					"internalType": "address",
					"name": "newOwner",
					"type": "address"
				}
			],
			"name": "OwnershipTransferred",
			"type": "event"
		},
		{
			"inputs": [
				{
					"internalType": "address",
					"name": "tokenA",
					"type": "address"
				},
				{
					"internalType": "address",
					"name": "tokenB",
					"type": "address"
				},
				{
					"internalType": "uint256",
					"name": "amountADesired",
					"type": "uint256"
				},
				{
					"internalType": "uint256",
					"name": "amountBDesired",
					"type": "uint256"
				},
				{
					"internalType": "uint256",
					"name": "amountAMin",
					"type": "uint256"
				},
				{
					"internalType": "uint256",
					"name": "amountBMin",
					"type": "uint256"
				},
				{
					"internalType": "address",
					"name": "to",
					"type": "address"
				},
				{
					"internalType": "uint256",
					"name": "deadline",
					"type": "uint256"
				}
			],
			"name": "addLiquidityaddLiquidity",
			"outputs": [
				{
					"internalType": "uint256",
					"name": "amountA",
					"type": "uint256"
				},
				{
					"internalType": "uint256",
					"name": "amountB",
					"type": "uint256"
				},
				{
					"internalType": "uint256",
					"name": "liquidity",
					"type": "uint256"
				}
			],
			"stateMutability": "nonpayable",
			"type": "function"
		},
		{
			"inputs": [
				{
					"internalType": "uint256",
					"name": "amountIn",
					"type": "uint256"
				},
				{
					"internalType": "uint256",
					"name": "reserveIn",
					"type": "uint256"
				},
				{
					"internalType": "uint256",
					"name": "reserveOut",
					"type": "uint256"
				}
			],
			"name": "getAmountOut",
			"outputs": [
				{
					"internalType": "uint256",
					"name": "amountOut",
					"type": "uint256"
				}
			],
			"stateMutability": "pure",
			"type": "function"
		},
		{
			"inputs": [
				{
					"internalType": "address",
					"name": "tokenA",
					"type": "address"
				},
				{
					"internalType": "address",
					"name": "tokenB",
					"type": "address"
				}
			],
			"name": "getPrice",
			"outputs": [
				{
					"internalType": "uint256",
					"name": "price",
					"type": "uint256"
				}
			],
			"stateMutability": "view",
			"type": "function"
		},
		{
			"inputs": [],
			"name": "owner",
			"outputs": [
				{
					"internalType": "address",
					"name": "",
					"type": "address"
				}
			],
			"stateMutability": "view",
			"type": "function"
		},
		{
			"inputs": [
				{
					"internalType": "address",
					"name": "tokenA",
					"type": "address"
				},
				{
					"internalType": "address",
					"name": "tokenB",
					"type": "address"
				},
				{
					"internalType": "uint256",
					"name": "liquidity",
					"type": "uint256"
				},
				{
					"internalType": "uint256",
					"name": "amountAMin",
					"type": "uint256"
				},
				{
					"internalType": "uint256",
					"name": "amountBMin",
					"type": "uint256"
				},
				{
					"internalType": "address",
					"name": "to",
					"type": "address"
				},
				{
					"internalType": "uint256",
					"name": "deadline",
					"type": "uint256"
				}
			],
			"name": "removeLiquidity",
			"outputs": [
				{
					"internalType": "uint256",
					"name": "amountA",
					"type": "uint256"
				},
				{
					"internalType": "uint256",
					"name": "amountB",
					"type": "uint256"
				}
			],
			"stateMutability": "nonpayable",
			"type": "function"
		},
		{
			"inputs": [],
			"name": "renounceOwnership",
			"outputs": [],
			"stateMutability": "nonpayable",
			"type": "function"
		},
		{
			"inputs": [
				{
					"internalType": "uint256",
					"name": "amountIn",
					"type": "uint256"
				},
				{
					"internalType": "uint256",
					"name": "amountOutMin",
					"type": "uint256"
				},
				{
					"internalType": "address[]",
					"name": "path",
					"type": "address[]"
				},
				{
					"internalType": "address",
					"name": "to",
					"type": "address"
				},
				{
					"internalType": "uint256",
					"name": "deadline",
					"type": "uint256"
				}
			],
			"name": "swapExactTokensForTokens",
			"outputs": [
				{
					"internalType": "uint256[]",
					"name": "amounts",
					"type": "uint256[]"
				}
			],
			"stateMutability": "nonpayable",
			"type": "function"
		},
		{
			"inputs": [],
			"name": "token1",
			"outputs": [
				{
					"internalType": "contract ERC20",
					"name": "",
					"type": "address"
				}
			],
			"stateMutability": "view",
			"type": "function"
		},
		{
			"inputs": [],
			"name": "token2",
			"outputs": [
				{
					"internalType": "contract ERC20",
					"name": "",
					"type": "address"
				}
			],
			"stateMutability": "view",
			"type": "function"
		},
		{
			"inputs": [
				{
					"internalType": "address",
					"name": "newOwner",
					"type": "address"
				}
			],
			"name": "transferOwnership",
			"outputs": [],
			"stateMutability": "nonpayable",
			"type": "function"
		}
	]
}