{
	"data": {
		"bytecode": {
			"linkReferences": {},
			"object": "6080604052348015600e575f5ffd5b5061228d8061001c5f395ff3fe608060405234801561000f575f5ffd5b5060043610610034575f3560e01c80633db804da14610038578063457b8b9114610068575b5f5ffd5b610052600480360381019061004d91906112b3565b610084565b60405161005f919061134e565b60405180910390f35b610082600480360381019061007d91906114f4565b610129565b005b5f8181548110610092575f80fd5b905f5260205f20015f9150905080546100aa906115da565b80601f01602080910402602001604051908101604052809291908181526020018280546100d6906115da565b80156101215780601f106100f857610100808354040283529160200191610121565b820191905f5260205f20905b81548152906001019060200180831161010457829003601f168201915b505050505081565b5f8411801561013757505f83115b610176576040517f08c379a000000000000000000000000000000000000000000000000000000000815260040161016d90611654565b60405180910390fd5b5f821180156101855750838211155b6101c4576040517f08c379a00000000000000000000000000000000000000000000000000000000081526004016101bb906116bc565b60405180910390fd5b838673ffffffffffffffffffffffffffffffffffffffff166370a08231306040518263ffffffff1660e01b81526004016101fe91906116e9565b602060405180830381865afa158015610219573d5f5f3e3d5ffd5b505050506040513d601f19601f8201168201806040525081019061023d9190611716565b101561027e576040517f08c379a0000000000000000000000000000000000000000000000000000000008152600401610275906117b1565b60405180910390fd5b828573ffffffffffffffffffffffffffffffffffffffff166370a08231306040518263ffffffff1660e01b81526004016102b891906116e9565b602060405180830381865afa1580156102d3573d5f5f3e3d5ffd5b505050506040513d601f19601f820116820180604052508101906102f79190611716565b1015610338576040517f08c379a000000000000000000000000000000000000000000000000000000000815260040161032f9061183f565b60405180910390fd5b6103ee6040518060400160405280601b81526020017f454d49492042414c414e434520303030303030303030303041203a00000000008152508773ffffffffffffffffffffffffffffffffffffffff166370a082318a6040518263ffffffff1660e01b81526004016103aa91906116e9565b602060405180830381865afa1580156103c5573d5f5f3e3d5ffd5b505050506040513d601f19601f820116820180604052508101906103e99190611716565b6110ec565b6104a46040518060400160405280601b81526020017f454d49492042414c414e434520303030303030303030303042203a00000000008152508673ffffffffffffffffffffffffffffffffffffffff166370a082318a6040518263ffffffff1660e01b815260040161046091906116e9565b602060405180830381865afa15801561047b573d5f5f3e3d5ffd5b505050506040513d601f19601f8201168201806040525081019061049f9190611716565b6110ec565b8573ffffffffffffffffffffffffffffffffffffffff1663095ea7b388866040518363ffffffff1660e01b81526004016104df92919061186c565b6020604051808303815f875af11580156104fb573d5f5f3e3d5ffd5b505050506040513d601f19601f8201168201806040525081019061051f91906118c8565b506105d86040518060400160405280601c81526020017f454d49492041505050524f564520303030303030303030303041203a000000008152508773ffffffffffffffffffffffffffffffffffffffff1663dd62ed3e308b6040518363ffffffff1660e01b81526004016105949291906118f3565b602060405180830381865afa1580156105af573d5f5f3e3d5ffd5b505050506040513d601f19601f820116820180604052508101906105d39190611716565b6110ec565b8473ffffffffffffffffffffffffffffffffffffffff1663095ea7b388856040518363ffffffff1660e01b815260040161061392919061186c565b6020604051808303815f875af115801561062f573d5f5f3e3d5ffd5b505050506040513d601f19601f8201168201806040525081019061065391906118c8565b5061070c6040518060400160405280601c81526020017f454d49492041505050524f564520303030303030303030303042203a000000008152508773ffffffffffffffffffffffffffffffffffffffff1663dd62ed3e308b6040518363ffffffff1660e01b81526004016106c89291906118f3565b602060405180830381865afa1580156106e3573d5f5f3e3d5ffd5b505050506040513d601f19601f820116820180604052508101906107079190611716565b6110ec565b5f5f5f8973ffffffffffffffffffffffffffffffffffffffff1663e8e337008a8a8a8a8c8c3060014261073f9190611947565b6040518963ffffffff1660e01b815260040161076298979695949392919061197a565b6060604051808303815f875af115801561077e573d5f5f3e3d5ffd5b505050506040513d601f19601f820116820180604052508101906107a291906119f6565b92509250925086831480156107b657508582145b6107f5576040517f08c379a00000000000000000000000000000000000000000000000000000000081526004016107ec90611a90565b60405180910390fd5b5f8111610837576040517f08c379a000000000000000000000000000000000000000000000000000000000815260040161082e90611b1e565b60405180910390fd5b6108ed6040518060400160405280601b81526020017f454d49492042414c414e434520303030303030303030303041203a00000000008152508a73ffffffffffffffffffffffffffffffffffffffff166370a082318d6040518263ffffffff1660e01b81526004016108a991906116e9565b602060405180830381865afa1580156108c4573d5f5f3e3d5ffd5b505050506040513d601f19601f820116820180604052508101906108e89190611716565b6110ec565b6109a36040518060400160405280601b81526020017f454d49492042414c414e434520303030303030303030303042203a00000000008152508973ffffffffffffffffffffffffffffffffffffffff166370a082318d6040518263ffffffff1660e01b815260040161095f91906116e9565b602060405180830381865afa15801561097a573d5f5f3e3d5ffd5b505050506040513d601f19601f8201168201806040525081019061099e9190611716565b6110ec565b6109e16040518060400160405280601181526020017f454d49492041505050524f56452031203a000000000000000000000000000000815250611188565b5f8a73ffffffffffffffffffffffffffffffffffffffff1663ac41865a8b8b6040518363ffffffff1660e01b8152600401610a1d9291906118f3565b602060405180830381865afa158015610a38573d5f5f3e3d5ffd5b505050506040513d601f19601f82011682018060405250810190610a5c9190611716565b905083670de0b6b3a764000084610a739190611b3c565b610a7d9190611baa565b8114610abe576040517f08c379a0000000000000000000000000000000000000000000000000000000008152600401610ab590611c24565b60405180910390fd5b610afc6040518060400160405280601181526020017f454d49492041505050524f56452032203a000000000000000000000000000000815250611188565b5f8b73ffffffffffffffffffffffffffffffffffffffff1663054d50d48887876040518463ffffffff1660e01b8152600401610b3a93929190611c42565b602060405180830381865afa158015610b55573d5f5f3e3d5ffd5b505050506040513d601f19601f82011682018060405250810190610b799190611716565b9050610bb96040518060400160405280601181526020017f454d49492041505050524f56452033203a000000000000000000000000000000815250611188565b8a73ffffffffffffffffffffffffffffffffffffffff1663095ea7b38d896040518363ffffffff1660e01b8152600401610bf492919061186c565b6020604051808303815f875af1158015610c10573d5f5f3e3d5ffd5b505050506040513d601f19601f82011682018060405250810190610c3491906118c8565b50610c736040518060400160405280601181526020017f454d49492041505050524f56452034203a000000000000000000000000000000815250611188565b5f600267ffffffffffffffff811115610c8f57610c8e6113d0565b5b604051908082528060200260200182016040528015610cbd5781602001602082028036833780820191505090505b5090508b815f81518110610cd457610cd3611c77565b5b602002602001019073ffffffffffffffffffffffffffffffffffffffff16908173ffffffffffffffffffffffffffffffffffffffff16815250508a81600181518110610d2357610d22611c77565b5b602002602001019073ffffffffffffffffffffffffffffffffffffffff16908173ffffffffffffffffffffffffffffffffffffffff1681525050610d9b6040518060400160405280601181526020017f454d49492041505050524f56452035203a000000000000000000000000000000815250611188565b8c73ffffffffffffffffffffffffffffffffffffffff166338ed173989848430600142610dc89190611947565b6040518663ffffffff1660e01b8152600401610de8959493929190611d5b565b5f604051808303815f87803b158015610dff575f5ffd5b505af1158015610e11573d5f5f3e3d5ffd5b50505050610e536040518060400160405280601181526020017f454d49492041505050524f56452036203a000000000000000000000000000000815250611188565b818b73ffffffffffffffffffffffffffffffffffffffff166370a08231306040518263ffffffff1660e01b8152600401610e8d91906116e9565b602060405180830381865afa158015610ea8573d5f5f3e3d5ffd5b505050506040513d601f19601f82011682018060405250810190610ecc9190611716565b1015610f0d576040517f08c379a0000000000000000000000000000000000000000000000000000000008152600401610f0490611dfd565b60405180910390fd5b610f4b6040518060400160405280601181526020017f454d49492041505050524f56452037203a000000000000000000000000000000815250611188565b5f5f8e73ffffffffffffffffffffffffffffffffffffffff1663baa2abde8f8f895f5f30600142610f7c9190611947565b6040518863ffffffff1660e01b8152600401610f9e9796959493929190611e5d565b60408051808303815f875af1158015610fb9573d5f5f3e3d5ffd5b505050506040513d601f19601f82011682018060405250810190610fdd9190611eca565b9150915061101f6040518060400160405280601181526020017f454d49492041505050524f56452038203a000000000000000000000000000000815250611188565b5f818361102c9190611947565b1161106c576040517f08c379a000000000000000000000000000000000000000000000000000000000815260040161106390611f78565b60405180910390fd5b6110aa6040518060400160405280601181526020017f454d49492041505050524f56452039203a000000000000000000000000000000815250611188565b5f89908060018154018082558091505060019003905f5260205f20015f9091909190915090816110da919061212d565b50505050505050505050505050505050565b61118482826040516024016111029291906121fc565b6040516020818303038152906040527fb60e72cc000000000000000000000000000000000000000000000000000000007bffffffffffffffffffffffffffffffffffffffffffffffffffffffff19166020820180517bffffffffffffffffffffffffffffffffffffffffffffffffffffffff8381831617835250505050611221565b5050565b61121e8160405160240161119c919061134e565b6040516020818303038152906040527f41304fac000000000000000000000000000000000000000000000000000000007bffffffffffffffffffffffffffffffffffffffffffffffffffffffff19166020820180517bffffffffffffffffffffffffffffffffffffffffffffffffffffffff8381831617835250505050611221565b50565b6112388161123061123b61125a565b63ffffffff16565b50565b5f6a636f6e736f6c652e6c6f6790505f5f835160208501845afa505050565b611265819050919050565b61126d61222a565b565b5f604051905090565b5f5ffd5b5f5ffd5b5f819050919050565b61129281611280565b811461129c575f5ffd5b50565b5f813590506112ad81611289565b92915050565b5f602082840312156112c8576112c7611278565b5b5f6112d58482850161129f565b91505092915050565b5f81519050919050565b5f82825260208201905092915050565b8281835e5f83830152505050565b5f601f19601f8301169050919050565b5f611320826112de565b61132a81856112e8565b935061133a8185602086016112f8565b61134381611306565b840191505092915050565b5f6020820190508181035f8301526113668184611316565b905092915050565b5f73ffffffffffffffffffffffffffffffffffffffff82169050919050565b5f6113978261136e565b9050919050565b6113a78161138d565b81146113b1575f5ffd5b50565b5f813590506113c28161139e565b92915050565b5f5ffd5b5f5ffd5b7f4e487b71000000000000000000000000000000000000000000000000000000005f52604160045260245ffd5b61140682611306565b810181811067ffffffffffffffff82111715611425576114246113d0565b5b80604052505050565b5f61143761126f565b905061144382826113fd565b919050565b5f67ffffffffffffffff821115611462576114616113d0565b5b61146b82611306565b9050602081019050919050565b828183375f83830152505050565b5f61149861149384611448565b61142e565b9050828152602081018484840111156114b4576114b36113cc565b5b6114bf848285611478565b509392505050565b5f82601f8301126114db576114da6113c8565b5b81356114eb848260208601611486565b91505092915050565b5f5f5f5f5f5f5f60e0888a03121561150f5761150e611278565b5b5f61151c8a828b016113b4565b975050602061152d8a828b016113b4565b965050604061153e8a828b016113b4565b955050606061154f8a828b0161129f565b94505060806115608a828b0161129f565b93505060a06115718a828b0161129f565b92505060c088013567ffffffffffffffff8111156115925761159161127c565b5b61159e8a828b016114c7565b91505092959891949750929550565b7f4e487b71000000000000000000000000000000000000000000000000000000005f52602260045260245ffd5b5f60028204905060018216806115f157607f821691505b602082108103611604576116036115ad565b5b50919050565b7f496e76616c6964206c697175696469747920616d6f756e7473000000000000005f82015250565b5f61163e6019836112e8565b91506116498261160a565b602082019050919050565b5f6020820190508181035f83015261166b81611632565b9050919050565b7f496e76616c6964207377617020616d6f756e74000000000000000000000000005f82015250565b5f6116a66013836112e8565b91506116b182611672565b602082019050919050565b5f6020820190508181035f8301526116d38161169a565b9050919050565b6116e38161138d565b82525050565b5f6020820190506116fc5f8301846116da565b92915050565b5f8151905061171081611289565b92915050565b5f6020828403121561172b5761172a611278565b5b5f61173884828501611702565b91505092915050565b7f496e73756666696369656e7420746f6b656e204120737570706c7920666f72205f8201527f7468697320636f6e746163740000000000000000000000000000000000000000602082015250565b5f61179b602c836112e8565b91506117a682611741565b604082019050919050565b5f6020820190508181035f8301526117c88161178f565b9050919050565b7f496e73756666696369656e7420746f6b656e204220737570706c7920666f72205f8201527f7468697320636f6e746163740000000000000000000000000000000000000000602082015250565b5f611829602c836112e8565b9150611834826117cf565b604082019050919050565b5f6020820190508181035f8301526118568161181d565b9050919050565b61186681611280565b82525050565b5f60408201905061187f5f8301856116da565b61188c602083018461185d565b9392505050565b5f8115159050919050565b6118a781611893565b81146118b1575f5ffd5b50565b5f815190506118c28161189e565b92915050565b5f602082840312156118dd576118dc611278565b5b5f6118ea848285016118b4565b91505092915050565b5f6040820190506119065f8301856116da565b61191360208301846116da565b9392505050565b7f4e487b71000000000000000000000000000000000000000000000000000000005f52601160045260245ffd5b5f61195182611280565b915061195c83611280565b92508282019050808211156119745761197361191a565b5b92915050565b5f6101008201905061198e5f83018b6116da565b61199b602083018a6116da565b6119a8604083018961185d565b6119b5606083018861185d565b6119c2608083018761185d565b6119cf60a083018661185d565b6119dc60c08301856116da565b6119e960e083018461185d565b9998505050505050505050565b5f5f5f60608486031215611a0d57611a0c611278565b5b5f611a1a86828701611702565b9350506020611a2b86828701611702565b9250506040611a3c86828701611702565b9150509250925092565b7f6164644c697175696469747920616d6f756e7473206d69736d617463680000005f82015250565b5f611a7a601d836112e8565b9150611a8582611a46565b602082019050919050565b5f6020820190508181035f830152611aa781611a6e565b9050919050565b7f6164644c69717569646974792072657475726e6564207a65726f206c697175695f8201527f6469747900000000000000000000000000000000000000000000000000000000602082015250565b5f611b086024836112e8565b9150611b1382611aae565b604082019050919050565b5f6020820190508181035f830152611b3581611afc565b9050919050565b5f611b4682611280565b9150611b5183611280565b9250828202611b5f81611280565b91508282048414831517611b7657611b7561191a565b5b5092915050565b7f4e487b71000000000000000000000000000000000000000000000000000000005f52601260045260245ffd5b5f611bb482611280565b9150611bbf83611280565b925082611bcf57611bce611b7d565b5b828204905092915050565b7f676574507269636520696e636f727265637400000000000000000000000000005f82015250565b5f611c0e6012836112e8565b9150611c1982611bda565b602082019050919050565b5f6020820190508181035f830152611c3b81611c02565b9050919050565b5f606082019050611c555f83018661185d565b611c62602083018561185d565b611c6f604083018461185d565b949350505050565b7f4e487b71000000000000000000000000000000000000000000000000000000005f52603260045260245ffd5b5f81519050919050565b5f82825260208201905092915050565b5f819050602082019050919050565b611cd68161138d565b82525050565b5f611ce78383611ccd565b60208301905092915050565b5f602082019050919050565b5f611d0982611ca4565b611d138185611cae565b9350611d1e83611cbe565b805f5b83811015611d4e578151611d358882611cdc565b9750611d4083611cf3565b925050600181019050611d21565b5085935050505092915050565b5f60a082019050611d6e5f83018861185d565b611d7b602083018761185d565b8181036040830152611d8d8186611cff565b9050611d9c60608301856116da565b611da9608083018461185d565b9695505050505050565b7f737761704578616374546f6b656e73466f72546f6b656e73206661696c6564005f82015250565b5f611de7601f836112e8565b9150611df282611db3565b602082019050919050565b5f6020820190508181035f830152611e1481611ddb565b9050919050565b5f819050919050565b5f819050919050565b5f611e47611e42611e3d84611e1b565b611e24565b611280565b9050919050565b611e5781611e2d565b82525050565b5f60e082019050611e705f83018a6116da565b611e7d60208301896116da565b611e8a604083018861185d565b611e976060830187611e4e565b611ea46080830186611e4e565b611eb160a08301856116da565b611ebe60c083018461185d565b98975050505050505050565b5f5f60408385031215611ee057611edf611278565b5b5f611eed85828601611702565b9250506020611efe85828601611702565b9150509250929050565b7f72656d6f76654c69717569646974792072657475726e6564207a65726f20746f5f8201527f6b656e7300000000000000000000000000000000000000000000000000000000602082015250565b5f611f626024836112e8565b9150611f6d82611f08565b604082019050919050565b5f6020820190508181035f830152611f8f81611f56565b9050919050565b5f819050815f5260205f209050919050565b5f6020601f8301049050919050565b5f82821b905092915050565b5f60088302611ff27fffffffffffffffffffffffffffffffffffffffffffffffffffffffffffffffff82611fb7565b611ffc8683611fb7565b95508019841693508086168417925050509392505050565b5f61202e61202961202484611280565b611e24565b611280565b9050919050565b5f819050919050565b61204783612014565b61205b61205382612035565b848454611fc3565b825550505050565b5f5f905090565b612072612063565b61207d81848461203e565b505050565b5b818110156120a0576120955f8261206a565b600181019050612083565b5050565b601f8211156120e5576120b681611f96565b6120bf84611fa8565b810160208510156120ce578190505b6120e26120da85611fa8565b830182612082565b50505b505050565b5f82821c905092915050565b5f6121055f19846008026120ea565b1980831691505092915050565b5f61211d83836120f6565b9150826002028217905092915050565b612136826112de565b67ffffffffffffffff81111561214f5761214e6113d0565b5b61215982546115da565b6121648282856120a4565b5f60209050601f831160018114612195575f8415612183578287015190505b61218d8582612112565b8655506121f4565b601f1984166121a386611f96565b5f5b828110156121ca578489015182556001820191506020850194506020810190506121a5565b868310156121e757848901516121e3601f8916826120f6565b8355505b6001600288020188555050505b505050505050565b5f6040820190508181035f8301526122148185611316565b9050612223602083018461185d565b9392505050565b7f4e487b71000000000000000000000000000000000000000000000000000000005f52605160045260245ffdfea2646970667358221220d77e1b13858ac1f6306c3bd5e5771bc5b470fc7047b5b161789dab000e48fd9064736f6c634300081e0033",
			"opcodes": "PUSH1 0x80 PUSH1 0x40 MSTORE CALLVALUE DUP1 ISZERO PUSH1 0xE JUMPI PUSH0 PUSH0 REVERT JUMPDEST POP PUSH2 0x228D DUP1 PUSH2 0x1C PUSH0 CODECOPY PUSH0 RETURN INVALID PUSH1 0x80 PUSH1 0x40 MSTORE CALLVALUE DUP1 ISZERO PUSH2 0xF JUMPI PUSH0 PUSH0 REVERT JUMPDEST POP PUSH1 0x4 CALLDATASIZE LT PUSH2 0x34 JUMPI PUSH0 CALLDATALOAD PUSH1 0xE0 SHR DUP1 PUSH4 0x3DB804DA EQ PUSH2 0x38 JUMPI DUP1 PUSH4 0x457B8B91 EQ PUSH2 0x68 JUMPI JUMPDEST PUSH0 PUSH0 REVERT JUMPDEST PUSH2 0x52 PUSH1 0x4 DUP1 CALLDATASIZE SUB DUP2 ADD SWAP1 PUSH2 0x4D SWAP2 SWAP1 PUSH2 0x12B3 JUMP JUMPDEST PUSH2 0x84 JUMP JUMPDEST PUSH1 0x40 MLOAD PUSH2 0x5F SWAP2 SWAP1 PUSH2 0x134E JUMP JUMPDEST PUSH1 0x40 MLOAD DUP1 SWAP2 SUB SWAP1 RETURN JUMPDEST PUSH2 0x82 PUSH1 0x4 DUP1 CALLDATASIZE SUB DUP2 ADD SWAP1 PUSH2 0x7D SWAP2 SWAP1 PUSH2 0x14F4 JUMP JUMPDEST PUSH2 0x129 JUMP JUMPDEST STOP JUMPDEST PUSH0 DUP2 DUP2 SLOAD DUP2 LT PUSH2 0x92 JUMPI PUSH0 DUP1 REVERT JUMPDEST SWAP1 PUSH0 MSTORE PUSH1 0x20 PUSH0 KECCAK256 ADD PUSH0 SWAP2 POP SWAP1 POP DUP1 SLOAD PUSH2 0xAA SWAP1 PUSH2 0x15DA JUMP JUMPDEST DUP1 PUSH1 0x1F ADD PUSH1 0x20 DUP1 SWAP2 DIV MUL PUSH1 0x20 ADD PUSH1 0x40 MLOAD SWAP1 DUP2 ADD PUSH1 0x40 MSTORE DUP1 SWAP3 SWAP2 SWAP1 DUP2 DUP2 MSTORE PUSH1 0x20 ADD DUP3 DUP1 SLOAD PUSH2 0xD6 SWAP1 PUSH2 0x15DA JUMP JUMPDEST DUP1 ISZERO PUSH2 0x121 JUMPI DUP1 PUSH1 0x1F LT PUSH2 0xF8 JUMPI PUSH2 0x100 DUP1 DUP4 SLOAD DIV MUL DUP4 MSTORE SWAP2 PUSH1 0x20 ADD SWAP2 PUSH2 0x121 JUMP JUMPDEST DUP3 ADD SWAP2 SWAP1 PUSH0 MSTORE PUSH1 0x20 PUSH0 KECCAK256 SWAP1 JUMPDEST DUP2 SLOAD DUP2 MSTORE SWAP1 PUSH1 0x1 ADD SWAP1 PUSH1 0x20 ADD DUP1 DUP4 GT PUSH2 0x104 JUMPI DUP3 SWAP1 SUB PUSH1 0x1F AND DUP3 ADD SWAP2 JUMPDEST POP POP POP POP POP DUP2 JUMP JUMPDEST PUSH0 DUP5 GT DUP1 ISZERO PUSH2 0x137 JUMPI POP PUSH0 DUP4 GT JUMPDEST PUSH2 0x176 JUMPI PUSH1 0x40 MLOAD PUSH32 0x8C379A000000000000000000000000000000000000000000000000000000000 DUP2 MSTORE PUSH1 0x4 ADD PUSH2 0x16D SWAP1 PUSH2 0x1654 JUMP JUMPDEST PUSH1 0x40 MLOAD DUP1 SWAP2 SUB SWAP1 REVERT JUMPDEST PUSH0 DUP3 GT DUP1 ISZERO PUSH2 0x185 JUMPI POP DUP4 DUP3 GT ISZERO JUMPDEST PUSH2 0x1C4 JUMPI PUSH1 0x40 MLOAD PUSH32 0x8C379A000000000000000000000000000000000000000000000000000000000 DUP2 MSTORE PUSH1 0x4 ADD PUSH2 0x1BB SWAP1 PUSH2 0x16BC JUMP JUMPDEST PUSH1 0x40 MLOAD DUP1 SWAP2 SUB SWAP1 REVERT JUMPDEST DUP4 DUP7 PUSH20 0xFFFFFFFFFFFFFFFFFFFFFFFFFFFFFFFFFFFFFFFF AND PUSH4 0x70A08231 ADDRESS PUSH1 0x40 MLOAD DUP3 PUSH4 0xFFFFFFFF AND PUSH1 0xE0 SHL DUP2 MSTORE PUSH1 0x4 ADD PUSH2 0x1FE SWAP2 SWAP1 PUSH2 0x16E9 JUMP JUMPDEST PUSH1 0x20 PUSH1 0x40 MLOAD DUP1 DUP4 SUB DUP2 DUP7 GAS STATICCALL ISZERO DUP1 ISZERO PUSH2 0x219 JUMPI RETURNDATASIZE PUSH0 PUSH0 RETURNDATACOPY RETURNDATASIZE PUSH0 REVERT JUMPDEST POP POP POP POP PUSH1 0x40 MLOAD RETURNDATASIZE PUSH1 0x1F NOT PUSH1 0x1F DUP3 ADD AND DUP3 ADD DUP1 PUSH1 0x40 MSTORE POP DUP2 ADD SWAP1 PUSH2 0x23D SWAP2 SWAP1 PUSH2 0x1716 JUMP JUMPDEST LT ISZERO PUSH2 0x27E JUMPI PUSH1 0x40 MLOAD PUSH32 0x8C379A000000000000000000000000000000000000000000000000000000000 DUP2 MSTORE PUSH1 0x4 ADD PUSH2 0x275 SWAP1 PUSH2 0x17B1 JUMP JUMPDEST PUSH1 0x40 MLOAD DUP1 SWAP2 SUB SWAP1 REVERT JUMPDEST DUP3 DUP6 PUSH20 0xFFFFFFFFFFFFFFFFFFFFFFFFFFFFFFFFFFFFFFFF AND PUSH4 0x70A08231 ADDRESS PUSH1 0x40 MLOAD DUP3 PUSH4 0xFFFFFFFF AND PUSH1 0xE0 SHL DUP2 MSTORE PUSH1 0x4 ADD PUSH2 0x2B8 SWAP2 SWAP1 PUSH2 0x16E9 JUMP JUMPDEST PUSH1 0x20 PUSH1 0x40 MLOAD DUP1 DUP4 SUB DUP2 DUP7 GAS STATICCALL ISZERO DUP1 ISZERO PUSH2 0x2D3 JUMPI RETURNDATASIZE PUSH0 PUSH0 RETURNDATACOPY RETURNDATASIZE PUSH0 REVERT JUMPDEST POP POP POP POP PUSH1 0x40 MLOAD RETURNDATASIZE PUSH1 0x1F NOT PUSH1 0x1F DUP3 ADD AND DUP3 ADD DUP1 PUSH1 0x40 MSTORE POP DUP2 ADD SWAP1 PUSH2 0x2F7 SWAP2 SWAP1 PUSH2 0x1716 JUMP JUMPDEST LT ISZERO PUSH2 0x338 JUMPI PUSH1 0x40 MLOAD PUSH32 0x8C379A000000000000000000000000000000000000000000000000000000000 DUP2 MSTORE PUSH1 0x4 ADD PUSH2 0x32F SWAP1 PUSH2 0x183F JUMP JUMPDEST PUSH1 0x40 MLOAD DUP1 SWAP2 SUB SWAP1 REVERT JUMPDEST PUSH2 0x3EE PUSH1 0x40 MLOAD DUP1 PUSH1 0x40 ADD PUSH1 0x40 MSTORE DUP1 PUSH1 0x1B DUP2 MSTORE PUSH1 0x20 ADD PUSH32 0x454D49492042414C414E434520303030303030303030303041203A0000000000 DUP2 MSTORE POP DUP8 PUSH20 0xFFFFFFFFFFFFFFFFFFFFFFFFFFFFFFFFFFFFFFFF AND PUSH4 0x70A08231 DUP11 PUSH1 0x40 MLOAD DUP3 PUSH4 0xFFFFFFFF AND PUSH1 0xE0 SHL DUP2 MSTORE PUSH1 0x4 ADD PUSH2 0x3AA SWAP2 SWAP1 PUSH2 0x16E9 JUMP JUMPDEST PUSH1 0x20 PUSH1 0x40 MLOAD DUP1 DUP4 SUB DUP2 DUP7 GAS STATICCALL ISZERO DUP1 ISZERO PUSH2 0x3C5 JUMPI RETURNDATASIZE PUSH0 PUSH0 RETURNDATACOPY RETURNDATASIZE PUSH0 REVERT JUMPDEST POP POP POP POP PUSH1 0x40 MLOAD RETURNDATASIZE PUSH1 0x1F NOT PUSH1 0x1F DUP3 ADD AND DUP3 ADD DUP1 PUSH1 0x40 MSTORE POP DUP2 ADD SWAP1 PUSH2 0x3E9 SWAP2 SWAP1 PUSH2 0x1716 JUMP JUMPDEST PUSH2 0x10EC JUMP JUMPDEST PUSH2 0x4A4 PUSH1 0x40 MLOAD DUP1 PUSH1 0x40 ADD PUSH1 0x40 MSTORE DUP1 PUSH1 0x1B DUP2 MSTORE PUSH1 0x20 ADD PUSH32 0x454D49492042414C414E434520303030303030303030303042203A0000000000 DUP2 MSTORE POP DUP7 PUSH20 0xFFFFFFFFFFFFFFFFFFFFFFFFFFFFFFFFFFFFFFFF AND PUSH4 0x70A08231 DUP11 PUSH1 0x40 MLOAD DUP3 PUSH4 0xFFFFFFFF AND PUSH1 0xE0 SHL DUP2 MSTORE PUSH1 0x4 ADD PUSH2 0x460 SWAP2 SWAP1 PUSH2 0x16E9 JUMP JUMPDEST PUSH1 0x20 PUSH1 0x40 MLOAD DUP1 DUP4 SUB DUP2 DUP7 GAS STATICCALL ISZERO DUP1 ISZERO PUSH2 0x47B JUMPI RETURNDATASIZE PUSH0 PUSH0 RETURNDATACOPY RETURNDATASIZE PUSH0 REVERT JUMPDEST POP POP POP POP PUSH1 0x40 MLOAD RETURNDATASIZE PUSH1 0x1F NOT PUSH1 0x1F DUP3 ADD AND DUP3 ADD DUP1 PUSH1 0x40 MSTORE POP DUP2 ADD SWAP1 PUSH2 0x49F SWAP2 SWAP1 PUSH2 0x1716 JUMP JUMPDEST PUSH2 0x10EC JUMP JUMPDEST DUP6 PUSH20 0xFFFFFFFFFFFFFFFFFFFFFFFFFFFFFFFFFFFFFFFF AND PUSH4 0x95EA7B3 DUP9 DUP7 PUSH1 0x40 MLOAD DUP4 PUSH4 0xFFFFFFFF AND PUSH1 0xE0 SHL DUP2 MSTORE PUSH1 0x4 ADD PUSH2 0x4DF SWAP3 SWAP2 SWAP1 PUSH2 0x186C JUMP JUMPDEST PUSH1 0x20 PUSH1 0x40 MLOAD DUP1 DUP4 SUB DUP2 PUSH0 DUP8 GAS CALL ISZERO DUP1 ISZERO PUSH2 0x4FB JUMPI RETURNDATASIZE PUSH0 PUSH0 RETURNDATACOPY RETURNDATASIZE PUSH0 REVERT JUMPDEST POP POP POP POP PUSH1 0x40 MLOAD RETURNDATASIZE PUSH1 0x1F NOT PUSH1 0x1F DUP3 ADD AND DUP3 ADD DUP1 PUSH1 0x40 MSTORE POP DUP2 ADD SWAP1 PUSH2 0x51F SWAP2 SWAP1 PUSH2 0x18C8 JUMP JUMPDEST POP PUSH2 0x5D8 PUSH1 0x40 MLOAD DUP1 PUSH1 0x40 ADD PUSH1 0x40 MSTORE DUP1 PUSH1 0x1C DUP2 MSTORE PUSH1 0x20 ADD PUSH32 0x454D49492041505050524F564520303030303030303030303041203A00000000 DUP2 MSTORE POP DUP8 PUSH20 0xFFFFFFFFFFFFFFFFFFFFFFFFFFFFFFFFFFFFFFFF AND PUSH4 0xDD62ED3E ADDRESS DUP12 PUSH1 0x40 MLOAD DUP4 PUSH4 0xFFFFFFFF AND PUSH1 0xE0 SHL DUP2 MSTORE PUSH1 0x4 ADD PUSH2 0x594 SWAP3 SWAP2 SWAP1 PUSH2 0x18F3 JUMP JUMPDEST PUSH1 0x20 PUSH1 0x40 MLOAD DUP1 DUP4 SUB DUP2 DUP7 GAS STATICCALL ISZERO DUP1 ISZERO PUSH2 0x5AF JUMPI RETURNDATASIZE PUSH0 PUSH0 RETURNDATACOPY RETURNDATASIZE PUSH0 REVERT JUMPDEST POP POP POP POP PUSH1 0x40 MLOAD RETURNDATASIZE PUSH1 0x1F NOT PUSH1 0x1F DUP3 ADD AND DUP3 ADD DUP1 PUSH1 0x40 MSTORE POP DUP2 ADD SWAP1 PUSH2 0x5D3 SWAP2 SWAP1 PUSH2 0x1716 JUMP JUMPDEST PUSH2 0x10EC JUMP JUMPDEST DUP5 PUSH20 0xFFFFFFFFFFFFFFFFFFFFFFFFFFFFFFFFFFFFFFFF AND PUSH4 0x95EA7B3 DUP9 DUP6 PUSH1 0x40 MLOAD DUP4 PUSH4 0xFFFFFFFF AND PUSH1 0xE0 SHL DUP2 MSTORE PUSH1 0x4 ADD PUSH2 0x613 SWAP3 SWAP2 SWAP1 PUSH2 0x186C JUMP JUMPDEST PUSH1 0x20 PUSH1 0x40 MLOAD DUP1 DUP4 SUB DUP2 PUSH0 DUP8 GAS CALL ISZERO DUP1 ISZERO PUSH2 0x62F JUMPI RETURNDATASIZE PUSH0 PUSH0 RETURNDATACOPY RETURNDATASIZE PUSH0 REVERT JUMPDEST POP POP POP POP PUSH1 0x40 MLOAD RETURNDATASIZE PUSH1 0x1F NOT PUSH1 0x1F DUP3 ADD AND DUP3 ADD DUP1 PUSH1 0x40 MSTORE POP DUP2 ADD SWAP1 PUSH2 0x653 SWAP2 SWAP1 PUSH2 0x18C8 JUMP JUMPDEST POP PUSH2 0x70C PUSH1 0x40 MLOAD DUP1 PUSH1 0x40 ADD PUSH1 0x40 MSTORE DUP1 PUSH1 0x1C DUP2 MSTORE PUSH1 0x20 ADD PUSH32 0x454D49492041505050524F564520303030303030303030303042203A00000000 DUP2 MSTORE POP DUP8 PUSH20 0xFFFFFFFFFFFFFFFFFFFFFFFFFFFFFFFFFFFFFFFF AND PUSH4 0xDD62ED3E ADDRESS DUP12 PUSH1 0x40 MLOAD DUP4 PUSH4 0xFFFFFFFF AND PUSH1 0xE0 SHL DUP2 MSTORE PUSH1 0x4 ADD PUSH2 0x6C8 SWAP3 SWAP2 SWAP1 PUSH2 0x18F3 JUMP JUMPDEST PUSH1 0x20 PUSH1 0x40 MLOAD DUP1 DUP4 SUB DUP2 DUP7 GAS STATICCALL ISZERO DUP1 ISZERO PUSH2 0x6E3 JUMPI RETURNDATASIZE PUSH0 PUSH0 RETURNDATACOPY RETURNDATASIZE PUSH0 REVERT JUMPDEST POP POP POP POP PUSH1 0x40 MLOAD RETURNDATASIZE PUSH1 0x1F NOT PUSH1 0x1F DUP3 ADD AND DUP3 ADD DUP1 PUSH1 0x40 MSTORE POP DUP2 ADD SWAP1 PUSH2 0x707 SWAP2 SWAP1 PUSH2 0x1716 JUMP JUMPDEST PUSH2 0x10EC JUMP JUMPDEST PUSH0 PUSH0 PUSH0 DUP10 PUSH20 0xFFFFFFFFFFFFFFFFFFFFFFFFFFFFFFFFFFFFFFFF AND PUSH4 0xE8E33700 DUP11 DUP11 DUP11 DUP11 DUP13 DUP13 ADDRESS PUSH1 0x1 TIMESTAMP PUSH2 0x73F SWAP2 SWAP1 PUSH2 0x1947 JUMP JUMPDEST PUSH1 0x40 MLOAD DUP10 PUSH4 0xFFFFFFFF AND PUSH1 0xE0 SHL DUP2 MSTORE PUSH1 0x4 ADD PUSH2 0x762 SWAP9 SWAP8 SWAP7 SWAP6 SWAP5 SWAP4 SWAP3 SWAP2 SWAP1 PUSH2 0x197A JUMP JUMPDEST PUSH1 0x60 PUSH1 0x40 MLOAD DUP1 DUP4 SUB DUP2 PUSH0 DUP8 GAS CALL ISZERO DUP1 ISZERO PUSH2 0x77E JUMPI RETURNDATASIZE PUSH0 PUSH0 RETURNDATACOPY RETURNDATASIZE PUSH0 REVERT JUMPDEST POP POP POP POP PUSH1 0x40 MLOAD RETURNDATASIZE PUSH1 0x1F NOT PUSH1 0x1F DUP3 ADD AND DUP3 ADD DUP1 PUSH1 0x40 MSTORE POP DUP2 ADD SWAP1 PUSH2 0x7A2 SWAP2 SWAP1 PUSH2 0x19F6 JUMP JUMPDEST SWAP3 POP SWAP3 POP SWAP3 POP DUP7 DUP4 EQ DUP1 ISZERO PUSH2 0x7B6 JUMPI POP DUP6 DUP3 EQ JUMPDEST PUSH2 0x7F5 JUMPI PUSH1 0x40 MLOAD PUSH32 0x8C379A000000000000000000000000000000000000000000000000000000000 DUP2 MSTORE PUSH1 0x4 ADD PUSH2 0x7EC SWAP1 PUSH2 0x1A90 JUMP JUMPDEST PUSH1 0x40 MLOAD DUP1 SWAP2 SUB SWAP1 REVERT JUMPDEST PUSH0 DUP2 GT PUSH2 0x837 JUMPI PUSH1 0x40 MLOAD PUSH32 0x8C379A000000000000000000000000000000000000000000000000000000000 DUP2 MSTORE PUSH1 0x4 ADD PUSH2 0x82E SWAP1 PUSH2 0x1B1E JUMP JUMPDEST PUSH1 0x40 MLOAD DUP1 SWAP2 SUB SWAP1 REVERT JUMPDEST PUSH2 0x8ED PUSH1 0x40 MLOAD DUP1 PUSH1 0x40 ADD PUSH1 0x40 MSTORE DUP1 PUSH1 0x1B DUP2 MSTORE PUSH1 0x20 ADD PUSH32 0x454D49492042414C414E434520303030303030303030303041203A0000000000 DUP2 MSTORE POP DUP11 PUSH20 0xFFFFFFFFFFFFFFFFFFFFFFFFFFFFFFFFFFFFFFFF AND PUSH4 0x70A08231 DUP14 PUSH1 0x40 MLOAD DUP3 PUSH4 0xFFFFFFFF AND PUSH1 0xE0 SHL DUP2 MSTORE PUSH1 0x4 ADD PUSH2 0x8A9 SWAP2 SWAP1 PUSH2 0x16E9 JUMP JUMPDEST PUSH1 0x20 PUSH1 0x40 MLOAD DUP1 DUP4 SUB DUP2 DUP7 GAS STATICCALL ISZERO DUP1 ISZERO PUSH2 0x8C4 JUMPI RETURNDATASIZE PUSH0 PUSH0 RETURNDATACOPY RETURNDATASIZE PUSH0 REVERT JUMPDEST POP POP POP POP PUSH1 0x40 MLOAD RETURNDATASIZE PUSH1 0x1F NOT PUSH1 0x1F DUP3 ADD AND DUP3 ADD DUP1 PUSH1 0x40 MSTORE POP DUP2 ADD SWAP1 PUSH2 0x8E8 SWAP2 SWAP1 PUSH2 0x1716 JUMP JUMPDEST PUSH2 0x10EC JUMP JUMPDEST PUSH2 0x9A3 PUSH1 0x40 MLOAD DUP1 PUSH1 0x40 ADD PUSH1 0x40 MSTORE DUP1 PUSH1 0x1B DUP2 MSTORE PUSH1 0x20 ADD PUSH32 0x454D49492042414C414E434520303030303030303030303042203A0000000000 DUP2 MSTORE POP DUP10 PUSH20 0xFFFFFFFFFFFFFFFFFFFFFFFFFFFFFFFFFFFFFFFF AND PUSH4 0x70A08231 DUP14 PUSH1 0x40 MLOAD DUP3 PUSH4 0xFFFFFFFF AND PUSH1 0xE0 SHL DUP2 MSTORE PUSH1 0x4 ADD PUSH2 0x95F SWAP2 SWAP1 PUSH2 0x16E9 JUMP JUMPDEST PUSH1 0x20 PUSH1 0x40 MLOAD DUP1 DUP4 SUB DUP2 DUP7 GAS STATICCALL ISZERO DUP1 ISZERO PUSH2 0x97A JUMPI RETURNDATASIZE PUSH0 PUSH0 RETURNDATACOPY RETURNDATASIZE PUSH0 REVERT JUMPDEST POP POP POP POP PUSH1 0x40 MLOAD RETURNDATASIZE PUSH1 0x1F NOT PUSH1 0x1F DUP3 ADD AND DUP3 ADD DUP1 PUSH1 0x40 MSTORE POP DUP2 ADD SWAP1 PUSH2 0x99E SWAP2 SWAP1 PUSH2 0x1716 JUMP JUMPDEST PUSH2 0x10EC JUMP JUMPDEST PUSH2 0x9E1 PUSH1 0x40 MLOAD DUP1 PUSH1 0x40 ADD PUSH1 0x40 MSTORE DUP1 PUSH1 0x11 DUP2 MSTORE PUSH1 0x20 ADD PUSH32 0x454D49492041505050524F56452031203A000000000000000000000000000000 DUP2 MSTORE POP PUSH2 0x1188 JUMP JUMPDEST PUSH0 DUP11 PUSH20 0xFFFFFFFFFFFFFFFFFFFFFFFFFFFFFFFFFFFFFFFF AND PUSH4 0xAC41865A DUP12 DUP12 PUSH1 0x40 MLOAD DUP4 PUSH4 0xFFFFFFFF AND PUSH1 0xE0 SHL DUP2 MSTORE PUSH1 0x4 ADD PUSH2 0xA1D SWAP3 SWAP2 SWAP1 PUSH2 0x18F3 JUMP JUMPDEST PUSH1 0x20 PUSH1 0x40 MLOAD DUP1 DUP4 SUB DUP2 DUP7 GAS STATICCALL ISZERO DUP1 ISZERO PUSH2 0xA38 JUMPI RETURNDATASIZE PUSH0 PUSH0 RETURNDATACOPY RETURNDATASIZE PUSH0 REVERT JUMPDEST POP POP POP POP PUSH1 0x40 MLOAD RETURNDATASIZE PUSH1 0x1F NOT PUSH1 0x1F DUP3 ADD AND DUP3 ADD DUP1 PUSH1 0x40 MSTORE POP DUP2 ADD SWAP1 PUSH2 0xA5C SWAP2 SWAP1 PUSH2 0x1716 JUMP JUMPDEST SWAP1 POP DUP4 PUSH8 0xDE0B6B3A7640000 DUP5 PUSH2 0xA73 SWAP2 SWAP1 PUSH2 0x1B3C JUMP JUMPDEST PUSH2 0xA7D SWAP2 SWAP1 PUSH2 0x1BAA JUMP JUMPDEST DUP2 EQ PUSH2 0xABE JUMPI PUSH1 0x40 MLOAD PUSH32 0x8C379A000000000000000000000000000000000000000000000000000000000 DUP2 MSTORE PUSH1 0x4 ADD PUSH2 0xAB5 SWAP1 PUSH2 0x1C24 JUMP JUMPDEST PUSH1 0x40 MLOAD DUP1 SWAP2 SUB SWAP1 REVERT JUMPDEST PUSH2 0xAFC PUSH1 0x40 MLOAD DUP1 PUSH1 0x40 ADD PUSH1 0x40 MSTORE DUP1 PUSH1 0x11 DUP2 MSTORE PUSH1 0x20 ADD PUSH32 0x454D49492041505050524F56452032203A000000000000000000000000000000 DUP2 MSTORE POP PUSH2 0x1188 JUMP JUMPDEST PUSH0 DUP12 PUSH20 0xFFFFFFFFFFFFFFFFFFFFFFFFFFFFFFFFFFFFFFFF AND PUSH4 0x54D50D4 DUP9 DUP8 DUP8 PUSH1 0x40 MLOAD DUP5 PUSH4 0xFFFFFFFF AND PUSH1 0xE0 SHL DUP2 MSTORE PUSH1 0x4 ADD PUSH2 0xB3A SWAP4 SWAP3 SWAP2 SWAP1 PUSH2 0x1C42 JUMP JUMPDEST PUSH1 0x20 PUSH1 0x40 MLOAD DUP1 DUP4 SUB DUP2 DUP7 GAS STATICCALL ISZERO DUP1 ISZERO PUSH2 0xB55 JUMPI RETURNDATASIZE PUSH0 PUSH0 RETURNDATACOPY RETURNDATASIZE PUSH0 REVERT JUMPDEST POP POP POP POP PUSH1 0x40 MLOAD RETURNDATASIZE PUSH1 0x1F NOT PUSH1 0x1F DUP3 ADD AND DUP3 ADD DUP1 PUSH1 0x40 MSTORE POP DUP2 ADD SWAP1 PUSH2 0xB79 SWAP2 SWAP1 PUSH2 0x1716 JUMP JUMPDEST SWAP1 POP PUSH2 0xBB9 PUSH1 0x40 MLOAD DUP1 PUSH1 0x40 ADD PUSH1 0x40 MSTORE DUP1 PUSH1 0x11 DUP2 MSTORE PUSH1 0x20 ADD PUSH32 0x454D49492041505050524F56452033203A000000000000000000000000000000 DUP2 MSTORE POP PUSH2 0x1188 JUMP JUMPDEST DUP11 PUSH20 0xFFFFFFFFFFFFFFFFFFFFFFFFFFFFFFFFFFFFFFFF AND PUSH4 0x95EA7B3 DUP14 DUP10 PUSH1 0x40 MLOAD DUP4 PUSH4 0xFFFFFFFF AND PUSH1 0xE0 SHL DUP2 MSTORE PUSH1 0x4 ADD PUSH2 0xBF4 SWAP3 SWAP2 SWAP1 PUSH2 0x186C JUMP JUMPDEST PUSH1 0x20 PUSH1 0x40 MLOAD DUP1 DUP4 SUB DUP2 PUSH0 DUP8 GAS CALL ISZERO DUP1 ISZERO PUSH2 0xC10 JUMPI RETURNDATASIZE PUSH0 PUSH0 RETURNDATACOPY RETURNDATASIZE PUSH0 REVERT JUMPDEST POP POP POP POP PUSH1 0x40 MLOAD RETURNDATASIZE PUSH1 0x1F NOT PUSH1 0x1F DUP3 ADD AND DUP3 ADD DUP1 PUSH1 0x40 MSTORE POP DUP2 ADD SWAP1 PUSH2 0xC34 SWAP2 SWAP1 PUSH2 0x18C8 JUMP JUMPDEST POP PUSH2 0xC73 PUSH1 0x40 MLOAD DUP1 PUSH1 0x40 ADD PUSH1 0x40 MSTORE DUP1 PUSH1 0x11 DUP2 MSTORE PUSH1 0x20 ADD PUSH32 0x454D49492041505050524F56452034203A000000000000000000000000000000 DUP2 MSTORE POP PUSH2 0x1188 JUMP JUMPDEST PUSH0 PUSH1 0x2 PUSH8 0xFFFFFFFFFFFFFFFF DUP2 GT ISZERO PUSH2 0xC8F JUMPI PUSH2 0xC8E PUSH2 0x13D0 JUMP JUMPDEST JUMPDEST PUSH1 0x40 MLOAD SWAP1 DUP1 DUP3 MSTORE DUP1 PUSH1 0x20 MUL PUSH1 0x20 ADD DUP3 ADD PUSH1 0x40 MSTORE DUP1 ISZERO PUSH2 0xCBD JUMPI DUP2 PUSH1 0x20 ADD PUSH1 0x20 DUP3 MUL DUP1 CALLDATASIZE DUP4 CALLDATACOPY DUP1 DUP3 ADD SWAP2 POP POP SWAP1 POP JUMPDEST POP SWAP1 POP DUP12 DUP2 PUSH0 DUP2 MLOAD DUP2 LT PUSH2 0xCD4 JUMPI PUSH2 0xCD3 PUSH2 0x1C77 JUMP JUMPDEST JUMPDEST PUSH1 0x20 MUL PUSH1 0x20 ADD ADD SWAP1 PUSH20 0xFFFFFFFFFFFFFFFFFFFFFFFFFFFFFFFFFFFFFFFF AND SWAP1 DUP2 PUSH20 0xFFFFFFFFFFFFFFFFFFFFFFFFFFFFFFFFFFFFFFFF AND DUP2 MSTORE POP POP DUP11 DUP2 PUSH1 0x1 DUP2 MLOAD DUP2 LT PUSH2 0xD23 JUMPI PUSH2 0xD22 PUSH2 0x1C77 JUMP JUMPDEST JUMPDEST PUSH1 0x20 MUL PUSH1 0x20 ADD ADD SWAP1 PUSH20 0xFFFFFFFFFFFFFFFFFFFFFFFFFFFFFFFFFFFFFFFF AND SWAP1 DUP2 PUSH20 0xFFFFFFFFFFFFFFFFFFFFFFFFFFFFFFFFFFFFFFFF AND DUP2 MSTORE POP POP PUSH2 0xD9B PUSH1 0x40 MLOAD DUP1 PUSH1 0x40 ADD PUSH1 0x40 MSTORE DUP1 PUSH1 0x11 DUP2 MSTORE PUSH1 0x20 ADD PUSH32 0x454D49492041505050524F56452035203A000000000000000000000000000000 DUP2 MSTORE POP PUSH2 0x1188 JUMP JUMPDEST DUP13 PUSH20 0xFFFFFFFFFFFFFFFFFFFFFFFFFFFFFFFFFFFFFFFF AND PUSH4 0x38ED1739 DUP10 DUP5 DUP5 ADDRESS PUSH1 0x1 TIMESTAMP PUSH2 0xDC8 SWAP2 SWAP1 PUSH2 0x1947 JUMP JUMPDEST PUSH1 0x40 MLOAD DUP7 PUSH4 0xFFFFFFFF AND PUSH1 0xE0 SHL DUP2 MSTORE PUSH1 0x4 ADD PUSH2 0xDE8 SWAP6 SWAP5 SWAP4 SWAP3 SWAP2 SWAP1 PUSH2 0x1D5B JUMP JUMPDEST PUSH0 PUSH1 0x40 MLOAD DUP1 DUP4 SUB DUP2 PUSH0 DUP8 DUP1 EXTCODESIZE ISZERO DUP1 ISZERO PUSH2 0xDFF JUMPI PUSH0 PUSH0 REVERT JUMPDEST POP GAS CALL ISZERO DUP1 ISZERO PUSH2 0xE11 JUMPI RETURNDATASIZE PUSH0 PUSH0 RETURNDATACOPY RETURNDATASIZE PUSH0 REVERT JUMPDEST POP POP POP POP PUSH2 0xE53 PUSH1 0x40 MLOAD DUP1 PUSH1 0x40 ADD PUSH1 0x40 MSTORE DUP1 PUSH1 0x11 DUP2 MSTORE PUSH1 0x20 ADD PUSH32 0x454D49492041505050524F56452036203A000000000000000000000000000000 DUP2 MSTORE POP PUSH2 0x1188 JUMP JUMPDEST DUP2 DUP12 PUSH20 0xFFFFFFFFFFFFFFFFFFFFFFFFFFFFFFFFFFFFFFFF AND PUSH4 0x70A08231 ADDRESS PUSH1 0x40 MLOAD DUP3 PUSH4 0xFFFFFFFF AND PUSH1 0xE0 SHL DUP2 MSTORE PUSH1 0x4 ADD PUSH2 0xE8D SWAP2 SWAP1 PUSH2 0x16E9 JUMP JUMPDEST PUSH1 0x20 PUSH1 0x40 MLOAD DUP1 DUP4 SUB DUP2 DUP7 GAS STATICCALL ISZERO DUP1 ISZERO PUSH2 0xEA8 JUMPI RETURNDATASIZE PUSH0 PUSH0 RETURNDATACOPY RETURNDATASIZE PUSH0 REVERT JUMPDEST POP POP POP POP PUSH1 0x40 MLOAD RETURNDATASIZE PUSH1 0x1F NOT PUSH1 0x1F DUP3 ADD AND DUP3 ADD DUP1 PUSH1 0x40 MSTORE POP DUP2 ADD SWAP1 PUSH2 0xECC SWAP2 SWAP1 PUSH2 0x1716 JUMP JUMPDEST LT ISZERO PUSH2 0xF0D JUMPI PUSH1 0x40 MLOAD PUSH32 0x8C379A000000000000000000000000000000000000000000000000000000000 DUP2 MSTORE PUSH1 0x4 ADD PUSH2 0xF04 SWAP1 PUSH2 0x1DFD JUMP JUMPDEST PUSH1 0x40 MLOAD DUP1 SWAP2 SUB SWAP1 REVERT JUMPDEST PUSH2 0xF4B PUSH1 0x40 MLOAD DUP1 PUSH1 0x40 ADD PUSH1 0x40 MSTORE DUP1 PUSH1 0x11 DUP2 MSTORE PUSH1 0x20 ADD PUSH32 0x454D49492041505050524F56452037203A000000000000000000000000000000 DUP2 MSTORE POP PUSH2 0x1188 JUMP JUMPDEST PUSH0 PUSH0 DUP15 PUSH20 0xFFFFFFFFFFFFFFFFFFFFFFFFFFFFFFFFFFFFFFFF AND PUSH4 0xBAA2ABDE DUP16 DUP16 DUP10 PUSH0 PUSH0 ADDRESS PUSH1 0x1 TIMESTAMP PUSH2 0xF7C SWAP2 SWAP1 PUSH2 0x1947 JUMP JUMPDEST PUSH1 0x40 MLOAD DUP9 PUSH4 0xFFFFFFFF AND PUSH1 0xE0 SHL DUP2 MSTORE PUSH1 0x4 ADD PUSH2 0xF9E SWAP8 SWAP7 SWAP6 SWAP5 SWAP4 SWAP3 SWAP2 SWAP1 PUSH2 0x1E5D JUMP JUMPDEST PUSH1 0x40 DUP1 MLOAD DUP1 DUP4 SUB DUP2 PUSH0 DUP8 GAS CALL ISZERO DUP1 ISZERO PUSH2 0xFB9 JUMPI RETURNDATASIZE PUSH0 PUSH0 RETURNDATACOPY RETURNDATASIZE PUSH0 REVERT JUMPDEST POP POP POP POP PUSH1 0x40 MLOAD RETURNDATASIZE PUSH1 0x1F NOT PUSH1 0x1F DUP3 ADD AND DUP3 ADD DUP1 PUSH1 0x40 MSTORE POP DUP2 ADD SWAP1 PUSH2 0xFDD SWAP2 SWAP1 PUSH2 0x1ECA JUMP JUMPDEST SWAP2 POP SWAP2 POP PUSH2 0x101F PUSH1 0x40 MLOAD DUP1 PUSH1 0x40 ADD PUSH1 0x40 MSTORE DUP1 PUSH1 0x11 DUP2 MSTORE PUSH1 0x20 ADD PUSH32 0x454D49492041505050524F56452038203A000000000000000000000000000000 DUP2 MSTORE POP PUSH2 0x1188 JUMP JUMPDEST PUSH0 DUP2 DUP4 PUSH2 0x102C SWAP2 SWAP1 PUSH2 0x1947 JUMP JUMPDEST GT PUSH2 0x106C JUMPI PUSH1 0x40 MLOAD PUSH32 0x8C379A000000000000000000000000000000000000000000000000000000000 DUP2 MSTORE PUSH1 0x4 ADD PUSH2 0x1063 SWAP1 PUSH2 0x1F78 JUMP JUMPDEST PUSH1 0x40 MLOAD DUP1 SWAP2 SUB SWAP1 REVERT JUMPDEST PUSH2 0x10AA PUSH1 0x40 MLOAD DUP1 PUSH1 0x40 ADD PUSH1 0x40 MSTORE DUP1 PUSH1 0x11 DUP2 MSTORE PUSH1 0x20 ADD PUSH32 0x454D49492041505050524F56452039203A000000000000000000000000000000 DUP2 MSTORE POP PUSH2 0x1188 JUMP JUMPDEST PUSH0 DUP10 SWAP1 DUP1 PUSH1 0x1 DUP2 SLOAD ADD DUP1 DUP3 SSTORE DUP1 SWAP2 POP POP PUSH1 0x1 SWAP1 SUB SWAP1 PUSH0 MSTORE PUSH1 0x20 PUSH0 KECCAK256 ADD PUSH0 SWAP1 SWAP2 SWAP1 SWAP2 SWAP1 SWAP2 POP SWAP1 DUP2 PUSH2 0x10DA SWAP2 SWAP1 PUSH2 0x212D JUMP JUMPDEST POP POP POP POP POP POP POP POP POP POP POP POP POP POP POP POP JUMP JUMPDEST PUSH2 0x1184 DUP3 DUP3 PUSH1 0x40 MLOAD PUSH1 0x24 ADD PUSH2 0x1102 SWAP3 SWAP2 SWAP1 PUSH2 0x21FC JUMP JUMPDEST PUSH1 0x40 MLOAD PUSH1 0x20 DUP2 DUP4 SUB SUB DUP2 MSTORE SWAP1 PUSH1 0x40 MSTORE PUSH32 0xB60E72CC00000000000000000000000000000000000000000000000000000000 PUSH28 0xFFFFFFFFFFFFFFFFFFFFFFFFFFFFFFFFFFFFFFFFFFFFFFFFFFFFFFFF NOT AND PUSH1 0x20 DUP3 ADD DUP1 MLOAD PUSH28 0xFFFFFFFFFFFFFFFFFFFFFFFFFFFFFFFFFFFFFFFFFFFFFFFFFFFFFFFF DUP4 DUP2 DUP4 AND OR DUP4 MSTORE POP POP POP POP PUSH2 0x1221 JUMP JUMPDEST POP POP JUMP JUMPDEST PUSH2 0x121E DUP2 PUSH1 0x40 MLOAD PUSH1 0x24 ADD PUSH2 0x119C SWAP2 SWAP1 PUSH2 0x134E JUMP JUMPDEST PUSH1 0x40 MLOAD PUSH1 0x20 DUP2 DUP4 SUB SUB DUP2 MSTORE SWAP1 PUSH1 0x40 MSTORE PUSH32 0x41304FAC00000000000000000000000000000000000000000000000000000000 PUSH28 0xFFFFFFFFFFFFFFFFFFFFFFFFFFFFFFFFFFFFFFFFFFFFFFFFFFFFFFFF NOT AND PUSH1 0x20 DUP3 ADD DUP1 MLOAD PUSH28 0xFFFFFFFFFFFFFFFFFFFFFFFFFFFFFFFFFFFFFFFFFFFFFFFFFFFFFFFF DUP4 DUP2 DUP4 AND OR DUP4 MSTORE POP POP POP POP PUSH2 0x1221 JUMP JUMPDEST POP JUMP JUMPDEST PUSH2 0x1238 DUP2 PUSH2 0x1230 PUSH2 0x123B PUSH2 0x125A JUMP JUMPDEST PUSH4 0xFFFFFFFF AND JUMP JUMPDEST POP JUMP JUMPDEST PUSH0 PUSH11 0x636F6E736F6C652E6C6F67 SWAP1 POP PUSH0 PUSH0 DUP4 MLOAD PUSH1 0x20 DUP6 ADD DUP5 GAS STATICCALL POP POP POP JUMP JUMPDEST PUSH2 0x1265 DUP2 SWAP1 POP SWAP2 SWAP1 POP JUMP JUMPDEST PUSH2 0x126D PUSH2 0x222A JUMP JUMPDEST JUMP JUMPDEST PUSH0 PUSH1 0x40 MLOAD SWAP1 POP SWAP1 JUMP JUMPDEST PUSH0 PUSH0 REVERT JUMPDEST PUSH0 PUSH0 REVERT JUMPDEST PUSH0 DUP2 SWAP1 POP SWAP2 SWAP1 POP JUMP JUMPDEST PUSH2 0x1292 DUP2 PUSH2 0x1280 JUMP JUMPDEST DUP2 EQ PUSH2 0x129C JUMPI PUSH0 PUSH0 REVERT JUMPDEST POP JUMP JUMPDEST PUSH0 DUP2 CALLDATALOAD SWAP1 POP PUSH2 0x12AD DUP2 PUSH2 0x1289 JUMP JUMPDEST SWAP3 SWAP2 POP POP JUMP JUMPDEST PUSH0 PUSH1 0x20 DUP3 DUP5 SUB SLT ISZERO PUSH2 0x12C8 JUMPI PUSH2 0x12C7 PUSH2 0x1278 JUMP JUMPDEST JUMPDEST PUSH0 PUSH2 0x12D5 DUP5 DUP3 DUP6 ADD PUSH2 0x129F JUMP JUMPDEST SWAP2 POP POP SWAP3 SWAP2 POP POP JUMP JUMPDEST PUSH0 DUP2 MLOAD SWAP1 POP SWAP2 SWAP1 POP JUMP JUMPDEST PUSH0 DUP3 DUP3 MSTORE PUSH1 0x20 DUP3 ADD SWAP1 POP SWAP3 SWAP2 POP POP JUMP JUMPDEST DUP3 DUP2 DUP4 MCOPY PUSH0 DUP4 DUP4 ADD MSTORE POP POP POP JUMP JUMPDEST PUSH0 PUSH1 0x1F NOT PUSH1 0x1F DUP4 ADD AND SWAP1 POP SWAP2 SWAP1 POP JUMP JUMPDEST PUSH0 PUSH2 0x1320 DUP3 PUSH2 0x12DE JUMP JUMPDEST PUSH2 0x132A DUP2 DUP6 PUSH2 0x12E8 JUMP JUMPDEST SWAP4 POP PUSH2 0x133A DUP2 DUP6 PUSH1 0x20 DUP7 ADD PUSH2 0x12F8 JUMP JUMPDEST PUSH2 0x1343 DUP2 PUSH2 0x1306 JUMP JUMPDEST DUP5 ADD SWAP2 POP POP SWAP3 SWAP2 POP POP JUMP JUMPDEST PUSH0 PUSH1 0x20 DUP3 ADD SWAP1 POP DUP2 DUP2 SUB PUSH0 DUP4 ADD MSTORE PUSH2 0x1366 DUP2 DUP5 PUSH2 0x1316 JUMP JUMPDEST SWAP1 POP SWAP3 SWAP2 POP POP JUMP JUMPDEST PUSH0 PUSH20 0xFFFFFFFFFFFFFFFFFFFFFFFFFFFFFFFFFFFFFFFF DUP3 AND SWAP1 POP SWAP2 SWAP1 POP JUMP JUMPDEST PUSH0 PUSH2 0x1397 DUP3 PUSH2 0x136E JUMP JUMPDEST SWAP1 POP SWAP2 SWAP1 POP JUMP JUMPDEST PUSH2 0x13A7 DUP2 PUSH2 0x138D JUMP JUMPDEST DUP2 EQ PUSH2 0x13B1 JUMPI PUSH0 PUSH0 REVERT JUMPDEST POP JUMP JUMPDEST PUSH0 DUP2 CALLDATALOAD SWAP1 POP PUSH2 0x13C2 DUP2 PUSH2 0x139E JUMP JUMPDEST SWAP3 SWAP2 POP POP JUMP JUMPDEST PUSH0 PUSH0 REVERT JUMPDEST PUSH0 PUSH0 REVERT JUMPDEST PUSH32 0x4E487B7100000000000000000000000000000000000000000000000000000000 PUSH0 MSTORE PUSH1 0x41 PUSH1 0x4 MSTORE PUSH1 0x24 PUSH0 REVERT JUMPDEST PUSH2 0x1406 DUP3 PUSH2 0x1306 JUMP JUMPDEST DUP2 ADD DUP2 DUP2 LT PUSH8 0xFFFFFFFFFFFFFFFF DUP3 GT OR ISZERO PUSH2 0x1425 JUMPI PUSH2 0x1424 PUSH2 0x13D0 JUMP JUMPDEST JUMPDEST DUP1 PUSH1 0x40 MSTORE POP POP POP JUMP JUMPDEST PUSH0 PUSH2 0x1437 PUSH2 0x126F JUMP JUMPDEST SWAP1 POP PUSH2 0x1443 DUP3 DUP3 PUSH2 0x13FD JUMP JUMPDEST SWAP2 SWAP1 POP JUMP JUMPDEST PUSH0 PUSH8 0xFFFFFFFFFFFFFFFF DUP3 GT ISZERO PUSH2 0x1462 JUMPI PUSH2 0x1461 PUSH2 0x13D0 JUMP JUMPDEST JUMPDEST PUSH2 0x146B DUP3 PUSH2 0x1306 JUMP JUMPDEST SWAP1 POP PUSH1 0x20 DUP2 ADD SWAP1 POP SWAP2 SWAP1 POP JUMP JUMPDEST DUP3 DUP2 DUP4 CALLDATACOPY PUSH0 DUP4 DUP4 ADD MSTORE POP POP POP JUMP JUMPDEST PUSH0 PUSH2 0x1498 PUSH2 0x1493 DUP5 PUSH2 0x1448 JUMP JUMPDEST PUSH2 0x142E JUMP JUMPDEST SWAP1 POP DUP3 DUP2 MSTORE PUSH1 0x20 DUP2 ADD DUP5 DUP5 DUP5 ADD GT ISZERO PUSH2 0x14B4 JUMPI PUSH2 0x14B3 PUSH2 0x13CC JUMP JUMPDEST JUMPDEST PUSH2 0x14BF DUP5 DUP3 DUP6 PUSH2 0x1478 JUMP JUMPDEST POP SWAP4 SWAP3 POP POP POP JUMP JUMPDEST PUSH0 DUP3 PUSH1 0x1F DUP4 ADD SLT PUSH2 0x14DB JUMPI PUSH2 0x14DA PUSH2 0x13C8 JUMP JUMPDEST JUMPDEST DUP2 CALLDATALOAD PUSH2 0x14EB DUP5 DUP3 PUSH1 0x20 DUP7 ADD PUSH2 0x1486 JUMP JUMPDEST SWAP2 POP POP SWAP3 SWAP2 POP POP JUMP JUMPDEST PUSH0 PUSH0 PUSH0 PUSH0 PUSH0 PUSH0 PUSH0 PUSH1 0xE0 DUP9 DUP11 SUB SLT ISZERO PUSH2 0x150F JUMPI PUSH2 0x150E PUSH2 0x1278 JUMP JUMPDEST JUMPDEST PUSH0 PUSH2 0x151C DUP11 DUP3 DUP12 ADD PUSH2 0x13B4 JUMP JUMPDEST SWAP8 POP POP PUSH1 0x20 PUSH2 0x152D DUP11 DUP3 DUP12 ADD PUSH2 0x13B4 JUMP JUMPDEST SWAP7 POP POP PUSH1 0x40 PUSH2 0x153E DUP11 DUP3 DUP12 ADD PUSH2 0x13B4 JUMP JUMPDEST SWAP6 POP POP PUSH1 0x60 PUSH2 0x154F DUP11 DUP3 DUP12 ADD PUSH2 0x129F JUMP JUMPDEST SWAP5 POP POP PUSH1 0x80 PUSH2 0x1560 DUP11 DUP3 DUP12 ADD PUSH2 0x129F JUMP JUMPDEST SWAP4 POP POP PUSH1 0xA0 PUSH2 0x1571 DUP11 DUP3 DUP12 ADD PUSH2 0x129F JUMP JUMPDEST SWAP3 POP POP PUSH1 0xC0 DUP9 ADD CALLDATALOAD PUSH8 0xFFFFFFFFFFFFFFFF DUP2 GT ISZERO PUSH2 0x1592 JUMPI PUSH2 0x1591 PUSH2 0x127C JUMP JUMPDEST JUMPDEST PUSH2 0x159E DUP11 DUP3 DUP12 ADD PUSH2 0x14C7 JUMP JUMPDEST SWAP2 POP POP SWAP3 SWAP6 SWAP9 SWAP2 SWAP5 SWAP8 POP SWAP3 SWAP6 POP JUMP JUMPDEST PUSH32 0x4E487B7100000000000000000000000000000000000000000000000000000000 PUSH0 MSTORE PUSH1 0x22 PUSH1 0x4 MSTORE PUSH1 0x24 PUSH0 REVERT JUMPDEST PUSH0 PUSH1 0x2 DUP3 DIV SWAP1 POP PUSH1 0x1 DUP3 AND DUP1 PUSH2 0x15F1 JUMPI PUSH1 0x7F DUP3 AND SWAP2 POP JUMPDEST PUSH1 0x20 DUP3 LT DUP2 SUB PUSH2 0x1604 JUMPI PUSH2 0x1603 PUSH2 0x15AD JUMP JUMPDEST JUMPDEST POP SWAP2 SWAP1 POP JUMP JUMPDEST PUSH32 0x496E76616C6964206C697175696469747920616D6F756E747300000000000000 PUSH0 DUP3 ADD MSTORE POP JUMP JUMPDEST PUSH0 PUSH2 0x163E PUSH1 0x19 DUP4 PUSH2 0x12E8 JUMP JUMPDEST SWAP2 POP PUSH2 0x1649 DUP3 PUSH2 0x160A JUMP JUMPDEST PUSH1 0x20 DUP3 ADD SWAP1 POP SWAP2 SWAP1 POP JUMP JUMPDEST PUSH0 PUSH1 0x20 DUP3 ADD SWAP1 POP DUP2 DUP2 SUB PUSH0 DUP4 ADD MSTORE PUSH2 0x166B DUP2 PUSH2 0x1632 JUMP JUMPDEST SWAP1 POP SWAP2 SWAP1 POP JUMP JUMPDEST PUSH32 0x496E76616C6964207377617020616D6F756E7400000000000000000000000000 PUSH0 DUP3 ADD MSTORE POP JUMP JUMPDEST PUSH0 PUSH2 0x16A6 PUSH1 0x13 DUP4 PUSH2 0x12E8 JUMP JUMPDEST SWAP2 POP PUSH2 0x16B1 DUP3 PUSH2 0x1672 JUMP JUMPDEST PUSH1 0x20 DUP3 ADD SWAP1 POP SWAP2 SWAP1 POP JUMP JUMPDEST PUSH0 PUSH1 0x20 DUP3 ADD SWAP1 POP DUP2 DUP2 SUB PUSH0 DUP4 ADD MSTORE PUSH2 0x16D3 DUP2 PUSH2 0x169A JUMP JUMPDEST SWAP1 POP SWAP2 SWAP1 POP JUMP JUMPDEST PUSH2 0x16E3 DUP2 PUSH2 0x138D JUMP JUMPDEST DUP3 MSTORE POP POP JUMP JUMPDEST PUSH0 PUSH1 0x20 DUP3 ADD SWAP1 POP PUSH2 0x16FC PUSH0 DUP4 ADD DUP5 PUSH2 0x16DA JUMP JUMPDEST SWAP3 SWAP2 POP POP JUMP JUMPDEST PUSH0 DUP2 MLOAD SWAP1 POP PUSH2 0x1710 DUP2 PUSH2 0x1289 JUMP JUMPDEST SWAP3 SWAP2 POP POP JUMP JUMPDEST PUSH0 PUSH1 0x20 DUP3 DUP5 SUB SLT ISZERO PUSH2 0x172B JUMPI PUSH2 0x172A PUSH2 0x1278 JUMP JUMPDEST JUMPDEST PUSH0 PUSH2 0x1738 DUP5 DUP3 DUP6 ADD PUSH2 0x1702 JUMP JUMPDEST SWAP2 POP POP SWAP3 SWAP2 POP POP JUMP JUMPDEST PUSH32 0x496E73756666696369656E7420746F6B656E204120737570706C7920666F7220 PUSH0 DUP3 ADD MSTORE PUSH32 0x7468697320636F6E746163740000000000000000000000000000000000000000 PUSH1 0x20 DUP3 ADD MSTORE POP JUMP JUMPDEST PUSH0 PUSH2 0x179B PUSH1 0x2C DUP4 PUSH2 0x12E8 JUMP JUMPDEST SWAP2 POP PUSH2 0x17A6 DUP3 PUSH2 0x1741 JUMP JUMPDEST PUSH1 0x40 DUP3 ADD SWAP1 POP SWAP2 SWAP1 POP JUMP JUMPDEST PUSH0 PUSH1 0x20 DUP3 ADD SWAP1 POP DUP2 DUP2 SUB PUSH0 DUP4 ADD MSTORE PUSH2 0x17C8 DUP2 PUSH2 0x178F JUMP JUMPDEST SWAP1 POP SWAP2 SWAP1 POP JUMP JUMPDEST PUSH32 0x496E73756666696369656E7420746F6B656E204220737570706C7920666F7220 PUSH0 DUP3 ADD MSTORE PUSH32 0x7468697320636F6E746163740000000000000000000000000000000000000000 PUSH1 0x20 DUP3 ADD MSTORE POP JUMP JUMPDEST PUSH0 PUSH2 0x1829 PUSH1 0x2C DUP4 PUSH2 0x12E8 JUMP JUMPDEST SWAP2 POP PUSH2 0x1834 DUP3 PUSH2 0x17CF JUMP JUMPDEST PUSH1 0x40 DUP3 ADD SWAP1 POP SWAP2 SWAP1 POP JUMP JUMPDEST PUSH0 PUSH1 0x20 DUP3 ADD SWAP1 POP DUP2 DUP2 SUB PUSH0 DUP4 ADD MSTORE PUSH2 0x1856 DUP2 PUSH2 0x181D JUMP JUMPDEST SWAP1 POP SWAP2 SWAP1 POP JUMP JUMPDEST PUSH2 0x1866 DUP2 PUSH2 0x1280 JUMP JUMPDEST DUP3 MSTORE POP POP JUMP JUMPDEST PUSH0 PUSH1 0x40 DUP3 ADD SWAP1 POP PUSH2 0x187F PUSH0 DUP4 ADD DUP6 PUSH2 0x16DA JUMP JUMPDEST PUSH2 0x188C PUSH1 0x20 DUP4 ADD DUP5 PUSH2 0x185D JUMP JUMPDEST SWAP4 SWAP3 POP POP POP JUMP JUMPDEST PUSH0 DUP2 ISZERO ISZERO SWAP1 POP SWAP2 SWAP1 POP JUMP JUMPDEST PUSH2 0x18A7 DUP2 PUSH2 0x1893 JUMP JUMPDEST DUP2 EQ PUSH2 0x18B1 JUMPI PUSH0 PUSH0 REVERT JUMPDEST POP JUMP JUMPDEST PUSH0 DUP2 MLOAD SWAP1 POP PUSH2 0x18C2 DUP2 PUSH2 0x189E JUMP JUMPDEST SWAP3 SWAP2 POP POP JUMP JUMPDEST PUSH0 PUSH1 0x20 DUP3 DUP5 SUB SLT ISZERO PUSH2 0x18DD JUMPI PUSH2 0x18DC PUSH2 0x1278 JUMP JUMPDEST JUMPDEST PUSH0 PUSH2 0x18EA DUP5 DUP3 DUP6 ADD PUSH2 0x18B4 JUMP JUMPDEST SWAP2 POP POP SWAP3 SWAP2 POP POP JUMP JUMPDEST PUSH0 PUSH1 0x40 DUP3 ADD SWAP1 POP PUSH2 0x1906 PUSH0 DUP4 ADD DUP6 PUSH2 0x16DA JUMP JUMPDEST PUSH2 0x1913 PUSH1 0x20 DUP4 ADD DUP5 PUSH2 0x16DA JUMP JUMPDEST SWAP4 SWAP3 POP POP POP JUMP JUMPDEST PUSH32 0x4E487B7100000000000000000000000000000000000000000000000000000000 PUSH0 MSTORE PUSH1 0x11 PUSH1 0x4 MSTORE PUSH1 0x24 PUSH0 REVERT JUMPDEST PUSH0 PUSH2 0x1951 DUP3 PUSH2 0x1280 JUMP JUMPDEST SWAP2 POP PUSH2 0x195C DUP4 PUSH2 0x1280 JUMP JUMPDEST SWAP3 POP DUP3 DUP3 ADD SWAP1 POP DUP1 DUP3 GT ISZERO PUSH2 0x1974 JUMPI PUSH2 0x1973 PUSH2 0x191A JUMP JUMPDEST JUMPDEST SWAP3 SWAP2 POP POP JUMP JUMPDEST PUSH0 PUSH2 0x100 DUP3 ADD SWAP1 POP PUSH2 0x198E PUSH0 DUP4 ADD DUP12 PUSH2 0x16DA JUMP JUMPDEST PUSH2 0x199B PUSH1 0x20 DUP4 ADD DUP11 PUSH2 0x16DA JUMP JUMPDEST PUSH2 0x19A8 PUSH1 0x40 DUP4 ADD DUP10 PUSH2 0x185D JUMP JUMPDEST PUSH2 0x19B5 PUSH1 0x60 DUP4 ADD DUP9 PUSH2 0x185D JUMP JUMPDEST PUSH2 0x19C2 PUSH1 0x80 DUP4 ADD DUP8 PUSH2 0x185D JUMP JUMPDEST PUSH2 0x19CF PUSH1 0xA0 DUP4 ADD DUP7 PUSH2 0x185D JUMP JUMPDEST PUSH2 0x19DC PUSH1 0xC0 DUP4 ADD DUP6 PUSH2 0x16DA JUMP JUMPDEST PUSH2 0x19E9 PUSH1 0xE0 DUP4 ADD DUP5 PUSH2 0x185D JUMP JUMPDEST SWAP10 SWAP9 POP POP POP POP POP POP POP POP POP JUMP JUMPDEST PUSH0 PUSH0 PUSH0 PUSH1 0x60 DUP5 DUP7 SUB SLT ISZERO PUSH2 0x1A0D JUMPI PUSH2 0x1A0C PUSH2 0x1278 JUMP JUMPDEST JUMPDEST PUSH0 PUSH2 0x1A1A DUP7 DUP3 DUP8 ADD PUSH2 0x1702 JUMP JUMPDEST SWAP4 POP POP PUSH1 0x20 PUSH2 0x1A2B DUP7 DUP3 DUP8 ADD PUSH2 0x1702 JUMP JUMPDEST SWAP3 POP POP PUSH1 0x40 PUSH2 0x1A3C DUP7 DUP3 DUP8 ADD PUSH2 0x1702 JUMP JUMPDEST SWAP2 POP POP SWAP3 POP SWAP3 POP SWAP3 JUMP JUMPDEST PUSH32 0x6164644C697175696469747920616D6F756E7473206D69736D61746368000000 PUSH0 DUP3 ADD MSTORE POP JUMP JUMPDEST PUSH0 PUSH2 0x1A7A PUSH1 0x1D DUP4 PUSH2 0x12E8 JUMP JUMPDEST SWAP2 POP PUSH2 0x1A85 DUP3 PUSH2 0x1A46 JUMP JUMPDEST PUSH1 0x20 DUP3 ADD SWAP1 POP SWAP2 SWAP1 POP JUMP JUMPDEST PUSH0 PUSH1 0x20 DUP3 ADD SWAP1 POP DUP2 DUP2 SUB PUSH0 DUP4 ADD MSTORE PUSH2 0x1AA7 DUP2 PUSH2 0x1A6E JUMP JUMPDEST SWAP1 POP SWAP2 SWAP1 POP JUMP JUMPDEST PUSH32 0x6164644C69717569646974792072657475726E6564207A65726F206C69717569 PUSH0 DUP3 ADD MSTORE PUSH32 0x6469747900000000000000000000000000000000000000000000000000000000 PUSH1 0x20 DUP3 ADD MSTORE POP JUMP JUMPDEST PUSH0 PUSH2 0x1B08 PUSH1 0x24 DUP4 PUSH2 0x12E8 JUMP JUMPDEST SWAP2 POP PUSH2 0x1B13 DUP3 PUSH2 0x1AAE JUMP JUMPDEST PUSH1 0x40 DUP3 ADD SWAP1 POP SWAP2 SWAP1 POP JUMP JUMPDEST PUSH0 PUSH1 0x20 DUP3 ADD SWAP1 POP DUP2 DUP2 SUB PUSH0 DUP4 ADD MSTORE PUSH2 0x1B35 DUP2 PUSH2 0x1AFC JUMP JUMPDEST SWAP1 POP SWAP2 SWAP1 POP JUMP JUMPDEST PUSH0 PUSH2 0x1B46 DUP3 PUSH2 0x1280 JUMP JUMPDEST SWAP2 POP PUSH2 0x1B51 DUP4 PUSH2 0x1280 JUMP JUMPDEST SWAP3 POP DUP3 DUP3 MUL PUSH2 0x1B5F DUP2 PUSH2 0x1280 JUMP JUMPDEST SWAP2 POP DUP3 DUP3 DIV DUP5 EQ DUP4 ISZERO OR PUSH2 0x1B76 JUMPI PUSH2 0x1B75 PUSH2 0x191A JUMP JUMPDEST JUMPDEST POP SWAP3 SWAP2 POP POP JUMP JUMPDEST PUSH32 0x4E487B7100000000000000000000000000000000000000000000000000000000 PUSH0 MSTORE PUSH1 0x12 PUSH1 0x4 MSTORE PUSH1 0x24 PUSH0 REVERT JUMPDEST PUSH0 PUSH2 0x1BB4 DUP3 PUSH2 0x1280 JUMP JUMPDEST SWAP2 POP PUSH2 0x1BBF DUP4 PUSH2 0x1280 JUMP JUMPDEST SWAP3 POP DUP3 PUSH2 0x1BCF JUMPI PUSH2 0x1BCE PUSH2 0x1B7D JUMP JUMPDEST JUMPDEST DUP3 DUP3 DIV SWAP1 POP SWAP3 SWAP2 POP POP JUMP JUMPDEST PUSH32 0x676574507269636520696E636F72726563740000000000000000000000000000 PUSH0 DUP3 ADD MSTORE POP JUMP JUMPDEST PUSH0 PUSH2 0x1C0E PUSH1 0x12 DUP4 PUSH2 0x12E8 JUMP JUMPDEST SWAP2 POP PUSH2 0x1C19 DUP3 PUSH2 0x1BDA JUMP JUMPDEST PUSH1 0x20 DUP3 ADD SWAP1 POP SWAP2 SWAP1 POP JUMP JUMPDEST PUSH0 PUSH1 0x20 DUP3 ADD SWAP1 POP DUP2 DUP2 SUB PUSH0 DUP4 ADD MSTORE PUSH2 0x1C3B DUP2 PUSH2 0x1C02 JUMP JUMPDEST SWAP1 POP SWAP2 SWAP1 POP JUMP JUMPDEST PUSH0 PUSH1 0x60 DUP3 ADD SWAP1 POP PUSH2 0x1C55 PUSH0 DUP4 ADD DUP7 PUSH2 0x185D JUMP JUMPDEST PUSH2 0x1C62 PUSH1 0x20 DUP4 ADD DUP6 PUSH2 0x185D JUMP JUMPDEST PUSH2 0x1C6F PUSH1 0x40 DUP4 ADD DUP5 PUSH2 0x185D JUMP JUMPDEST SWAP5 SWAP4 POP POP POP POP JUMP JUMPDEST PUSH32 0x4E487B7100000000000000000000000000000000000000000000000000000000 PUSH0 MSTORE PUSH1 0x32 PUSH1 0x4 MSTORE PUSH1 0x24 PUSH0 REVERT JUMPDEST PUSH0 DUP2 MLOAD SWAP1 POP SWAP2 SWAP1 POP JUMP JUMPDEST PUSH0 DUP3 DUP3 MSTORE PUSH1 0x20 DUP3 ADD SWAP1 POP SWAP3 SWAP2 POP POP JUMP JUMPDEST PUSH0 DUP2 SWAP1 POP PUSH1 0x20 DUP3 ADD SWAP1 POP SWAP2 SWAP1 POP JUMP JUMPDEST PUSH2 0x1CD6 DUP2 PUSH2 0x138D JUMP JUMPDEST DUP3 MSTORE POP POP JUMP JUMPDEST PUSH0 PUSH2 0x1CE7 DUP4 DUP4 PUSH2 0x1CCD JUMP JUMPDEST PUSH1 0x20 DUP4 ADD SWAP1 POP SWAP3 SWAP2 POP POP JUMP JUMPDEST PUSH0 PUSH1 0x20 DUP3 ADD SWAP1 POP SWAP2 SWAP1 POP JUMP JUMPDEST PUSH0 PUSH2 0x1D09 DUP3 PUSH2 0x1CA4 JUMP JUMPDEST PUSH2 0x1D13 DUP2 DUP6 PUSH2 0x1CAE JUMP JUMPDEST SWAP4 POP PUSH2 0x1D1E DUP4 PUSH2 0x1CBE JUMP JUMPDEST DUP1 PUSH0 JUMPDEST DUP4 DUP2 LT ISZERO PUSH2 0x1D4E JUMPI DUP2 MLOAD PUSH2 0x1D35 DUP9 DUP3 PUSH2 0x1CDC JUMP JUMPDEST SWAP8 POP PUSH2 0x1D40 DUP4 PUSH2 0x1CF3 JUMP JUMPDEST SWAP3 POP POP PUSH1 0x1 DUP2 ADD SWAP1 POP PUSH2 0x1D21 JUMP JUMPDEST POP DUP6 SWAP4 POP POP POP POP SWAP3 SWAP2 POP POP JUMP JUMPDEST PUSH0 PUSH1 0xA0 DUP3 ADD SWAP1 POP PUSH2 0x1D6E PUSH0 DUP4 ADD DUP9 PUSH2 0x185D JUMP JUMPDEST PUSH2 0x1D7B PUSH1 0x20 DUP4 ADD DUP8 PUSH2 0x185D JUMP JUMPDEST DUP2 DUP2 SUB PUSH1 0x40 DUP4 ADD MSTORE PUSH2 0x1D8D DUP2 DUP7 PUSH2 0x1CFF JUMP JUMPDEST SWAP1 POP PUSH2 0x1D9C PUSH1 0x60 DUP4 ADD DUP6 PUSH2 0x16DA JUMP JUMPDEST PUSH2 0x1DA9 PUSH1 0x80 DUP4 ADD DUP5 PUSH2 0x185D JUMP JUMPDEST SWAP7 SWAP6 POP POP POP POP POP POP JUMP JUMPDEST PUSH32 0x737761704578616374546F6B656E73466F72546F6B656E73206661696C656400 PUSH0 DUP3 ADD MSTORE POP JUMP JUMPDEST PUSH0 PUSH2 0x1DE7 PUSH1 0x1F DUP4 PUSH2 0x12E8 JUMP JUMPDEST SWAP2 POP PUSH2 0x1DF2 DUP3 PUSH2 0x1DB3 JUMP JUMPDEST PUSH1 0x20 DUP3 ADD SWAP1 POP SWAP2 SWAP1 POP JUMP JUMPDEST PUSH0 PUSH1 0x20 DUP3 ADD SWAP1 POP DUP2 DUP2 SUB PUSH0 DUP4 ADD MSTORE PUSH2 0x1E14 DUP2 PUSH2 0x1DDB JUMP JUMPDEST SWAP1 POP SWAP2 SWAP1 POP JUMP JUMPDEST PUSH0 DUP2 SWAP1 POP SWAP2 SWAP1 POP JUMP JUMPDEST PUSH0 DUP2 SWAP1 POP SWAP2 SWAP1 POP JUMP JUMPDEST PUSH0 PUSH2 0x1E47 PUSH2 0x1E42 PUSH2 0x1E3D DUP5 PUSH2 0x1E1B JUMP JUMPDEST PUSH2 0x1E24 JUMP JUMPDEST PUSH2 0x1280 JUMP JUMPDEST SWAP1 POP SWAP2 SWAP1 POP JUMP JUMPDEST PUSH2 0x1E57 DUP2 PUSH2 0x1E2D JUMP JUMPDEST DUP3 MSTORE POP POP JUMP JUMPDEST PUSH0 PUSH1 0xE0 DUP3 ADD SWAP1 POP PUSH2 0x1E70 PUSH0 DUP4 ADD DUP11 PUSH2 0x16DA JUMP JUMPDEST PUSH2 0x1E7D PUSH1 0x20 DUP4 ADD DUP10 PUSH2 0x16DA JUMP JUMPDEST PUSH2 0x1E8A PUSH1 0x40 DUP4 ADD DUP9 PUSH2 0x185D JUMP JUMPDEST PUSH2 0x1E97 PUSH1 0x60 DUP4 ADD DUP8 PUSH2 0x1E4E JUMP JUMPDEST PUSH2 0x1EA4 PUSH1 0x80 DUP4 ADD DUP7 PUSH2 0x1E4E JUMP JUMPDEST PUSH2 0x1EB1 PUSH1 0xA0 DUP4 ADD DUP6 PUSH2 0x16DA JUMP JUMPDEST PUSH2 0x1EBE PUSH1 0xC0 DUP4 ADD DUP5 PUSH2 0x185D JUMP JUMPDEST SWAP9 SWAP8 POP POP POP POP POP POP POP POP JUMP JUMPDEST PUSH0 PUSH0 PUSH1 0x40 DUP4 DUP6 SUB SLT ISZERO PUSH2 0x1EE0 JUMPI PUSH2 0x1EDF PUSH2 0x1278 JUMP JUMPDEST JUMPDEST PUSH0 PUSH2 0x1EED DUP6 DUP3 DUP7 ADD PUSH2 0x1702 JUMP JUMPDEST SWAP3 POP POP PUSH1 0x20 PUSH2 0x1EFE DUP6 DUP3 DUP7 ADD PUSH2 0x1702 JUMP JUMPDEST SWAP2 POP POP SWAP3 POP SWAP3 SWAP1 POP JUMP JUMPDEST PUSH32 0x72656D6F76654C69717569646974792072657475726E6564207A65726F20746F PUSH0 DUP3 ADD MSTORE PUSH32 0x6B656E7300000000000000000000000000000000000000000000000000000000 PUSH1 0x20 DUP3 ADD MSTORE POP JUMP JUMPDEST PUSH0 PUSH2 0x1F62 PUSH1 0x24 DUP4 PUSH2 0x12E8 JUMP JUMPDEST SWAP2 POP PUSH2 0x1F6D DUP3 PUSH2 0x1F08 JUMP JUMPDEST PUSH1 0x40 DUP3 ADD SWAP1 POP SWAP2 SWAP1 POP JUMP JUMPDEST PUSH0 PUSH1 0x20 DUP3 ADD SWAP1 POP DUP2 DUP2 SUB PUSH0 DUP4 ADD MSTORE PUSH2 0x1F8F DUP2 PUSH2 0x1F56 JUMP JUMPDEST SWAP1 POP SWAP2 SWAP1 POP JUMP JUMPDEST PUSH0 DUP2 SWAP1 POP DUP2 PUSH0 MSTORE PUSH1 0x20 PUSH0 KECCAK256 SWAP1 POP SWAP2 SWAP1 POP JUMP JUMPDEST PUSH0 PUSH1 0x20 PUSH1 0x1F DUP4 ADD DIV SWAP1 POP SWAP2 SWAP1 POP JUMP JUMPDEST PUSH0 DUP3 DUP3 SHL SWAP1 POP SWAP3 SWAP2 POP POP JUMP JUMPDEST PUSH0 PUSH1 0x8 DUP4 MUL PUSH2 0x1FF2 PUSH32 0xFFFFFFFFFFFFFFFFFFFFFFFFFFFFFFFFFFFFFFFFFFFFFFFFFFFFFFFFFFFFFFFF DUP3 PUSH2 0x1FB7 JUMP JUMPDEST PUSH2 0x1FFC DUP7 DUP4 PUSH2 0x1FB7 JUMP JUMPDEST SWAP6 POP DUP1 NOT DUP5 AND SWAP4 POP DUP1 DUP7 AND DUP5 OR SWAP3 POP POP POP SWAP4 SWAP3 POP POP POP JUMP JUMPDEST PUSH0 PUSH2 0x202E PUSH2 0x2029 PUSH2 0x2024 DUP5 PUSH2 0x1280 JUMP JUMPDEST PUSH2 0x1E24 JUMP JUMPDEST PUSH2 0x1280 JUMP JUMPDEST SWAP1 POP SWAP2 SWAP1 POP JUMP JUMPDEST PUSH0 DUP2 SWAP1 POP SWAP2 SWAP1 POP JUMP JUMPDEST PUSH2 0x2047 DUP4 PUSH2 0x2014 JUMP JUMPDEST PUSH2 0x205B PUSH2 0x2053 DUP3 PUSH2 0x2035 JUMP JUMPDEST DUP5 DUP5 SLOAD PUSH2 0x1FC3 JUMP JUMPDEST DUP3 SSTORE POP POP POP POP JUMP JUMPDEST PUSH0 PUSH0 SWAP1 POP SWAP1 JUMP JUMPDEST PUSH2 0x2072 PUSH2 0x2063 JUMP JUMPDEST PUSH2 0x207D DUP2 DUP5 DUP5 PUSH2 0x203E JUMP JUMPDEST POP POP POP JUMP JUMPDEST JUMPDEST DUP2 DUP2 LT ISZERO PUSH2 0x20A0 JUMPI PUSH2 0x2095 PUSH0 DUP3 PUSH2 0x206A JUMP JUMPDEST PUSH1 0x1 DUP2 ADD SWAP1 POP PUSH2 0x2083 JUMP JUMPDEST POP POP JUMP JUMPDEST PUSH1 0x1F DUP3 GT ISZERO PUSH2 0x20E5 JUMPI PUSH2 0x20B6 DUP2 PUSH2 0x1F96 JUMP JUMPDEST PUSH2 0x20BF DUP5 PUSH2 0x1FA8 JUMP JUMPDEST DUP2 ADD PUSH1 0x20 DUP6 LT ISZERO PUSH2 0x20CE JUMPI DUP2 SWAP1 POP JUMPDEST PUSH2 0x20E2 PUSH2 0x20DA DUP6 PUSH2 0x1FA8 JUMP JUMPDEST DUP4 ADD DUP3 PUSH2 0x2082 JUMP JUMPDEST POP POP JUMPDEST POP POP POP JUMP JUMPDEST PUSH0 DUP3 DUP3 SHR SWAP1 POP SWAP3 SWAP2 POP POP JUMP JUMPDEST PUSH0 PUSH2 0x2105 PUSH0 NOT DUP5 PUSH1 0x8 MUL PUSH2 0x20EA JUMP JUMPDEST NOT DUP1 DUP4 AND SWAP2 POP POP SWAP3 SWAP2 POP POP JUMP JUMPDEST PUSH0 PUSH2 0x211D DUP4 DUP4 PUSH2 0x20F6 JUMP JUMPDEST SWAP2 POP DUP3 PUSH1 0x2 MUL DUP3 OR SWAP1 POP SWAP3 SWAP2 POP POP JUMP JUMPDEST PUSH2 0x2136 DUP3 PUSH2 0x12DE JUMP JUMPDEST PUSH8 0xFFFFFFFFFFFFFFFF DUP2 GT ISZERO PUSH2 0x214F JUMPI PUSH2 0x214E PUSH2 0x13D0 JUMP JUMPDEST JUMPDEST PUSH2 0x2159 DUP3 SLOAD PUSH2 0x15DA JUMP JUMPDEST PUSH2 0x2164 DUP3 DUP3 DUP6 PUSH2 0x20A4 JUMP JUMPDEST PUSH0 PUSH1 0x20 SWAP1 POP PUSH1 0x1F DUP4 GT PUSH1 0x1 DUP2 EQ PUSH2 0x2195 JUMPI PUSH0 DUP5 ISZERO PUSH2 0x2183 JUMPI DUP3 DUP8 ADD MLOAD SWAP1 POP JUMPDEST PUSH2 0x218D DUP6 DUP3 PUSH2 0x2112 JUMP JUMPDEST DUP7 SSTORE POP PUSH2 0x21F4 JUMP JUMPDEST PUSH1 0x1F NOT DUP5 AND PUSH2 0x21A3 DUP7 PUSH2 0x1F96 JUMP JUMPDEST PUSH0 JUMPDEST DUP3 DUP2 LT ISZERO PUSH2 0x21CA JUMPI DUP5 DUP10 ADD MLOAD DUP3 SSTORE PUSH1 0x1 DUP3 ADD SWAP2 POP PUSH1 0x20 DUP6 ADD SWAP5 POP PUSH1 0x20 DUP2 ADD SWAP1 POP PUSH2 0x21A5 JUMP JUMPDEST DUP7 DUP4 LT ISZERO PUSH2 0x21E7 JUMPI DUP5 DUP10 ADD MLOAD PUSH2 0x21E3 PUSH1 0x1F DUP10 AND DUP3 PUSH2 0x20F6 JUMP JUMPDEST DUP4 SSTORE POP JUMPDEST PUSH1 0x1 PUSH1 0x2 DUP9 MUL ADD DUP9 SSTORE POP POP POP JUMPDEST POP POP POP POP POP POP JUMP JUMPDEST PUSH0 PUSH1 0x40 DUP3 ADD SWAP1 POP DUP2 DUP2 SUB PUSH0 DUP4 ADD MSTORE PUSH2 0x2214 DUP2 DUP6 PUSH2 0x1316 JUMP JUMPDEST SWAP1 POP PUSH2 0x2223 PUSH1 0x20 DUP4 ADD DUP5 PUSH2 0x185D JUMP JUMPDEST SWAP4 SWAP3 POP POP POP JUMP JUMPDEST PUSH32 0x4E487B7100000000000000000000000000000000000000000000000000000000 PUSH0 MSTORE PUSH1 0x51 PUSH1 0x4 MSTORE PUSH1 0x24 PUSH0 REVERT INVALID LOG2 PUSH5 0x6970667358 0x22 SLT KECCAK256 0xD7 PUSH31 0x1B13858AC1F6306C3BD5E5771BC5B470FC7047B5B161789DAB000E48FD9064 PUSH20 0x6F6C634300081E00330000000000000000000000 "
		},
		"gasEstimates": {
			"creation": {
				"codeDepositCost": "1769000",
				"executionCost": "1860",
				"totalCost": "1770860"
			},
			"external": {
				"authors(uint256)": "infinite",
				"verify(address,address,address,uint256,uint256,uint256,string)": "infinite"
			}
		},
		"methodIdentifiers": {
			"authors(uint256)": "3db804da",
			"verify(address,address,address,uint256,uint256,uint256,string)": "457b8b91"
		}
	},
	"abi": [
		{
			"inputs": [
				{
					"internalType": "uint256",
					"name": "",
					"type": "uint256"
				}
			],
			"name": "authors",
			"outputs": [
				{
					"internalType": "string",
					"name": "",
					"type": "string"
				}
			],
			"stateMutability": "view",
			"type": "function"
		},
		{
			"inputs": [
				{
					"internalType": "address",
					"name": "swapContract",
					"type": "address"
				},
				{
					"internalType": "address",
					"name": "tokenA",
					"type": "address"
				},
				{
					"internalType": "address",
					"name": "tokenB",
					"type": "address"
				},
				{
					"internalType": "uint256",
					"name": "amountA",
					"type": "uint256"
				},
				{
					"internalType": "uint256",
					"name": "amountB",
					"type": "uint256"
				},
				{
					"internalType": "uint256",
					"name": "amountIn",
					"type": "uint256"
				},
				{
					"internalType": "string",
					"name": "author",
					"type": "string"
				}
			],
			"name": "verify",
			"outputs": [],
			"stateMutability": "nonpayable",
			"type": "function"
		}
	]
}